{
	"contracts/Twitter.sol": {
		"Twitter": {
			"abi": [
				{
					"inputs": [],
					"stateMutability": "nonpayable",
					"type": "constructor"
				},
				{
					"anonymous": false,
					"inputs": [
						{
							"indexed": false,
							"internalType": "address",
							"name": "liker",
							"type": "address"
						},
						{
							"indexed": false,
							"internalType": "address",
							"name": "tweetAuthor",
							"type": "address"
						},
						{
							"indexed": false,
							"internalType": "uint256",
							"name": "tweetId",
							"type": "uint256"
						},
						{
							"indexed": false,
							"internalType": "uint256",
							"name": "newLikeCount",
							"type": "uint256"
						}
					],
					"name": "LikeTweet",
					"type": "event"
				},
				{
					"anonymous": false,
					"inputs": [
						{
							"indexed": false,
							"internalType": "uint256",
							"name": "id",
							"type": "uint256"
						},
						{
							"indexed": false,
							"internalType": "address",
							"name": "author",
							"type": "address"
						},
						{
							"indexed": false,
							"internalType": "string",
							"name": "tweet",
							"type": "string"
						},
						{
							"indexed": false,
							"internalType": "uint256",
							"name": "timestamp",
							"type": "uint256"
						}
					],
					"name": "TweetCreated",
					"type": "event"
				},
				{
					"anonymous": false,
					"inputs": [
						{
							"indexed": false,
							"internalType": "address",
							"name": "unliker",
							"type": "address"
						},
						{
							"indexed": false,
							"internalType": "address",
							"name": "tweetAuthor",
							"type": "address"
						},
						{
							"indexed": false,
							"internalType": "uint256",
							"name": "tweetId",
							"type": "uint256"
						},
						{
							"indexed": false,
							"internalType": "uint256",
							"name": "newLikeCount",
							"type": "uint256"
						}
					],
					"name": "UnlikeTweet",
					"type": "event"
				},
				{
					"inputs": [],
					"name": "CheckOwner",
					"outputs": [
						{
							"internalType": "address",
							"name": "",
							"type": "address"
						}
					],
					"stateMutability": "view",
					"type": "function"
				},
				{
					"inputs": [
						{
							"internalType": "uint256",
							"name": "tweetlength",
							"type": "uint256"
						}
					],
					"name": "changeTweeTLength",
					"outputs": [],
					"stateMutability": "nonpayable",
					"type": "function"
				},
				{
					"inputs": [
						{
							"internalType": "string",
							"name": "_tweet",
							"type": "string"
						}
					],
					"name": "createTweet",
					"outputs": [],
					"stateMutability": "nonpayable",
					"type": "function"
				},
				{
					"inputs": [
						{
							"internalType": "address",
							"name": "_owner",
							"type": "address"
						}
					],
					"name": "getAllTwets",
					"outputs": [
						{
							"components": [
								{
									"internalType": "address",
									"name": "author",
									"type": "address"
								},
								{
									"internalType": "string",
									"name": "tweet",
									"type": "string"
								},
								{
									"internalType": "uint256",
									"name": "timestamp",
									"type": "uint256"
								},
								{
									"internalType": "uint256",
									"name": "likes",
									"type": "uint256"
								},
								{
									"internalType": "uint256",
									"name": "id",
									"type": "uint256"
								}
							],
							"internalType": "struct Twitter.Tweet[]",
							"name": "",
							"type": "tuple[]"
						}
					],
					"stateMutability": "view",
					"type": "function"
				},
				{
					"inputs": [
						{
							"internalType": "uint256",
							"name": "_i",
							"type": "uint256"
						}
					],
					"name": "getSingleTweet",
					"outputs": [
						{
							"components": [
								{
									"internalType": "address",
									"name": "author",
									"type": "address"
								},
								{
									"internalType": "string",
									"name": "tweet",
									"type": "string"
								},
								{
									"internalType": "uint256",
									"name": "timestamp",
									"type": "uint256"
								},
								{
									"internalType": "uint256",
									"name": "likes",
									"type": "uint256"
								},
								{
									"internalType": "uint256",
									"name": "id",
									"type": "uint256"
								}
							],
							"internalType": "struct Twitter.Tweet",
							"name": "",
							"type": "tuple"
						}
					],
					"stateMutability": "view",
					"type": "function"
				},
				{
					"inputs": [],
					"name": "getTweetLength",
					"outputs": [
						{
							"internalType": "uint256",
							"name": "",
							"type": "uint256"
						}
					],
					"stateMutability": "view",
					"type": "function"
				},
				{
					"inputs": [
						{
							"internalType": "uint256",
							"name": "id",
							"type": "uint256"
						},
						{
							"internalType": "address",
							"name": "author",
							"type": "address"
						}
					],
					"name": "likeTweet",
					"outputs": [],
					"stateMutability": "nonpayable",
					"type": "function"
				},
				{
					"inputs": [],
					"name": "owner",
					"outputs": [
						{
							"internalType": "address",
							"name": "",
							"type": "address"
						}
					],
					"stateMutability": "view",
					"type": "function"
				},
				{
					"inputs": [
						{
							"internalType": "address",
							"name": "",
							"type": "address"
						},
						{
							"internalType": "uint256",
							"name": "",
							"type": "uint256"
						}
					],
					"name": "tweets",
					"outputs": [
						{
							"internalType": "address",
							"name": "author",
							"type": "address"
						},
						{
							"internalType": "string",
							"name": "tweet",
							"type": "string"
						},
						{
							"internalType": "uint256",
							"name": "timestamp",
							"type": "uint256"
						},
						{
							"internalType": "uint256",
							"name": "likes",
							"type": "uint256"
						},
						{
							"internalType": "uint256",
							"name": "id",
							"type": "uint256"
						}
					],
					"stateMutability": "view",
					"type": "function"
				},
				{
					"inputs": [
						{
							"internalType": "uint256",
							"name": "id",
							"type": "uint256"
						},
						{
							"internalType": "address",
							"name": "author",
							"type": "address"
						}
					],
					"name": "unlikeTweet",
					"outputs": [],
					"stateMutability": "nonpayable",
					"type": "function"
				}
			],
			"devdoc": {
				"kind": "dev",
				"methods": {},
				"version": 1
			},
			"evm": {
				"assembly": "    /* \"contracts/Twitter.sol\":60:2628  contract Twitter {... */\n  mstore(0x40, 0x80)\n    /* \"contracts/Twitter.sol\":103:106  280 */\n  0x0118\n    /* \"contracts/Twitter.sol\":86:106  uint MAXTWEET =  280 */\n  0x00\n  sstore\n    /* \"contracts/Twitter.sol\":142:192  constructor(){... */\n  callvalue\n  dup1\n  iszero\n  tag_1\n  jumpi\n  revert(0x00, 0x00)\ntag_1:\n  pop\n    /* \"contracts/Twitter.sol\":174:184  msg.sender */\n  caller\n    /* \"contracts/Twitter.sol\":166:171  owner */\n  0x01\n  0x00\n    /* \"contracts/Twitter.sol\":166:184  owner = msg.sender */\n  0x0100\n  exp\n  dup2\n  sload\n  dup2\n  0xffffffffffffffffffffffffffffffffffffffff\n  mul\n  not\n  and\n  swap1\n  dup4\n  0xffffffffffffffffffffffffffffffffffffffff\n  and\n  mul\n  or\n  swap1\n  sstore\n  pop\n    /* \"contracts/Twitter.sol\":60:2628  contract Twitter {... */\n  dataSize(sub_0)\n  dup1\n  dataOffset(sub_0)\n  0x00\n  codecopy\n  0x00\n  return\nstop\n\nsub_0: assembly {\n        /* \"contracts/Twitter.sol\":60:2628  contract Twitter {... */\n      mstore(0x40, 0x80)\n      callvalue\n      dup1\n      iszero\n      tag_1\n      jumpi\n      revert(0x00, 0x00)\n    tag_1:\n      pop\n      jumpi(tag_2, lt(calldatasize, 0x04))\n      shr(0xe0, calldataload(0x00))\n      dup1\n      0x8da5cb5b\n      gt\n      tag_13\n      jumpi\n      dup1\n      0x8da5cb5b\n      eq\n      tag_8\n      jumpi\n      dup1\n      0xa1488f7c\n      eq\n      tag_9\n      jumpi\n      dup1\n      0xa2afce88\n      eq\n      tag_10\n      jumpi\n      dup1\n      0xd04ddaa0\n      eq\n      tag_11\n      jumpi\n      dup1\n      0xfb0c6bfb\n      eq\n      tag_12\n      jumpi\n      jump(tag_2)\n    tag_13:\n      dup1\n      0x05a1b4a9\n      eq\n      tag_3\n      jumpi\n      dup1\n      0x46247363\n      eq\n      tag_4\n      jumpi\n      dup1\n      0x61cfc6c7\n      eq\n      tag_5\n      jumpi\n      dup1\n      0x7c9cd2bc\n      eq\n      tag_6\n      jumpi\n      dup1\n      0x85da6f1c\n      eq\n      tag_7\n      jumpi\n    tag_2:\n      revert(0x00, 0x00)\n        /* \"contracts/Twitter.sol\":571:612  mapping(address => Tweet[]) public tweets */\n    tag_3:\n      tag_14\n      0x04\n      dup1\n      calldatasize\n      sub\n      dup2\n      add\n      swap1\n      tag_15\n      swap2\n      swap1\n      tag_16\n      jump\t// in\n    tag_15:\n      tag_17\n      jump\t// in\n    tag_14:\n      mload(0x40)\n      tag_18\n      swap6\n      swap5\n      swap4\n      swap3\n      swap2\n      swap1\n      tag_19\n      jump\t// in\n    tag_18:\n      mload(0x40)\n      dup1\n      swap2\n      sub\n      swap1\n      return\n        /* \"contracts/Twitter.sol\":2510:2625  function getAllTwets(address _owner) public view returns (Tweet[] memory)  {... */\n    tag_4:\n      tag_20\n      0x04\n      dup1\n      calldatasize\n      sub\n      dup2\n      add\n      swap1\n      tag_21\n      swap2\n      swap1\n      tag_22\n      jump\t// in\n    tag_21:\n      tag_23\n      jump\t// in\n    tag_20:\n      mload(0x40)\n      tag_24\n      swap2\n      swap1\n      tag_25\n      jump\t// in\n    tag_24:\n      mload(0x40)\n      dup1\n      swap2\n      sub\n      swap1\n      return\n        /* \"contracts/Twitter.sol\":2339:2455  function getSingleTweet( uint _i) public view returns (Tweet memory){... */\n    tag_5:\n      tag_26\n      0x04\n      dup1\n      calldatasize\n      sub\n      dup2\n      add\n      swap1\n      tag_27\n      swap2\n      swap1\n      tag_28\n      jump\t// in\n    tag_27:\n      tag_29\n      jump\t// in\n    tag_26:\n      mload(0x40)\n      tag_30\n      swap2\n      swap1\n      tag_31\n      jump\t// in\n    tag_30:\n      mload(0x40)\n      dup1\n      swap2\n      sub\n      swap1\n      return\n        /* \"contracts/Twitter.sol\":1035:1596  function createTweet(string memory _tweet) public {... */\n    tag_6:\n      tag_32\n      0x04\n      dup1\n      calldatasize\n      sub\n      dup2\n      add\n      swap1\n      tag_33\n      swap2\n      swap1\n      tag_34\n      jump\t// in\n    tag_33:\n      tag_35\n      jump\t// in\n    tag_32:\n      stop\n        /* \"contracts/Twitter.sol\":921:1027  function changeTweeTLength(uint256 tweetlength) public onlyOwner {... */\n    tag_7:\n      tag_36\n      0x04\n      dup1\n      calldatasize\n      sub\n      dup2\n      add\n      swap1\n      tag_37\n      swap2\n      swap1\n      tag_28\n      jump\t// in\n    tag_37:\n      tag_38\n      jump\t// in\n    tag_36:\n      stop\n        /* \"contracts/Twitter.sol\":113:133  address public owner */\n    tag_8:\n      tag_39\n      tag_40\n      jump\t// in\n    tag_39:\n      mload(0x40)\n      tag_41\n      swap2\n      swap1\n      tag_42\n      jump\t// in\n    tag_41:\n      mload(0x40)\n      dup1\n      swap2\n      sub\n      swap1\n      return\n        /* \"contracts/Twitter.sol\":1858:2187  function unlikeTweet(uint id, address author) external {... */\n    tag_9:\n      tag_43\n      0x04\n      dup1\n      calldatasize\n      sub\n      dup2\n      add\n      swap1\n      tag_44\n      swap2\n      swap1\n      tag_45\n      jump\t// in\n    tag_44:\n      tag_46\n      jump\t// in\n    tag_43:\n      stop\n        /* \"contracts/Twitter.sol\":2195:2280  function getTweetLength() public view returns(uint){... */\n    tag_10:\n      tag_47\n      tag_48\n      jump\t// in\n    tag_47:\n      mload(0x40)\n      tag_49\n      swap2\n      swap1\n      tag_50\n      jump\t// in\n    tag_49:\n      mload(0x40)\n      dup1\n      swap2\n      sub\n      swap1\n      return\n        /* \"contracts/Twitter.sol\":1604:1850  function likeTweet(uint id, address author) external   {... */\n    tag_11:\n      tag_51\n      0x04\n      dup1\n      calldatasize\n      sub\n      dup2\n      add\n      swap1\n      tag_52\n      swap2\n      swap1\n      tag_45\n      jump\t// in\n    tag_52:\n      tag_53\n      jump\t// in\n    tag_51:\n      stop\n        /* \"contracts/Twitter.sol\":479:561  function CheckOwner() public view returns(address) {... */\n    tag_12:\n      tag_54\n      tag_55\n      jump\t// in\n    tag_54:\n      mload(0x40)\n      tag_56\n      swap2\n      swap1\n      tag_42\n      jump\t// in\n    tag_56:\n      mload(0x40)\n      dup1\n      swap2\n      sub\n      swap1\n      return\n        /* \"contracts/Twitter.sol\":571:612  mapping(address => Tweet[]) public tweets */\n    tag_17:\n      mstore(0x20, 0x02)\n      dup2\n      0x00\n      mstore\n      keccak256(0x00, 0x40)\n      dup2\n      dup2\n      sload\n      dup2\n      lt\n      tag_57\n      jumpi\n      0x00\n      dup1\n      revert\n    tag_57:\n      swap1\n      0x00\n      mstore\n      keccak256(0x00, 0x20)\n      swap1\n      0x05\n      mul\n      add\n      0x00\n      swap2\n      pop\n      swap2\n      pop\n      pop\n      dup1\n      0x00\n      add\n      0x00\n      swap1\n      sload\n      swap1\n      0x0100\n      exp\n      swap1\n      div\n      0xffffffffffffffffffffffffffffffffffffffff\n      and\n      swap1\n      dup1\n      0x01\n      add\n      dup1\n      sload\n      tag_59\n      swap1\n      tag_60\n      jump\t// in\n    tag_59:\n      dup1\n      0x1f\n      add\n      0x20\n      dup1\n      swap2\n      div\n      mul\n      0x20\n      add\n      mload(0x40)\n      swap1\n      dup2\n      add\n      0x40\n      mstore\n      dup1\n      swap3\n      swap2\n      swap1\n      dup2\n      dup2\n      mstore\n      0x20\n      add\n      dup3\n      dup1\n      sload\n      tag_61\n      swap1\n      tag_60\n      jump\t// in\n    tag_61:\n      dup1\n      iszero\n      tag_62\n      jumpi\n      dup1\n      0x1f\n      lt\n      tag_63\n      jumpi\n      0x0100\n      dup1\n      dup4\n      sload\n      div\n      mul\n      dup4\n      mstore\n      swap2\n      0x20\n      add\n      swap2\n      jump(tag_62)\n    tag_63:\n      dup3\n      add\n      swap2\n      swap1\n      0x00\n      mstore\n      keccak256(0x00, 0x20)\n      swap1\n    tag_64:\n      dup2\n      sload\n      dup2\n      mstore\n      swap1\n      0x01\n      add\n      swap1\n      0x20\n      add\n      dup1\n      dup4\n      gt\n      tag_64\n      jumpi\n      dup3\n      swap1\n      sub\n      0x1f\n      and\n      dup3\n      add\n      swap2\n    tag_62:\n      pop\n      pop\n      pop\n      pop\n      pop\n      swap1\n      dup1\n      0x02\n      add\n      sload\n      swap1\n      dup1\n      0x03\n      add\n      sload\n      swap1\n      dup1\n      0x04\n      add\n      sload\n      swap1\n      pop\n      dup6\n      jump\t// out\n        /* \"contracts/Twitter.sol\":2510:2625  function getAllTwets(address _owner) public view returns (Tweet[] memory)  {... */\n    tag_23:\n        /* \"contracts/Twitter.sol\":2568:2582  Tweet[] memory */\n      0x60\n        /* \"contracts/Twitter.sol\":2603:2609  tweets */\n      0x02\n        /* \"contracts/Twitter.sol\":2603:2617  tweets[_owner] */\n      0x00\n        /* \"contracts/Twitter.sol\":2610:2616  _owner */\n      dup4\n        /* \"contracts/Twitter.sol\":2603:2617  tweets[_owner] */\n      0xffffffffffffffffffffffffffffffffffffffff\n      and\n      0xffffffffffffffffffffffffffffffffffffffff\n      and\n      dup2\n      mstore\n      0x20\n      add\n      swap1\n      dup2\n      mstore\n      0x20\n      add\n      0x00\n      keccak256\n        /* \"contracts/Twitter.sol\":2596:2617  return tweets[_owner] */\n      dup1\n      sload\n      dup1\n      0x20\n      mul\n      0x20\n      add\n      mload(0x40)\n      swap1\n      dup2\n      add\n      0x40\n      mstore\n      dup1\n      swap3\n      swap2\n      swap1\n      dup2\n      dup2\n      mstore\n      0x20\n      add\n      0x00\n      swap1\n    tag_66:\n      dup3\n      dup3\n      lt\n      iszero\n      tag_67\n      jumpi\n      dup4\n      dup3\n      swap1\n      0x00\n      mstore\n      keccak256(0x00, 0x20)\n      swap1\n      0x05\n      mul\n      add\n      mload(0x40)\n      dup1\n      0xa0\n      add\n      0x40\n      mstore\n      swap1\n      dup2\n      0x00\n      dup3\n      add\n      0x00\n      swap1\n      sload\n      swap1\n      0x0100\n      exp\n      swap1\n      div\n      0xffffffffffffffffffffffffffffffffffffffff\n      and\n      0xffffffffffffffffffffffffffffffffffffffff\n      and\n      0xffffffffffffffffffffffffffffffffffffffff\n      and\n      dup2\n      mstore\n      0x20\n      add\n      0x01\n      dup3\n      add\n      dup1\n      sload\n      tag_69\n      swap1\n      tag_60\n      jump\t// in\n    tag_69:\n      dup1\n      0x1f\n      add\n      0x20\n      dup1\n      swap2\n      div\n      mul\n      0x20\n      add\n      mload(0x40)\n      swap1\n      dup2\n      add\n      0x40\n      mstore\n      dup1\n      swap3\n      swap2\n      swap1\n      dup2\n      dup2\n      mstore\n      0x20\n      add\n      dup3\n      dup1\n      sload\n      tag_70\n      swap1\n      tag_60\n      jump\t// in\n    tag_70:\n      dup1\n      iszero\n      tag_71\n      jumpi\n      dup1\n      0x1f\n      lt\n      tag_72\n      jumpi\n      0x0100\n      dup1\n      dup4\n      sload\n      div\n      mul\n      dup4\n      mstore\n      swap2\n      0x20\n      add\n      swap2\n      jump(tag_71)\n    tag_72:\n      dup3\n      add\n      swap2\n      swap1\n      0x00\n      mstore\n      keccak256(0x00, 0x20)\n      swap1\n    tag_73:\n      dup2\n      sload\n      dup2\n      mstore\n      swap1\n      0x01\n      add\n      swap1\n      0x20\n      add\n      dup1\n      dup4\n      gt\n      tag_73\n      jumpi\n      dup3\n      swap1\n      sub\n      0x1f\n      and\n      dup3\n      add\n      swap2\n    tag_71:\n      pop\n      pop\n      pop\n      pop\n      pop\n      dup2\n      mstore\n      0x20\n      add\n      0x02\n      dup3\n      add\n      sload\n      dup2\n      mstore\n      0x20\n      add\n      0x03\n      dup3\n      add\n      sload\n      dup2\n      mstore\n      0x20\n      add\n      0x04\n      dup3\n      add\n      sload\n      dup2\n      mstore\n      pop\n      pop\n      dup2\n      mstore\n      0x20\n      add\n      swap1\n      0x01\n      add\n      swap1\n      jump(tag_66)\n    tag_67:\n      pop\n      pop\n      pop\n      pop\n      swap1\n      pop\n        /* \"contracts/Twitter.sol\":2510:2625  function getAllTwets(address _owner) public view returns (Tweet[] memory)  {... */\n      swap2\n      swap1\n      pop\n      jump\t// out\n        /* \"contracts/Twitter.sol\":2339:2455  function getSingleTweet( uint _i) public view returns (Tweet memory){... */\n    tag_29:\n        /* \"contracts/Twitter.sol\":2394:2406  Tweet memory */\n      tag_74\n      tag_75\n      jump\t// in\n    tag_74:\n        /* \"contracts/Twitter.sol\":2425:2431  tweets */\n      0x02\n        /* \"contracts/Twitter.sol\":2425:2443  tweets[msg.sender] */\n      0x00\n        /* \"contracts/Twitter.sol\":2432:2442  msg.sender */\n      caller\n        /* \"contracts/Twitter.sol\":2425:2443  tweets[msg.sender] */\n      0xffffffffffffffffffffffffffffffffffffffff\n      and\n      0xffffffffffffffffffffffffffffffffffffffff\n      and\n      dup2\n      mstore\n      0x20\n      add\n      swap1\n      dup2\n      mstore\n      0x20\n      add\n      0x00\n      keccak256\n        /* \"contracts/Twitter.sol\":2444:2446  _i */\n      dup3\n        /* \"contracts/Twitter.sol\":2425:2447  tweets[msg.sender][_i] */\n      dup2\n      sload\n      dup2\n      lt\n      tag_77\n      jumpi\n      tag_78\n      tag_79\n      jump\t// in\n    tag_78:\n    tag_77:\n      swap1\n      0x00\n      mstore\n      keccak256(0x00, 0x20)\n      swap1\n      0x05\n      mul\n      add\n        /* \"contracts/Twitter.sol\":2418:2447  return tweets[msg.sender][_i] */\n      mload(0x40)\n      dup1\n      0xa0\n      add\n      0x40\n      mstore\n      swap1\n      dup2\n      0x00\n      dup3\n      add\n      0x00\n      swap1\n      sload\n      swap1\n      0x0100\n      exp\n      swap1\n      div\n      0xffffffffffffffffffffffffffffffffffffffff\n      and\n      0xffffffffffffffffffffffffffffffffffffffff\n      and\n      0xffffffffffffffffffffffffffffffffffffffff\n      and\n      dup2\n      mstore\n      0x20\n      add\n      0x01\n      dup3\n      add\n      dup1\n      sload\n      tag_81\n      swap1\n      tag_60\n      jump\t// in\n    tag_81:\n      dup1\n      0x1f\n      add\n      0x20\n      dup1\n      swap2\n      div\n      mul\n      0x20\n      add\n      mload(0x40)\n      swap1\n      dup2\n      add\n      0x40\n      mstore\n      dup1\n      swap3\n      swap2\n      swap1\n      dup2\n      dup2\n      mstore\n      0x20\n      add\n      dup3\n      dup1\n      sload\n      tag_82\n      swap1\n      tag_60\n      jump\t// in\n    tag_82:\n      dup1\n      iszero\n      tag_83\n      jumpi\n      dup1\n      0x1f\n      lt\n      tag_84\n      jumpi\n      0x0100\n      dup1\n      dup4\n      sload\n      div\n      mul\n      dup4\n      mstore\n      swap2\n      0x20\n      add\n      swap2\n      jump(tag_83)\n    tag_84:\n      dup3\n      add\n      swap2\n      swap1\n      0x00\n      mstore\n      keccak256(0x00, 0x20)\n      swap1\n    tag_85:\n      dup2\n      sload\n      dup2\n      mstore\n      swap1\n      0x01\n      add\n      swap1\n      0x20\n      add\n      dup1\n      dup4\n      gt\n      tag_85\n      jumpi\n      dup3\n      swap1\n      sub\n      0x1f\n      and\n      dup3\n      add\n      swap2\n    tag_83:\n      pop\n      pop\n      pop\n      pop\n      pop\n      dup2\n      mstore\n      0x20\n      add\n      0x02\n      dup3\n      add\n      sload\n      dup2\n      mstore\n      0x20\n      add\n      0x03\n      dup3\n      add\n      sload\n      dup2\n      mstore\n      0x20\n      add\n      0x04\n      dup3\n      add\n      sload\n      dup2\n      mstore\n      pop\n      pop\n      swap1\n      pop\n        /* \"contracts/Twitter.sol\":2339:2455  function getSingleTweet( uint _i) public view returns (Tweet memory){... */\n      swap2\n      swap1\n      pop\n      jump\t// out\n        /* \"contracts/Twitter.sol\":1035:1596  function createTweet(string memory _tweet) public {... */\n    tag_35:\n        /* \"contracts/Twitter.sol\":1127:1128  0 */\n      0x00\n        /* \"contracts/Twitter.sol\":1110:1116  _tweet */\n      dup2\n        /* \"contracts/Twitter.sol\":1104:1124  bytes(_tweet).length */\n      mload\n        /* \"contracts/Twitter.sol\":1104:1128  bytes(_tweet).length > 0 */\n      gt\n        /* \"contracts/Twitter.sol\":1096:1156  require(bytes(_tweet).length > 0, \"cannot pass empty tweet\") */\n      tag_87\n      jumpi\n      mload(0x40)\n      0x08c379a000000000000000000000000000000000000000000000000000000000\n      dup2\n      mstore\n      0x04\n      add\n      tag_88\n      swap1\n      tag_89\n      jump\t// in\n    tag_88:\n      mload(0x40)\n      dup1\n      swap2\n      sub\n      swap1\n      revert\n    tag_87:\n        /* \"contracts/Twitter.sol\":1199:1207  MAXTWEET */\n      sload(0x00)\n        /* \"contracts/Twitter.sol\":1181:1187  _tweet */\n      dup2\n        /* \"contracts/Twitter.sol\":1175:1195  bytes(_tweet).length */\n      mload\n        /* \"contracts/Twitter.sol\":1175:1207  bytes(_tweet).length <= MAXTWEET */\n      gt\n      iszero\n        /* \"contracts/Twitter.sol\":1167:1226  require(bytes(_tweet).length <= MAXTWEET, \"tweet too long\") */\n      tag_90\n      jumpi\n      mload(0x40)\n      0x08c379a000000000000000000000000000000000000000000000000000000000\n      dup2\n      mstore\n      0x04\n      add\n      tag_91\n      swap1\n      tag_92\n      jump\t// in\n    tag_91:\n      mload(0x40)\n      dup1\n      swap2\n      sub\n      swap1\n      revert\n    tag_90:\n        /* \"contracts/Twitter.sol\":1237:1258  Tweet memory newTweet */\n      0x00\n        /* \"contracts/Twitter.sol\":1261:1450  Tweet({... */\n      mload(0x40)\n      dup1\n      0xa0\n      add\n      0x40\n      mstore\n      dup1\n        /* \"contracts/Twitter.sol\":1334:1344  msg.sender */\n      caller\n        /* \"contracts/Twitter.sol\":1261:1450  Tweet({... */\n      0xffffffffffffffffffffffffffffffffffffffff\n      and\n      dup2\n      mstore\n      0x20\n      add\n        /* \"contracts/Twitter.sol\":1366:1372  _tweet */\n      dup4\n        /* \"contracts/Twitter.sol\":1261:1450  Tweet({... */\n      dup2\n      mstore\n      0x20\n      add\n        /* \"contracts/Twitter.sol\":1398:1413  block.timestamp */\n      timestamp\n        /* \"contracts/Twitter.sol\":1261:1450  Tweet({... */\n      dup2\n      mstore\n      0x20\n      add\n        /* \"contracts/Twitter.sol\":1435:1436  0 */\n      0x00\n        /* \"contracts/Twitter.sol\":1261:1450  Tweet({... */\n      dup2\n      mstore\n      0x20\n      add\n        /* \"contracts/Twitter.sol\":1286:1292  tweets */\n      0x02\n        /* \"contracts/Twitter.sol\":1286:1304  tweets[msg.sender] */\n      0x00\n        /* \"contracts/Twitter.sol\":1293:1303  msg.sender */\n      caller\n        /* \"contracts/Twitter.sol\":1286:1304  tweets[msg.sender] */\n      0xffffffffffffffffffffffffffffffffffffffff\n      and\n      0xffffffffffffffffffffffffffffffffffffffff\n      and\n      dup2\n      mstore\n      0x20\n      add\n      swap1\n      dup2\n      mstore\n      0x20\n      add\n      0x00\n      keccak256\n        /* \"contracts/Twitter.sol\":1286:1311  tweets[msg.sender].length */\n      dup1\n      sload\n      swap1\n      pop\n        /* \"contracts/Twitter.sol\":1261:1450  Tweet({... */\n      dup2\n      mstore\n      pop\n        /* \"contracts/Twitter.sol\":1237:1450  Tweet memory newTweet = Tweet({... */\n      swap1\n      pop\n        /* \"contracts/Twitter.sol\":1461:1467  tweets */\n      0x02\n        /* \"contracts/Twitter.sol\":1461:1479  tweets[msg.sender] */\n      0x00\n        /* \"contracts/Twitter.sol\":1468:1478  msg.sender */\n      caller\n        /* \"contracts/Twitter.sol\":1461:1479  tweets[msg.sender] */\n      0xffffffffffffffffffffffffffffffffffffffff\n      and\n      0xffffffffffffffffffffffffffffffffffffffff\n      and\n      dup2\n      mstore\n      0x20\n      add\n      swap1\n      dup2\n      mstore\n      0x20\n      add\n      0x00\n      keccak256\n        /* \"contracts/Twitter.sol\":1485:1493  newTweet */\n      dup2\n        /* \"contracts/Twitter.sol\":1461:1494  tweets[msg.sender].push(newTweet) */\n      swap1\n      dup1\n      0x01\n      dup2\n      sload\n      add\n      dup1\n      dup3\n      sstore\n      dup1\n      swap2\n      pop\n      pop\n      0x01\n      swap1\n      sub\n      swap1\n      0x00\n      mstore\n      keccak256(0x00, 0x20)\n      swap1\n      0x05\n      mul\n      add\n      0x00\n      swap1\n      swap2\n      swap1\n      swap2\n      swap1\n      swap2\n      pop\n      0x00\n      dup3\n      add\n      mload\n      dup2\n      0x00\n      add\n      exp(0x0100, 0x00)\n      dup2\n      sload\n      dup2\n      0xffffffffffffffffffffffffffffffffffffffff\n      mul\n      not\n      and\n      swap1\n      dup4\n      0xffffffffffffffffffffffffffffffffffffffff\n      and\n      mul\n      or\n      swap1\n      sstore\n      pop\n      0x20\n      dup3\n      add\n      mload\n      dup2\n      0x01\n      add\n      swap1\n      dup2\n      tag_94\n      swap2\n      swap1\n      tag_95\n      jump\t// in\n    tag_94:\n      pop\n      0x40\n      dup3\n      add\n      mload\n      dup2\n      0x02\n      add\n      sstore\n      0x60\n      dup3\n      add\n      mload\n      dup2\n      0x03\n      add\n      sstore\n      0x80\n      dup3\n      add\n      mload\n      dup2\n      0x04\n      add\n      sstore\n      pop\n      pop\n        /* \"contracts/Twitter.sol\":1510:1588  TweetCreated(newTweet.id, newTweet.author, newTweet.tweet, newTweet.timestamp) */\n      0x16fd3c13e9d46923e0a8bce11c7b473ec508a72e6c96cd2404b29ce972afc29e\n        /* \"contracts/Twitter.sol\":1523:1531  newTweet */\n      dup2\n        /* \"contracts/Twitter.sol\":1523:1534  newTweet.id */\n      0x80\n      add\n      mload\n        /* \"contracts/Twitter.sol\":1536:1544  newTweet */\n      dup3\n        /* \"contracts/Twitter.sol\":1536:1551  newTweet.author */\n      0x00\n      add\n      mload\n        /* \"contracts/Twitter.sol\":1553:1561  newTweet */\n      dup4\n        /* \"contracts/Twitter.sol\":1553:1567  newTweet.tweet */\n      0x20\n      add\n      mload\n        /* \"contracts/Twitter.sol\":1569:1577  newTweet */\n      dup5\n        /* \"contracts/Twitter.sol\":1569:1587  newTweet.timestamp */\n      0x40\n      add\n      mload\n        /* \"contracts/Twitter.sol\":1510:1588  TweetCreated(newTweet.id, newTweet.author, newTweet.tweet, newTweet.timestamp) */\n      mload(0x40)\n      tag_96\n      swap5\n      swap4\n      swap3\n      swap2\n      swap1\n      tag_97\n      jump\t// in\n    tag_96:\n      mload(0x40)\n      dup1\n      swap2\n      sub\n      swap1\n      log1\n        /* \"contracts/Twitter.sol\":1085:1596  {... */\n      pop\n        /* \"contracts/Twitter.sol\":1035:1596  function createTweet(string memory _tweet) public {... */\n      pop\n      jump\t// out\n        /* \"contracts/Twitter.sol\":921:1027  function changeTweeTLength(uint256 tweetlength) public onlyOwner {... */\n    tag_38:\n        /* \"contracts/Twitter.sol\":403:408  owner */\n      0x01\n      0x00\n      swap1\n      sload\n      swap1\n      0x0100\n      exp\n      swap1\n      div\n      0xffffffffffffffffffffffffffffffffffffffff\n      and\n        /* \"contracts/Twitter.sol\":389:408  msg.sender == owner */\n      0xffffffffffffffffffffffffffffffffffffffff\n      and\n        /* \"contracts/Twitter.sol\":389:399  msg.sender */\n      caller\n        /* \"contracts/Twitter.sol\":389:408  msg.sender == owner */\n      0xffffffffffffffffffffffffffffffffffffffff\n      and\n      eq\n        /* \"contracts/Twitter.sol\":381:451  require(msg.sender == owner, \"only the owner can perform this action\") */\n      tag_99\n      jumpi\n      mload(0x40)\n      0x08c379a000000000000000000000000000000000000000000000000000000000\n      dup2\n      mstore\n      0x04\n      add\n      tag_100\n      swap1\n      tag_101\n      jump\t// in\n    tag_100:\n      mload(0x40)\n      dup1\n      swap2\n      sub\n      swap1\n      revert\n    tag_99:\n        /* \"contracts/Twitter.sol\":1008:1019  tweetlength */\n      dup1\n        /* \"contracts/Twitter.sol\":997:1005  MAXTWEET */\n      0x00\n        /* \"contracts/Twitter.sol\":997:1019  MAXTWEET = tweetlength */\n      dup2\n      swap1\n      sstore\n      pop\n        /* \"contracts/Twitter.sol\":921:1027  function changeTweeTLength(uint256 tweetlength) public onlyOwner {... */\n      pop\n      jump\t// out\n        /* \"contracts/Twitter.sol\":113:133  address public owner */\n    tag_40:\n      0x01\n      0x00\n      swap1\n      sload\n      swap1\n      0x0100\n      exp\n      swap1\n      div\n      0xffffffffffffffffffffffffffffffffffffffff\n      and\n      dup2\n      jump\t// out\n        /* \"contracts/Twitter.sol\":1858:2187  function unlikeTweet(uint id, address author) external {... */\n    tag_46:\n        /* \"contracts/Twitter.sol\":1957:1959  id */\n      dup2\n        /* \"contracts/Twitter.sol\":1932:1938  tweets */\n      0x02\n        /* \"contracts/Twitter.sol\":1932:1946  tweets[author] */\n      0x00\n        /* \"contracts/Twitter.sol\":1939:1945  author */\n      dup4\n        /* \"contracts/Twitter.sol\":1932:1946  tweets[author] */\n      0xffffffffffffffffffffffffffffffffffffffff\n      and\n      0xffffffffffffffffffffffffffffffffffffffff\n      and\n      dup2\n      mstore\n      0x20\n      add\n      swap1\n      dup2\n      mstore\n      0x20\n      add\n      0x00\n      keccak256\n        /* \"contracts/Twitter.sol\":1947:1949  id */\n      dup4\n        /* \"contracts/Twitter.sol\":1932:1950  tweets[author][id] */\n      dup2\n      sload\n      dup2\n      lt\n      tag_104\n      jumpi\n      tag_105\n      tag_79\n      jump\t// in\n    tag_105:\n    tag_104:\n      swap1\n      0x00\n      mstore\n      keccak256(0x00, 0x20)\n      swap1\n      0x05\n      mul\n      add\n        /* \"contracts/Twitter.sol\":1932:1953  tweets[author][id].id */\n      0x04\n      add\n      sload\n        /* \"contracts/Twitter.sol\":1932:1959  tweets[author][id].id == id */\n      eq\n        /* \"contracts/Twitter.sol\":1924:1984  require(tweets[author][id].id == id, \"tweet does not exist\") */\n      tag_107\n      jumpi\n      mload(0x40)\n      0x08c379a000000000000000000000000000000000000000000000000000000000\n      dup2\n      mstore\n      0x04\n      add\n      tag_108\n      swap1\n      tag_109\n      jump\t// in\n    tag_108:\n      mload(0x40)\n      dup1\n      swap2\n      sub\n      swap1\n      revert\n    tag_107:\n        /* \"contracts/Twitter.sol\":2030:2031  0 */\n      0x00\n        /* \"contracts/Twitter.sol\":2003:2009  tweets */\n      0x02\n        /* \"contracts/Twitter.sol\":2003:2017  tweets[author] */\n      0x00\n        /* \"contracts/Twitter.sol\":2010:2016  author */\n      dup4\n        /* \"contracts/Twitter.sol\":2003:2017  tweets[author] */\n      0xffffffffffffffffffffffffffffffffffffffff\n      and\n      0xffffffffffffffffffffffffffffffffffffffff\n      and\n      dup2\n      mstore\n      0x20\n      add\n      swap1\n      dup2\n      mstore\n      0x20\n      add\n      0x00\n      keccak256\n        /* \"contracts/Twitter.sol\":2018:2020  id */\n      dup4\n        /* \"contracts/Twitter.sol\":2003:2021  tweets[author][id] */\n      dup2\n      sload\n      dup2\n      lt\n      tag_110\n      jumpi\n      tag_111\n      tag_79\n      jump\t// in\n    tag_111:\n    tag_110:\n      swap1\n      0x00\n      mstore\n      keccak256(0x00, 0x20)\n      swap1\n      0x05\n      mul\n      add\n        /* \"contracts/Twitter.sol\":2003:2027  tweets[author][id].likes */\n      0x03\n      add\n      sload\n        /* \"contracts/Twitter.sol\":2003:2031  tweets[author][id].likes > 0 */\n      gt\n        /* \"contracts/Twitter.sol\":1995:2065  require(tweets[author][id].likes > 0, \"tweet does not have any likes\") */\n      tag_113\n      jumpi\n      mload(0x40)\n      0x08c379a000000000000000000000000000000000000000000000000000000000\n      dup2\n      mstore\n      0x04\n      add\n      tag_114\n      swap1\n      tag_115\n      jump\t// in\n    tag_114:\n      mload(0x40)\n      dup1\n      swap2\n      sub\n      swap1\n      revert\n    tag_113:\n        /* \"contracts/Twitter.sol\":2076:2082  tweets */\n      0x02\n        /* \"contracts/Twitter.sol\":2076:2090  tweets[author] */\n      0x00\n        /* \"contracts/Twitter.sol\":2083:2089  author */\n      dup3\n        /* \"contracts/Twitter.sol\":2076:2090  tweets[author] */\n      0xffffffffffffffffffffffffffffffffffffffff\n      and\n      0xffffffffffffffffffffffffffffffffffffffff\n      and\n      dup2\n      mstore\n      0x20\n      add\n      swap1\n      dup2\n      mstore\n      0x20\n      add\n      0x00\n      keccak256\n        /* \"contracts/Twitter.sol\":2091:2093  id */\n      dup3\n        /* \"contracts/Twitter.sol\":2076:2094  tweets[author][id] */\n      dup2\n      sload\n      dup2\n      lt\n      tag_116\n      jumpi\n      tag_117\n      tag_79\n      jump\t// in\n    tag_117:\n    tag_116:\n      swap1\n      0x00\n      mstore\n      keccak256(0x00, 0x20)\n      swap1\n      0x05\n      mul\n      add\n        /* \"contracts/Twitter.sol\":2076:2100  tweets[author][id].likes */\n      0x03\n      add\n      0x00\n        /* \"contracts/Twitter.sol\":2076:2102  tweets[author][id].likes-- */\n      dup2\n      sload\n      dup1\n      swap3\n      swap2\n      swap1\n      tag_119\n      swap1\n      tag_120\n      jump\t// in\n    tag_119:\n      swap2\n      swap1\n      pop\n      sstore\n      pop\n        /* \"contracts/Twitter.sol\":2118:2179  UnlikeTweet(msg.sender, author, id, tweets[author][id].likes) */\n      0xa364d895015bbd024115082f05215300f6d39b35e8268d0b54a8d1e946411547\n        /* \"contracts/Twitter.sol\":2130:2140  msg.sender */\n      caller\n        /* \"contracts/Twitter.sol\":2142:2148  author */\n      dup3\n        /* \"contracts/Twitter.sol\":2150:2152  id */\n      dup5\n        /* \"contracts/Twitter.sol\":2154:2160  tweets */\n      0x02\n        /* \"contracts/Twitter.sol\":2154:2168  tweets[author] */\n      0x00\n        /* \"contracts/Twitter.sol\":2161:2167  author */\n      dup7\n        /* \"contracts/Twitter.sol\":2154:2168  tweets[author] */\n      0xffffffffffffffffffffffffffffffffffffffff\n      and\n      0xffffffffffffffffffffffffffffffffffffffff\n      and\n      dup2\n      mstore\n      0x20\n      add\n      swap1\n      dup2\n      mstore\n      0x20\n      add\n      0x00\n      keccak256\n        /* \"contracts/Twitter.sol\":2169:2171  id */\n      dup7\n        /* \"contracts/Twitter.sol\":2154:2172  tweets[author][id] */\n      dup2\n      sload\n      dup2\n      lt\n      tag_121\n      jumpi\n      tag_122\n      tag_79\n      jump\t// in\n    tag_122:\n    tag_121:\n      swap1\n      0x00\n      mstore\n      keccak256(0x00, 0x20)\n      swap1\n      0x05\n      mul\n      add\n        /* \"contracts/Twitter.sol\":2154:2178  tweets[author][id].likes */\n      0x03\n      add\n      sload\n        /* \"contracts/Twitter.sol\":2118:2179  UnlikeTweet(msg.sender, author, id, tweets[author][id].likes) */\n      mload(0x40)\n      tag_124\n      swap5\n      swap4\n      swap3\n      swap2\n      swap1\n      tag_125\n      jump\t// in\n    tag_124:\n      mload(0x40)\n      dup1\n      swap2\n      sub\n      swap1\n      log1\n        /* \"contracts/Twitter.sol\":1858:2187  function unlikeTweet(uint id, address author) external {... */\n      pop\n      pop\n      jump\t// out\n        /* \"contracts/Twitter.sol\":2195:2280  function getTweetLength() public view returns(uint){... */\n    tag_48:\n        /* \"contracts/Twitter.sol\":2241:2245  uint */\n      0x00\n        /* \"contracts/Twitter.sol\":2264:2272  MAXTWEET */\n      sload(0x00)\n        /* \"contracts/Twitter.sol\":2257:2272  return MAXTWEET */\n      swap1\n      pop\n        /* \"contracts/Twitter.sol\":2195:2280  function getTweetLength() public view returns(uint){... */\n      swap1\n      jump\t// out\n        /* \"contracts/Twitter.sol\":1604:1850  function likeTweet(uint id, address author) external   {... */\n    tag_53:\n        /* \"contracts/Twitter.sol\":1703:1705  id */\n      dup2\n        /* \"contracts/Twitter.sol\":1678:1684  tweets */\n      0x02\n        /* \"contracts/Twitter.sol\":1678:1692  tweets[author] */\n      0x00\n        /* \"contracts/Twitter.sol\":1685:1691  author */\n      dup4\n        /* \"contracts/Twitter.sol\":1678:1692  tweets[author] */\n      0xffffffffffffffffffffffffffffffffffffffff\n      and\n      0xffffffffffffffffffffffffffffffffffffffff\n      and\n      dup2\n      mstore\n      0x20\n      add\n      swap1\n      dup2\n      mstore\n      0x20\n      add\n      0x00\n      keccak256\n        /* \"contracts/Twitter.sol\":1693:1695  id */\n      dup4\n        /* \"contracts/Twitter.sol\":1678:1696  tweets[author][id] */\n      dup2\n      sload\n      dup2\n      lt\n      tag_128\n      jumpi\n      tag_129\n      tag_79\n      jump\t// in\n    tag_129:\n    tag_128:\n      swap1\n      0x00\n      mstore\n      keccak256(0x00, 0x20)\n      swap1\n      0x05\n      mul\n      add\n        /* \"contracts/Twitter.sol\":1678:1699  tweets[author][id].id */\n      0x04\n      add\n      sload\n        /* \"contracts/Twitter.sol\":1678:1705  tweets[author][id].id == id */\n      eq\n        /* \"contracts/Twitter.sol\":1670:1730  require(tweets[author][id].id == id, \"tweet does not exist\") */\n      tag_131\n      jumpi\n      mload(0x40)\n      0x08c379a000000000000000000000000000000000000000000000000000000000\n      dup2\n      mstore\n      0x04\n      add\n      tag_132\n      swap1\n      tag_109\n      jump\t// in\n    tag_132:\n      mload(0x40)\n      dup1\n      swap2\n      sub\n      swap1\n      revert\n    tag_131:\n        /* \"contracts/Twitter.sol\":1741:1747  tweets */\n      0x02\n        /* \"contracts/Twitter.sol\":1741:1755  tweets[author] */\n      0x00\n        /* \"contracts/Twitter.sol\":1748:1754  author */\n      dup3\n        /* \"contracts/Twitter.sol\":1741:1755  tweets[author] */\n      0xffffffffffffffffffffffffffffffffffffffff\n      and\n      0xffffffffffffffffffffffffffffffffffffffff\n      and\n      dup2\n      mstore\n      0x20\n      add\n      swap1\n      dup2\n      mstore\n      0x20\n      add\n      0x00\n      keccak256\n        /* \"contracts/Twitter.sol\":1756:1758  id */\n      dup3\n        /* \"contracts/Twitter.sol\":1741:1759  tweets[author][id] */\n      dup2\n      sload\n      dup2\n      lt\n      tag_133\n      jumpi\n      tag_134\n      tag_79\n      jump\t// in\n    tag_134:\n    tag_133:\n      swap1\n      0x00\n      mstore\n      keccak256(0x00, 0x20)\n      swap1\n      0x05\n      mul\n      add\n        /* \"contracts/Twitter.sol\":1741:1765  tweets[author][id].likes */\n      0x03\n      add\n      0x00\n        /* \"contracts/Twitter.sol\":1741:1767  tweets[author][id].likes++ */\n      dup2\n      sload\n      dup1\n      swap3\n      swap2\n      swap1\n      tag_136\n      swap1\n      tag_137\n      jump\t// in\n    tag_136:\n      swap2\n      swap1\n      pop\n      sstore\n      pop\n        /* \"contracts/Twitter.sol\":1783:1842  LikeTweet(msg.sender, author, id, tweets[author][id].likes) */\n      0x9b14b824c633c47786b37f814b120cc2cefc008bb464636c6018897ef97fd71d\n        /* \"contracts/Twitter.sol\":1793:1803  msg.sender */\n      caller\n        /* \"contracts/Twitter.sol\":1805:1811  author */\n      dup3\n        /* \"contracts/Twitter.sol\":1813:1815  id */\n      dup5\n        /* \"contracts/Twitter.sol\":1817:1823  tweets */\n      0x02\n        /* \"contracts/Twitter.sol\":1817:1831  tweets[author] */\n      0x00\n        /* \"contracts/Twitter.sol\":1824:1830  author */\n      dup7\n        /* \"contracts/Twitter.sol\":1817:1831  tweets[author] */\n      0xffffffffffffffffffffffffffffffffffffffff\n      and\n      0xffffffffffffffffffffffffffffffffffffffff\n      and\n      dup2\n      mstore\n      0x20\n      add\n      swap1\n      dup2\n      mstore\n      0x20\n      add\n      0x00\n      keccak256\n        /* \"contracts/Twitter.sol\":1832:1834  id */\n      dup7\n        /* \"contracts/Twitter.sol\":1817:1835  tweets[author][id] */\n      dup2\n      sload\n      dup2\n      lt\n      tag_138\n      jumpi\n      tag_139\n      tag_79\n      jump\t// in\n    tag_139:\n    tag_138:\n      swap1\n      0x00\n      mstore\n      keccak256(0x00, 0x20)\n      swap1\n      0x05\n      mul\n      add\n        /* \"contracts/Twitter.sol\":1817:1841  tweets[author][id].likes */\n      0x03\n      add\n      sload\n        /* \"contracts/Twitter.sol\":1783:1842  LikeTweet(msg.sender, author, id, tweets[author][id].likes) */\n      mload(0x40)\n      tag_141\n      swap5\n      swap4\n      swap3\n      swap2\n      swap1\n      tag_125\n      jump\t// in\n    tag_141:\n      mload(0x40)\n      dup1\n      swap2\n      sub\n      swap1\n      log1\n        /* \"contracts/Twitter.sol\":1604:1850  function likeTweet(uint id, address author) external   {... */\n      pop\n      pop\n      jump\t// out\n        /* \"contracts/Twitter.sol\":479:561  function CheckOwner() public view returns(address) {... */\n    tag_55:\n        /* \"contracts/Twitter.sol\":521:528  address */\n      0x00\n        /* \"contracts/Twitter.sol\":548:553  owner */\n      0x01\n      0x00\n      swap1\n      sload\n      swap1\n      0x0100\n      exp\n      swap1\n      div\n      0xffffffffffffffffffffffffffffffffffffffff\n      and\n        /* \"contracts/Twitter.sol\":541:553  return owner */\n      swap1\n      pop\n        /* \"contracts/Twitter.sol\":479:561  function CheckOwner() public view returns(address) {... */\n      swap1\n      jump\t// out\n    tag_75:\n      mload(0x40)\n      dup1\n      0xa0\n      add\n      0x40\n      mstore\n      dup1\n      and(0xffffffffffffffffffffffffffffffffffffffff, 0x00)\n      dup2\n      mstore\n      0x20\n      add\n      0x60\n      dup2\n      mstore\n      0x20\n      add\n      0x00\n      dup2\n      mstore\n      0x20\n      add\n      0x00\n      dup2\n      mstore\n      0x20\n      add\n      0x00\n      dup2\n      mstore\n      pop\n      swap1\n      jump\t// out\n        /* \"#utility.yul\":7:82   */\n    tag_143:\n        /* \"#utility.yul\":40:46   */\n      0x00\n        /* \"#utility.yul\":73:75   */\n      0x40\n        /* \"#utility.yul\":67:76   */\n      mload\n        /* \"#utility.yul\":57:76   */\n      swap1\n      pop\n        /* \"#utility.yul\":7:82   */\n      swap1\n      jump\t// out\n        /* \"#utility.yul\":88:205   */\n    tag_144:\n        /* \"#utility.yul\":197:198   */\n      0x00\n        /* \"#utility.yul\":194:195   */\n      0x00\n        /* \"#utility.yul\":187:199   */\n      revert\n        /* \"#utility.yul\":211:328   */\n    tag_145:\n        /* \"#utility.yul\":320:321   */\n      0x00\n        /* \"#utility.yul\":317:318   */\n      0x00\n        /* \"#utility.yul\":310:322   */\n      revert\n        /* \"#utility.yul\":334:460   */\n    tag_146:\n        /* \"#utility.yul\":371:378   */\n      0x00\n        /* \"#utility.yul\":411:453   */\n      0xffffffffffffffffffffffffffffffffffffffff\n        /* \"#utility.yul\":404:409   */\n      dup3\n        /* \"#utility.yul\":400:454   */\n      and\n        /* \"#utility.yul\":389:454   */\n      swap1\n      pop\n        /* \"#utility.yul\":334:460   */\n      swap2\n      swap1\n      pop\n      jump\t// out\n        /* \"#utility.yul\":466:562   */\n    tag_147:\n        /* \"#utility.yul\":503:510   */\n      0x00\n        /* \"#utility.yul\":532:556   */\n      tag_214\n        /* \"#utility.yul\":550:555   */\n      dup3\n        /* \"#utility.yul\":532:556   */\n      tag_146\n      jump\t// in\n    tag_214:\n        /* \"#utility.yul\":521:556   */\n      swap1\n      pop\n        /* \"#utility.yul\":466:562   */\n      swap2\n      swap1\n      pop\n      jump\t// out\n        /* \"#utility.yul\":568:690   */\n    tag_148:\n        /* \"#utility.yul\":641:665   */\n      tag_216\n        /* \"#utility.yul\":659:664   */\n      dup2\n        /* \"#utility.yul\":641:665   */\n      tag_147\n      jump\t// in\n    tag_216:\n        /* \"#utility.yul\":634:639   */\n      dup2\n        /* \"#utility.yul\":631:666   */\n      eq\n        /* \"#utility.yul\":621:684   */\n      tag_217\n      jumpi\n        /* \"#utility.yul\":680:681   */\n      0x00\n        /* \"#utility.yul\":677:678   */\n      0x00\n        /* \"#utility.yul\":670:682   */\n      revert\n        /* \"#utility.yul\":621:684   */\n    tag_217:\n        /* \"#utility.yul\":568:690   */\n      pop\n      jump\t// out\n        /* \"#utility.yul\":696:835   */\n    tag_149:\n        /* \"#utility.yul\":742:747   */\n      0x00\n        /* \"#utility.yul\":780:786   */\n      dup2\n        /* \"#utility.yul\":767:787   */\n      calldataload\n        /* \"#utility.yul\":758:787   */\n      swap1\n      pop\n        /* \"#utility.yul\":796:829   */\n      tag_219\n        /* \"#utility.yul\":823:828   */\n      dup2\n        /* \"#utility.yul\":796:829   */\n      tag_148\n      jump\t// in\n    tag_219:\n        /* \"#utility.yul\":696:835   */\n      swap3\n      swap2\n      pop\n      pop\n      jump\t// out\n        /* \"#utility.yul\":841:918   */\n    tag_150:\n        /* \"#utility.yul\":878:885   */\n      0x00\n        /* \"#utility.yul\":907:912   */\n      dup2\n        /* \"#utility.yul\":896:912   */\n      swap1\n      pop\n        /* \"#utility.yul\":841:918   */\n      swap2\n      swap1\n      pop\n      jump\t// out\n        /* \"#utility.yul\":924:1046   */\n    tag_151:\n        /* \"#utility.yul\":997:1021   */\n      tag_222\n        /* \"#utility.yul\":1015:1020   */\n      dup2\n        /* \"#utility.yul\":997:1021   */\n      tag_150\n      jump\t// in\n    tag_222:\n        /* \"#utility.yul\":990:995   */\n      dup2\n        /* \"#utility.yul\":987:1022   */\n      eq\n        /* \"#utility.yul\":977:1040   */\n      tag_223\n      jumpi\n        /* \"#utility.yul\":1036:1037   */\n      0x00\n        /* \"#utility.yul\":1033:1034   */\n      0x00\n        /* \"#utility.yul\":1026:1038   */\n      revert\n        /* \"#utility.yul\":977:1040   */\n    tag_223:\n        /* \"#utility.yul\":924:1046   */\n      pop\n      jump\t// out\n        /* \"#utility.yul\":1052:1191   */\n    tag_152:\n        /* \"#utility.yul\":1098:1103   */\n      0x00\n        /* \"#utility.yul\":1136:1142   */\n      dup2\n        /* \"#utility.yul\":1123:1143   */\n      calldataload\n        /* \"#utility.yul\":1114:1143   */\n      swap1\n      pop\n        /* \"#utility.yul\":1152:1185   */\n      tag_225\n        /* \"#utility.yul\":1179:1184   */\n      dup2\n        /* \"#utility.yul\":1152:1185   */\n      tag_151\n      jump\t// in\n    tag_225:\n        /* \"#utility.yul\":1052:1191   */\n      swap3\n      swap2\n      pop\n      pop\n      jump\t// out\n        /* \"#utility.yul\":1197:1671   */\n    tag_16:\n        /* \"#utility.yul\":1265:1271   */\n      0x00\n        /* \"#utility.yul\":1273:1279   */\n      0x00\n        /* \"#utility.yul\":1322:1324   */\n      0x40\n        /* \"#utility.yul\":1310:1319   */\n      dup4\n        /* \"#utility.yul\":1301:1308   */\n      dup6\n        /* \"#utility.yul\":1297:1320   */\n      sub\n        /* \"#utility.yul\":1293:1325   */\n      slt\n        /* \"#utility.yul\":1290:1409   */\n      iszero\n      tag_227\n      jumpi\n        /* \"#utility.yul\":1328:1407   */\n      tag_228\n      tag_144\n      jump\t// in\n    tag_228:\n        /* \"#utility.yul\":1290:1409   */\n    tag_227:\n        /* \"#utility.yul\":1448:1449   */\n      0x00\n        /* \"#utility.yul\":1473:1526   */\n      tag_229\n        /* \"#utility.yul\":1518:1525   */\n      dup6\n        /* \"#utility.yul\":1509:1515   */\n      dup3\n        /* \"#utility.yul\":1498:1507   */\n      dup7\n        /* \"#utility.yul\":1494:1516   */\n      add\n        /* \"#utility.yul\":1473:1526   */\n      tag_149\n      jump\t// in\n    tag_229:\n        /* \"#utility.yul\":1463:1526   */\n      swap3\n      pop\n        /* \"#utility.yul\":1419:1536   */\n      pop\n        /* \"#utility.yul\":1575:1577   */\n      0x20\n        /* \"#utility.yul\":1601:1654   */\n      tag_230\n        /* \"#utility.yul\":1646:1653   */\n      dup6\n        /* \"#utility.yul\":1637:1643   */\n      dup3\n        /* \"#utility.yul\":1626:1635   */\n      dup7\n        /* \"#utility.yul\":1622:1644   */\n      add\n        /* \"#utility.yul\":1601:1654   */\n      tag_152\n      jump\t// in\n    tag_230:\n        /* \"#utility.yul\":1591:1654   */\n      swap2\n      pop\n        /* \"#utility.yul\":1546:1664   */\n      pop\n        /* \"#utility.yul\":1197:1671   */\n      swap3\n      pop\n      swap3\n      swap1\n      pop\n      jump\t// out\n        /* \"#utility.yul\":1677:1795   */\n    tag_153:\n        /* \"#utility.yul\":1764:1788   */\n      tag_232\n        /* \"#utility.yul\":1782:1787   */\n      dup2\n        /* \"#utility.yul\":1764:1788   */\n      tag_147\n      jump\t// in\n    tag_232:\n        /* \"#utility.yul\":1759:1762   */\n      dup3\n        /* \"#utility.yul\":1752:1789   */\n      mstore\n        /* \"#utility.yul\":1677:1795   */\n      pop\n      pop\n      jump\t// out\n        /* \"#utility.yul\":1801:1900   */\n    tag_154:\n        /* \"#utility.yul\":1853:1859   */\n      0x00\n        /* \"#utility.yul\":1887:1892   */\n      dup2\n        /* \"#utility.yul\":1881:1893   */\n      mload\n        /* \"#utility.yul\":1871:1893   */\n      swap1\n      pop\n        /* \"#utility.yul\":1801:1900   */\n      swap2\n      swap1\n      pop\n      jump\t// out\n        /* \"#utility.yul\":1906:2075   */\n    tag_155:\n        /* \"#utility.yul\":1990:2001   */\n      0x00\n        /* \"#utility.yul\":2024:2030   */\n      dup3\n        /* \"#utility.yul\":2019:2022   */\n      dup3\n        /* \"#utility.yul\":2012:2031   */\n      mstore\n        /* \"#utility.yul\":2064:2068   */\n      0x20\n        /* \"#utility.yul\":2059:2062   */\n      dup3\n        /* \"#utility.yul\":2055:2069   */\n      add\n        /* \"#utility.yul\":2040:2069   */\n      swap1\n      pop\n        /* \"#utility.yul\":1906:2075   */\n      swap3\n      swap2\n      pop\n      pop\n      jump\t// out\n        /* \"#utility.yul\":2081:2220   */\n    tag_156:\n        /* \"#utility.yul\":2170:2176   */\n      dup3\n        /* \"#utility.yul\":2165:2168   */\n      dup2\n        /* \"#utility.yul\":2160:2163   */\n      dup4\n        /* \"#utility.yul\":2154:2177   */\n      mcopy\n        /* \"#utility.yul\":2211:2212   */\n      0x00\n        /* \"#utility.yul\":2202:2208   */\n      dup4\n        /* \"#utility.yul\":2197:2200   */\n      dup4\n        /* \"#utility.yul\":2193:2209   */\n      add\n        /* \"#utility.yul\":2186:2213   */\n      mstore\n        /* \"#utility.yul\":2081:2220   */\n      pop\n      pop\n      pop\n      jump\t// out\n        /* \"#utility.yul\":2226:2328   */\n    tag_157:\n        /* \"#utility.yul\":2267:2273   */\n      0x00\n        /* \"#utility.yul\":2318:2320   */\n      0x1f\n        /* \"#utility.yul\":2314:2321   */\n      not\n        /* \"#utility.yul\":2309:2311   */\n      0x1f\n        /* \"#utility.yul\":2302:2307   */\n      dup4\n        /* \"#utility.yul\":2298:2312   */\n      add\n        /* \"#utility.yul\":2294:2322   */\n      and\n        /* \"#utility.yul\":2284:2322   */\n      swap1\n      pop\n        /* \"#utility.yul\":2226:2328   */\n      swap2\n      swap1\n      pop\n      jump\t// out\n        /* \"#utility.yul\":2334:2711   */\n    tag_158:\n        /* \"#utility.yul\":2422:2425   */\n      0x00\n        /* \"#utility.yul\":2450:2489   */\n      tag_238\n        /* \"#utility.yul\":2483:2488   */\n      dup3\n        /* \"#utility.yul\":2450:2489   */\n      tag_154\n      jump\t// in\n    tag_238:\n        /* \"#utility.yul\":2505:2576   */\n      tag_239\n        /* \"#utility.yul\":2569:2575   */\n      dup2\n        /* \"#utility.yul\":2564:2567   */\n      dup6\n        /* \"#utility.yul\":2505:2576   */\n      tag_155\n      jump\t// in\n    tag_239:\n        /* \"#utility.yul\":2498:2576   */\n      swap4\n      pop\n        /* \"#utility.yul\":2585:2650   */\n      tag_240\n        /* \"#utility.yul\":2643:2649   */\n      dup2\n        /* \"#utility.yul\":2638:2641   */\n      dup6\n        /* \"#utility.yul\":2631:2635   */\n      0x20\n        /* \"#utility.yul\":2624:2629   */\n      dup7\n        /* \"#utility.yul\":2620:2636   */\n      add\n        /* \"#utility.yul\":2585:2650   */\n      tag_156\n      jump\t// in\n    tag_240:\n        /* \"#utility.yul\":2675:2704   */\n      tag_241\n        /* \"#utility.yul\":2697:2703   */\n      dup2\n        /* \"#utility.yul\":2675:2704   */\n      tag_157\n      jump\t// in\n    tag_241:\n        /* \"#utility.yul\":2670:2673   */\n      dup5\n        /* \"#utility.yul\":2666:2705   */\n      add\n        /* \"#utility.yul\":2659:2705   */\n      swap2\n      pop\n        /* \"#utility.yul\":2426:2711   */\n      pop\n        /* \"#utility.yul\":2334:2711   */\n      swap3\n      swap2\n      pop\n      pop\n      jump\t// out\n        /* \"#utility.yul\":2717:2835   */\n    tag_159:\n        /* \"#utility.yul\":2804:2828   */\n      tag_243\n        /* \"#utility.yul\":2822:2827   */\n      dup2\n        /* \"#utility.yul\":2804:2828   */\n      tag_150\n      jump\t// in\n    tag_243:\n        /* \"#utility.yul\":2799:2802   */\n      dup3\n        /* \"#utility.yul\":2792:2829   */\n      mstore\n        /* \"#utility.yul\":2717:2835   */\n      pop\n      pop\n      jump\t// out\n        /* \"#utility.yul\":2841:3596   */\n    tag_19:\n        /* \"#utility.yul\":3066:3070   */\n      0x00\n        /* \"#utility.yul\":3104:3107   */\n      0xa0\n        /* \"#utility.yul\":3093:3102   */\n      dup3\n        /* \"#utility.yul\":3089:3108   */\n      add\n        /* \"#utility.yul\":3081:3108   */\n      swap1\n      pop\n        /* \"#utility.yul\":3118:3189   */\n      tag_245\n        /* \"#utility.yul\":3186:3187   */\n      0x00\n        /* \"#utility.yul\":3175:3184   */\n      dup4\n        /* \"#utility.yul\":3171:3188   */\n      add\n        /* \"#utility.yul\":3162:3168   */\n      dup9\n        /* \"#utility.yul\":3118:3189   */\n      tag_153\n      jump\t// in\n    tag_245:\n        /* \"#utility.yul\":3236:3245   */\n      dup2\n        /* \"#utility.yul\":3230:3234   */\n      dup2\n        /* \"#utility.yul\":3226:3246   */\n      sub\n        /* \"#utility.yul\":3221:3223   */\n      0x20\n        /* \"#utility.yul\":3210:3219   */\n      dup4\n        /* \"#utility.yul\":3206:3224   */\n      add\n        /* \"#utility.yul\":3199:3247   */\n      mstore\n        /* \"#utility.yul\":3264:3342   */\n      tag_246\n        /* \"#utility.yul\":3337:3341   */\n      dup2\n        /* \"#utility.yul\":3328:3334   */\n      dup8\n        /* \"#utility.yul\":3264:3342   */\n      tag_158\n      jump\t// in\n    tag_246:\n        /* \"#utility.yul\":3256:3342   */\n      swap1\n      pop\n        /* \"#utility.yul\":3352:3424   */\n      tag_247\n        /* \"#utility.yul\":3420:3422   */\n      0x40\n        /* \"#utility.yul\":3409:3418   */\n      dup4\n        /* \"#utility.yul\":3405:3423   */\n      add\n        /* \"#utility.yul\":3396:3402   */\n      dup7\n        /* \"#utility.yul\":3352:3424   */\n      tag_159\n      jump\t// in\n    tag_247:\n        /* \"#utility.yul\":3434:3506   */\n      tag_248\n        /* \"#utility.yul\":3502:3504   */\n      0x60\n        /* \"#utility.yul\":3491:3500   */\n      dup4\n        /* \"#utility.yul\":3487:3505   */\n      add\n        /* \"#utility.yul\":3478:3484   */\n      dup6\n        /* \"#utility.yul\":3434:3506   */\n      tag_159\n      jump\t// in\n    tag_248:\n        /* \"#utility.yul\":3516:3589   */\n      tag_249\n        /* \"#utility.yul\":3584:3587   */\n      0x80\n        /* \"#utility.yul\":3573:3582   */\n      dup4\n        /* \"#utility.yul\":3569:3588   */\n      add\n        /* \"#utility.yul\":3560:3566   */\n      dup5\n        /* \"#utility.yul\":3516:3589   */\n      tag_159\n      jump\t// in\n    tag_249:\n        /* \"#utility.yul\":2841:3596   */\n      swap7\n      swap6\n      pop\n      pop\n      pop\n      pop\n      pop\n      pop\n      jump\t// out\n        /* \"#utility.yul\":3602:3931   */\n    tag_22:\n        /* \"#utility.yul\":3661:3667   */\n      0x00\n        /* \"#utility.yul\":3710:3712   */\n      0x20\n        /* \"#utility.yul\":3698:3707   */\n      dup3\n        /* \"#utility.yul\":3689:3696   */\n      dup5\n        /* \"#utility.yul\":3685:3708   */\n      sub\n        /* \"#utility.yul\":3681:3713   */\n      slt\n        /* \"#utility.yul\":3678:3797   */\n      iszero\n      tag_251\n      jumpi\n        /* \"#utility.yul\":3716:3795   */\n      tag_252\n      tag_144\n      jump\t// in\n    tag_252:\n        /* \"#utility.yul\":3678:3797   */\n    tag_251:\n        /* \"#utility.yul\":3836:3837   */\n      0x00\n        /* \"#utility.yul\":3861:3914   */\n      tag_253\n        /* \"#utility.yul\":3906:3913   */\n      dup5\n        /* \"#utility.yul\":3897:3903   */\n      dup3\n        /* \"#utility.yul\":3886:3895   */\n      dup6\n        /* \"#utility.yul\":3882:3904   */\n      add\n        /* \"#utility.yul\":3861:3914   */\n      tag_149\n      jump\t// in\n    tag_253:\n        /* \"#utility.yul\":3851:3914   */\n      swap2\n      pop\n        /* \"#utility.yul\":3807:3924   */\n      pop\n        /* \"#utility.yul\":3602:3931   */\n      swap3\n      swap2\n      pop\n      pop\n      jump\t// out\n        /* \"#utility.yul\":3937:4072   */\n    tag_160:\n        /* \"#utility.yul\":4025:4031   */\n      0x00\n        /* \"#utility.yul\":4059:4064   */\n      dup2\n        /* \"#utility.yul\":4053:4065   */\n      mload\n        /* \"#utility.yul\":4043:4065   */\n      swap1\n      pop\n        /* \"#utility.yul\":3937:4072   */\n      swap2\n      swap1\n      pop\n      jump\t// out\n        /* \"#utility.yul\":4078:4283   */\n    tag_161:\n        /* \"#utility.yul\":4198:4209   */\n      0x00\n        /* \"#utility.yul\":4232:4238   */\n      dup3\n        /* \"#utility.yul\":4227:4230   */\n      dup3\n        /* \"#utility.yul\":4220:4239   */\n      mstore\n        /* \"#utility.yul\":4272:4276   */\n      0x20\n        /* \"#utility.yul\":4267:4270   */\n      dup3\n        /* \"#utility.yul\":4263:4277   */\n      add\n        /* \"#utility.yul\":4248:4277   */\n      swap1\n      pop\n        /* \"#utility.yul\":4078:4283   */\n      swap3\n      swap2\n      pop\n      pop\n      jump\t// out\n        /* \"#utility.yul\":4289:4442   */\n    tag_162:\n        /* \"#utility.yul\":4377:4381   */\n      0x00\n        /* \"#utility.yul\":4400:4403   */\n      dup2\n        /* \"#utility.yul\":4392:4403   */\n      swap1\n      pop\n        /* \"#utility.yul\":4430:4434   */\n      0x20\n        /* \"#utility.yul\":4425:4428   */\n      dup3\n        /* \"#utility.yul\":4421:4435   */\n      add\n        /* \"#utility.yul\":4413:4435   */\n      swap1\n      pop\n        /* \"#utility.yul\":4289:4442   */\n      swap2\n      swap1\n      pop\n      jump\t// out\n        /* \"#utility.yul\":4448:4556   */\n    tag_163:\n        /* \"#utility.yul\":4525:4549   */\n      tag_258\n        /* \"#utility.yul\":4543:4548   */\n      dup2\n        /* \"#utility.yul\":4525:4549   */\n      tag_147\n      jump\t// in\n    tag_258:\n        /* \"#utility.yul\":4520:4523   */\n      dup3\n        /* \"#utility.yul\":4513:4550   */\n      mstore\n        /* \"#utility.yul\":4448:4556   */\n      pop\n      pop\n      jump\t// out\n        /* \"#utility.yul\":4562:4721   */\n    tag_164:\n        /* \"#utility.yul\":4636:4647   */\n      0x00\n        /* \"#utility.yul\":4670:4676   */\n      dup3\n        /* \"#utility.yul\":4665:4668   */\n      dup3\n        /* \"#utility.yul\":4658:4677   */\n      mstore\n        /* \"#utility.yul\":4710:4714   */\n      0x20\n        /* \"#utility.yul\":4705:4708   */\n      dup3\n        /* \"#utility.yul\":4701:4715   */\n      add\n        /* \"#utility.yul\":4686:4715   */\n      swap1\n      pop\n        /* \"#utility.yul\":4562:4721   */\n      swap3\n      swap2\n      pop\n      pop\n      jump\t// out\n        /* \"#utility.yul\":4727:5084   */\n    tag_165:\n        /* \"#utility.yul\":4805:4808   */\n      0x00\n        /* \"#utility.yul\":4833:4872   */\n      tag_261\n        /* \"#utility.yul\":4866:4871   */\n      dup3\n        /* \"#utility.yul\":4833:4872   */\n      tag_154\n      jump\t// in\n    tag_261:\n        /* \"#utility.yul\":4888:4949   */\n      tag_262\n        /* \"#utility.yul\":4942:4948   */\n      dup2\n        /* \"#utility.yul\":4937:4940   */\n      dup6\n        /* \"#utility.yul\":4888:4949   */\n      tag_164\n      jump\t// in\n    tag_262:\n        /* \"#utility.yul\":4881:4949   */\n      swap4\n      pop\n        /* \"#utility.yul\":4958:5023   */\n      tag_263\n        /* \"#utility.yul\":5016:5022   */\n      dup2\n        /* \"#utility.yul\":5011:5014   */\n      dup6\n        /* \"#utility.yul\":5004:5008   */\n      0x20\n        /* \"#utility.yul\":4997:5002   */\n      dup7\n        /* \"#utility.yul\":4993:5009   */\n      add\n        /* \"#utility.yul\":4958:5023   */\n      tag_156\n      jump\t// in\n    tag_263:\n        /* \"#utility.yul\":5048:5077   */\n      tag_264\n        /* \"#utility.yul\":5070:5076   */\n      dup2\n        /* \"#utility.yul\":5048:5077   */\n      tag_157\n      jump\t// in\n    tag_264:\n        /* \"#utility.yul\":5043:5046   */\n      dup5\n        /* \"#utility.yul\":5039:5078   */\n      add\n        /* \"#utility.yul\":5032:5078   */\n      swap2\n      pop\n        /* \"#utility.yul\":4809:5084   */\n      pop\n        /* \"#utility.yul\":4727:5084   */\n      swap3\n      swap2\n      pop\n      pop\n      jump\t// out\n        /* \"#utility.yul\":5090:5198   */\n    tag_166:\n        /* \"#utility.yul\":5167:5191   */\n      tag_266\n        /* \"#utility.yul\":5185:5190   */\n      dup2\n        /* \"#utility.yul\":5167:5191   */\n      tag_150\n      jump\t// in\n    tag_266:\n        /* \"#utility.yul\":5162:5165   */\n      dup3\n        /* \"#utility.yul\":5155:5192   */\n      mstore\n        /* \"#utility.yul\":5090:5198   */\n      pop\n      pop\n      jump\t// out\n        /* \"#utility.yul\":5256:6373   */\n    tag_167:\n        /* \"#utility.yul\":5357:5360   */\n      0x00\n        /* \"#utility.yul\":5393:5397   */\n      0xa0\n        /* \"#utility.yul\":5388:5391   */\n      dup4\n        /* \"#utility.yul\":5384:5398   */\n      add\n        /* \"#utility.yul\":5482:5486   */\n      0x00\n        /* \"#utility.yul\":5475:5480   */\n      dup4\n        /* \"#utility.yul\":5471:5487   */\n      add\n        /* \"#utility.yul\":5465:5488   */\n      mload\n        /* \"#utility.yul\":5501:5564   */\n      tag_268\n        /* \"#utility.yul\":5558:5562   */\n      0x00\n        /* \"#utility.yul\":5553:5556   */\n      dup7\n        /* \"#utility.yul\":5549:5563   */\n      add\n        /* \"#utility.yul\":5535:5547   */\n      dup3\n        /* \"#utility.yul\":5501:5564   */\n      tag_163\n      jump\t// in\n    tag_268:\n        /* \"#utility.yul\":5408:5574   */\n      pop\n        /* \"#utility.yul\":5657:5661   */\n      0x20\n        /* \"#utility.yul\":5650:5655   */\n      dup4\n        /* \"#utility.yul\":5646:5662   */\n      add\n        /* \"#utility.yul\":5640:5663   */\n      mload\n        /* \"#utility.yul\":5710:5713   */\n      dup5\n        /* \"#utility.yul\":5704:5708   */\n      dup3\n        /* \"#utility.yul\":5700:5714   */\n      sub\n        /* \"#utility.yul\":5693:5697   */\n      0x20\n        /* \"#utility.yul\":5688:5691   */\n      dup7\n        /* \"#utility.yul\":5684:5698   */\n      add\n        /* \"#utility.yul\":5677:5715   */\n      mstore\n        /* \"#utility.yul\":5736:5809   */\n      tag_269\n        /* \"#utility.yul\":5804:5808   */\n      dup3\n        /* \"#utility.yul\":5790:5802   */\n      dup3\n        /* \"#utility.yul\":5736:5809   */\n      tag_165\n      jump\t// in\n    tag_269:\n        /* \"#utility.yul\":5728:5809   */\n      swap2\n      pop\n        /* \"#utility.yul\":5584:5820   */\n      pop\n        /* \"#utility.yul\":5907:5911   */\n      0x40\n        /* \"#utility.yul\":5900:5905   */\n      dup4\n        /* \"#utility.yul\":5896:5912   */\n      add\n        /* \"#utility.yul\":5890:5913   */\n      mload\n        /* \"#utility.yul\":5926:5989   */\n      tag_270\n        /* \"#utility.yul\":5983:5987   */\n      0x40\n        /* \"#utility.yul\":5978:5981   */\n      dup7\n        /* \"#utility.yul\":5974:5988   */\n      add\n        /* \"#utility.yul\":5960:5972   */\n      dup3\n        /* \"#utility.yul\":5926:5989   */\n      tag_166\n      jump\t// in\n    tag_270:\n        /* \"#utility.yul\":5830:5999   */\n      pop\n        /* \"#utility.yul\":6082:6086   */\n      0x60\n        /* \"#utility.yul\":6075:6080   */\n      dup4\n        /* \"#utility.yul\":6071:6087   */\n      add\n        /* \"#utility.yul\":6065:6088   */\n      mload\n        /* \"#utility.yul\":6101:6164   */\n      tag_271\n        /* \"#utility.yul\":6158:6162   */\n      0x60\n        /* \"#utility.yul\":6153:6156   */\n      dup7\n        /* \"#utility.yul\":6149:6163   */\n      add\n        /* \"#utility.yul\":6135:6147   */\n      dup3\n        /* \"#utility.yul\":6101:6164   */\n      tag_166\n      jump\t// in\n    tag_271:\n        /* \"#utility.yul\":6009:6174   */\n      pop\n        /* \"#utility.yul\":6254:6258   */\n      0x80\n        /* \"#utility.yul\":6247:6252   */\n      dup4\n        /* \"#utility.yul\":6243:6259   */\n      add\n        /* \"#utility.yul\":6237:6260   */\n      mload\n        /* \"#utility.yul\":6273:6336   */\n      tag_272\n        /* \"#utility.yul\":6330:6334   */\n      0x80\n        /* \"#utility.yul\":6325:6328   */\n      dup7\n        /* \"#utility.yul\":6321:6335   */\n      add\n        /* \"#utility.yul\":6307:6319   */\n      dup3\n        /* \"#utility.yul\":6273:6336   */\n      tag_166\n      jump\t// in\n    tag_272:\n        /* \"#utility.yul\":6184:6346   */\n      pop\n        /* \"#utility.yul\":6363:6367   */\n      dup1\n        /* \"#utility.yul\":6356:6367   */\n      swap2\n      pop\n        /* \"#utility.yul\":5362:6373   */\n      pop\n        /* \"#utility.yul\":5256:6373   */\n      swap3\n      swap2\n      pop\n      pop\n      jump\t// out\n        /* \"#utility.yul\":6379:6619   */\n    tag_168:\n        /* \"#utility.yul\":6490:6500   */\n      0x00\n        /* \"#utility.yul\":6525:6613   */\n      tag_274\n        /* \"#utility.yul\":6609:6612   */\n      dup4\n        /* \"#utility.yul\":6601:6607   */\n      dup4\n        /* \"#utility.yul\":6525:6613   */\n      tag_167\n      jump\t// in\n    tag_274:\n        /* \"#utility.yul\":6511:6613   */\n      swap1\n      pop\n        /* \"#utility.yul\":6379:6619   */\n      swap3\n      swap2\n      pop\n      pop\n      jump\t// out\n        /* \"#utility.yul\":6625:6759   */\n    tag_169:\n        /* \"#utility.yul\":6716:6720   */\n      0x00\n        /* \"#utility.yul\":6748:6752   */\n      0x20\n        /* \"#utility.yul\":6743:6746   */\n      dup3\n        /* \"#utility.yul\":6739:6753   */\n      add\n        /* \"#utility.yul\":6731:6753   */\n      swap1\n      pop\n        /* \"#utility.yul\":6625:6759   */\n      swap2\n      swap1\n      pop\n      jump\t// out\n        /* \"#utility.yul\":6821:7900   */\n    tag_170:\n        /* \"#utility.yul\":6982:6985   */\n      0x00\n        /* \"#utility.yul\":7011:7086   */\n      tag_277\n        /* \"#utility.yul\":7080:7085   */\n      dup3\n        /* \"#utility.yul\":7011:7086   */\n      tag_160\n      jump\t// in\n    tag_277:\n        /* \"#utility.yul\":7102:7209   */\n      tag_278\n        /* \"#utility.yul\":7202:7208   */\n      dup2\n        /* \"#utility.yul\":7197:7200   */\n      dup6\n        /* \"#utility.yul\":7102:7209   */\n      tag_161\n      jump\t// in\n    tag_278:\n        /* \"#utility.yul\":7095:7209   */\n      swap4\n      pop\n        /* \"#utility.yul\":7235:7238   */\n      dup4\n        /* \"#utility.yul\":7280:7284   */\n      0x20\n        /* \"#utility.yul\":7272:7278   */\n      dup3\n        /* \"#utility.yul\":7268:7285   */\n      mul\n        /* \"#utility.yul\":7263:7266   */\n      dup6\n        /* \"#utility.yul\":7259:7286   */\n      add\n        /* \"#utility.yul\":7310:7387   */\n      tag_279\n        /* \"#utility.yul\":7381:7386   */\n      dup6\n        /* \"#utility.yul\":7310:7387   */\n      tag_162\n      jump\t// in\n    tag_279:\n        /* \"#utility.yul\":7410:7417   */\n      dup1\n        /* \"#utility.yul\":7441:7442   */\n      0x00\n        /* \"#utility.yul\":7426:7855   */\n    tag_280:\n        /* \"#utility.yul\":7451:7457   */\n      dup6\n        /* \"#utility.yul\":7448:7449   */\n      dup2\n        /* \"#utility.yul\":7445:7458   */\n      lt\n        /* \"#utility.yul\":7426:7855   */\n      iszero\n      tag_282\n      jumpi\n        /* \"#utility.yul\":7522:7531   */\n      dup5\n        /* \"#utility.yul\":7516:7520   */\n      dup5\n        /* \"#utility.yul\":7512:7532   */\n      sub\n        /* \"#utility.yul\":7507:7510   */\n      dup10\n        /* \"#utility.yul\":7500:7533   */\n      mstore\n        /* \"#utility.yul\":7573:7579   */\n      dup2\n        /* \"#utility.yul\":7567:7580   */\n      mload\n        /* \"#utility.yul\":7601:7707   */\n      tag_283\n        /* \"#utility.yul\":7702:7706   */\n      dup6\n        /* \"#utility.yul\":7687:7700   */\n      dup3\n        /* \"#utility.yul\":7601:7707   */\n      tag_168\n      jump\t// in\n    tag_283:\n        /* \"#utility.yul\":7593:7707   */\n      swap5\n      pop\n        /* \"#utility.yul\":7730:7811   */\n      tag_284\n        /* \"#utility.yul\":7804:7810   */\n      dup4\n        /* \"#utility.yul\":7730:7811   */\n      tag_169\n      jump\t// in\n    tag_284:\n        /* \"#utility.yul\":7720:7811   */\n      swap3\n      pop\n        /* \"#utility.yul\":7840:7844   */\n      0x20\n        /* \"#utility.yul\":7835:7838   */\n      dup11\n        /* \"#utility.yul\":7831:7845   */\n      add\n        /* \"#utility.yul\":7824:7845   */\n      swap10\n      pop\n        /* \"#utility.yul\":7486:7855   */\n      pop\n        /* \"#utility.yul\":7473:7474   */\n      0x01\n        /* \"#utility.yul\":7470:7471   */\n      dup2\n        /* \"#utility.yul\":7466:7475   */\n      add\n        /* \"#utility.yul\":7461:7475   */\n      swap1\n      pop\n        /* \"#utility.yul\":7426:7855   */\n      jump(tag_280)\n    tag_282:\n        /* \"#utility.yul\":7430:7444   */\n      pop\n        /* \"#utility.yul\":7871:7875   */\n      dup3\n        /* \"#utility.yul\":7864:7875   */\n      swap8\n      pop\n        /* \"#utility.yul\":7891:7894   */\n      dup8\n        /* \"#utility.yul\":7884:7894   */\n      swap6\n      pop\n        /* \"#utility.yul\":6987:7900   */\n      pop\n      pop\n      pop\n      pop\n      pop\n        /* \"#utility.yul\":6821:7900   */\n      swap3\n      swap2\n      pop\n      pop\n      jump\t// out\n        /* \"#utility.yul\":7906:8363   */\n    tag_25:\n        /* \"#utility.yul\":8091:8095   */\n      0x00\n        /* \"#utility.yul\":8129:8131   */\n      0x20\n        /* \"#utility.yul\":8118:8127   */\n      dup3\n        /* \"#utility.yul\":8114:8132   */\n      add\n        /* \"#utility.yul\":8106:8132   */\n      swap1\n      pop\n        /* \"#utility.yul\":8178:8187   */\n      dup2\n        /* \"#utility.yul\":8172:8176   */\n      dup2\n        /* \"#utility.yul\":8168:8188   */\n      sub\n        /* \"#utility.yul\":8164:8165   */\n      0x00\n        /* \"#utility.yul\":8153:8162   */\n      dup4\n        /* \"#utility.yul\":8149:8166   */\n      add\n        /* \"#utility.yul\":8142:8189   */\n      mstore\n        /* \"#utility.yul\":8206:8356   */\n      tag_286\n        /* \"#utility.yul\":8351:8355   */\n      dup2\n        /* \"#utility.yul\":8342:8348   */\n      dup5\n        /* \"#utility.yul\":8206:8356   */\n      tag_170\n      jump\t// in\n    tag_286:\n        /* \"#utility.yul\":8198:8356   */\n      swap1\n      pop\n        /* \"#utility.yul\":7906:8363   */\n      swap3\n      swap2\n      pop\n      pop\n      jump\t// out\n        /* \"#utility.yul\":8369:8698   */\n    tag_28:\n        /* \"#utility.yul\":8428:8434   */\n      0x00\n        /* \"#utility.yul\":8477:8479   */\n      0x20\n        /* \"#utility.yul\":8465:8474   */\n      dup3\n        /* \"#utility.yul\":8456:8463   */\n      dup5\n        /* \"#utility.yul\":8452:8475   */\n      sub\n        /* \"#utility.yul\":8448:8480   */\n      slt\n        /* \"#utility.yul\":8445:8564   */\n      iszero\n      tag_288\n      jumpi\n        /* \"#utility.yul\":8483:8562   */\n      tag_289\n      tag_144\n      jump\t// in\n    tag_289:\n        /* \"#utility.yul\":8445:8564   */\n    tag_288:\n        /* \"#utility.yul\":8603:8604   */\n      0x00\n        /* \"#utility.yul\":8628:8681   */\n      tag_290\n        /* \"#utility.yul\":8673:8680   */\n      dup5\n        /* \"#utility.yul\":8664:8670   */\n      dup3\n        /* \"#utility.yul\":8653:8662   */\n      dup6\n        /* \"#utility.yul\":8649:8671   */\n      add\n        /* \"#utility.yul\":8628:8681   */\n      tag_152\n      jump\t// in\n    tag_290:\n        /* \"#utility.yul\":8618:8681   */\n      swap2\n      pop\n        /* \"#utility.yul\":8574:8691   */\n      pop\n        /* \"#utility.yul\":8369:8698   */\n      swap3\n      swap2\n      pop\n      pop\n      jump\t// out\n        /* \"#utility.yul\":8756:9883   */\n    tag_171:\n        /* \"#utility.yul\":8867:8870   */\n      0x00\n        /* \"#utility.yul\":8903:8907   */\n      0xa0\n        /* \"#utility.yul\":8898:8901   */\n      dup4\n        /* \"#utility.yul\":8894:8908   */\n      add\n        /* \"#utility.yul\":8992:8996   */\n      0x00\n        /* \"#utility.yul\":8985:8990   */\n      dup4\n        /* \"#utility.yul\":8981:8997   */\n      add\n        /* \"#utility.yul\":8975:8998   */\n      mload\n        /* \"#utility.yul\":9011:9074   */\n      tag_292\n        /* \"#utility.yul\":9068:9072   */\n      0x00\n        /* \"#utility.yul\":9063:9066   */\n      dup7\n        /* \"#utility.yul\":9059:9073   */\n      add\n        /* \"#utility.yul\":9045:9057   */\n      dup3\n        /* \"#utility.yul\":9011:9074   */\n      tag_163\n      jump\t// in\n    tag_292:\n        /* \"#utility.yul\":8918:9084   */\n      pop\n        /* \"#utility.yul\":9167:9171   */\n      0x20\n        /* \"#utility.yul\":9160:9165   */\n      dup4\n        /* \"#utility.yul\":9156:9172   */\n      add\n        /* \"#utility.yul\":9150:9173   */\n      mload\n        /* \"#utility.yul\":9220:9223   */\n      dup5\n        /* \"#utility.yul\":9214:9218   */\n      dup3\n        /* \"#utility.yul\":9210:9224   */\n      sub\n        /* \"#utility.yul\":9203:9207   */\n      0x20\n        /* \"#utility.yul\":9198:9201   */\n      dup7\n        /* \"#utility.yul\":9194:9208   */\n      add\n        /* \"#utility.yul\":9187:9225   */\n      mstore\n        /* \"#utility.yul\":9246:9319   */\n      tag_293\n        /* \"#utility.yul\":9314:9318   */\n      dup3\n        /* \"#utility.yul\":9300:9312   */\n      dup3\n        /* \"#utility.yul\":9246:9319   */\n      tag_165\n      jump\t// in\n    tag_293:\n        /* \"#utility.yul\":9238:9319   */\n      swap2\n      pop\n        /* \"#utility.yul\":9094:9330   */\n      pop\n        /* \"#utility.yul\":9417:9421   */\n      0x40\n        /* \"#utility.yul\":9410:9415   */\n      dup4\n        /* \"#utility.yul\":9406:9422   */\n      add\n        /* \"#utility.yul\":9400:9423   */\n      mload\n        /* \"#utility.yul\":9436:9499   */\n      tag_294\n        /* \"#utility.yul\":9493:9497   */\n      0x40\n        /* \"#utility.yul\":9488:9491   */\n      dup7\n        /* \"#utility.yul\":9484:9498   */\n      add\n        /* \"#utility.yul\":9470:9482   */\n      dup3\n        /* \"#utility.yul\":9436:9499   */\n      tag_166\n      jump\t// in\n    tag_294:\n        /* \"#utility.yul\":9340:9509   */\n      pop\n        /* \"#utility.yul\":9592:9596   */\n      0x60\n        /* \"#utility.yul\":9585:9590   */\n      dup4\n        /* \"#utility.yul\":9581:9597   */\n      add\n        /* \"#utility.yul\":9575:9598   */\n      mload\n        /* \"#utility.yul\":9611:9674   */\n      tag_295\n        /* \"#utility.yul\":9668:9672   */\n      0x60\n        /* \"#utility.yul\":9663:9666   */\n      dup7\n        /* \"#utility.yul\":9659:9673   */\n      add\n        /* \"#utility.yul\":9645:9657   */\n      dup3\n        /* \"#utility.yul\":9611:9674   */\n      tag_166\n      jump\t// in\n    tag_295:\n        /* \"#utility.yul\":9519:9684   */\n      pop\n        /* \"#utility.yul\":9764:9768   */\n      0x80\n        /* \"#utility.yul\":9757:9762   */\n      dup4\n        /* \"#utility.yul\":9753:9769   */\n      add\n        /* \"#utility.yul\":9747:9770   */\n      mload\n        /* \"#utility.yul\":9783:9846   */\n      tag_296\n        /* \"#utility.yul\":9840:9844   */\n      0x80\n        /* \"#utility.yul\":9835:9838   */\n      dup7\n        /* \"#utility.yul\":9831:9845   */\n      add\n        /* \"#utility.yul\":9817:9829   */\n      dup3\n        /* \"#utility.yul\":9783:9846   */\n      tag_166\n      jump\t// in\n    tag_296:\n        /* \"#utility.yul\":9694:9856   */\n      pop\n        /* \"#utility.yul\":9873:9877   */\n      dup1\n        /* \"#utility.yul\":9866:9877   */\n      swap2\n      pop\n        /* \"#utility.yul\":8872:9883   */\n      pop\n        /* \"#utility.yul\":8756:9883   */\n      swap3\n      swap2\n      pop\n      pop\n      jump\t// out\n        /* \"#utility.yul\":9889:10246   */\n    tag_31:\n        /* \"#utility.yul\":10024:10028   */\n      0x00\n        /* \"#utility.yul\":10062:10064   */\n      0x20\n        /* \"#utility.yul\":10051:10060   */\n      dup3\n        /* \"#utility.yul\":10047:10065   */\n      add\n        /* \"#utility.yul\":10039:10065   */\n      swap1\n      pop\n        /* \"#utility.yul\":10111:10120   */\n      dup2\n        /* \"#utility.yul\":10105:10109   */\n      dup2\n        /* \"#utility.yul\":10101:10121   */\n      sub\n        /* \"#utility.yul\":10097:10098   */\n      0x00\n        /* \"#utility.yul\":10086:10095   */\n      dup4\n        /* \"#utility.yul\":10082:10099   */\n      add\n        /* \"#utility.yul\":10075:10122   */\n      mstore\n        /* \"#utility.yul\":10139:10239   */\n      tag_298\n        /* \"#utility.yul\":10234:10238   */\n      dup2\n        /* \"#utility.yul\":10225:10231   */\n      dup5\n        /* \"#utility.yul\":10139:10239   */\n      tag_171\n      jump\t// in\n    tag_298:\n        /* \"#utility.yul\":10131:10239   */\n      swap1\n      pop\n        /* \"#utility.yul\":9889:10246   */\n      swap3\n      swap2\n      pop\n      pop\n      jump\t// out\n        /* \"#utility.yul\":10252:10369   */\n    tag_172:\n        /* \"#utility.yul\":10361:10362   */\n      0x00\n        /* \"#utility.yul\":10358:10359   */\n      0x00\n        /* \"#utility.yul\":10351:10363   */\n      revert\n        /* \"#utility.yul\":10375:10492   */\n    tag_173:\n        /* \"#utility.yul\":10484:10485   */\n      0x00\n        /* \"#utility.yul\":10481:10482   */\n      0x00\n        /* \"#utility.yul\":10474:10486   */\n      revert\n        /* \"#utility.yul\":10498:10678   */\n    tag_174:\n        /* \"#utility.yul\":10546:10623   */\n      0x4e487b7100000000000000000000000000000000000000000000000000000000\n        /* \"#utility.yul\":10543:10544   */\n      0x00\n        /* \"#utility.yul\":10536:10624   */\n      mstore\n        /* \"#utility.yul\":10643:10647   */\n      0x41\n        /* \"#utility.yul\":10640:10641   */\n      0x04\n        /* \"#utility.yul\":10633:10648   */\n      mstore\n        /* \"#utility.yul\":10667:10671   */\n      0x24\n        /* \"#utility.yul\":10664:10665   */\n      0x00\n        /* \"#utility.yul\":10657:10672   */\n      revert\n        /* \"#utility.yul\":10684:10965   */\n    tag_175:\n        /* \"#utility.yul\":10767:10794   */\n      tag_303\n        /* \"#utility.yul\":10789:10793   */\n      dup3\n        /* \"#utility.yul\":10767:10794   */\n      tag_157\n      jump\t// in\n    tag_303:\n        /* \"#utility.yul\":10759:10765   */\n      dup2\n        /* \"#utility.yul\":10755:10795   */\n      add\n        /* \"#utility.yul\":10897:10903   */\n      dup2\n        /* \"#utility.yul\":10885:10895   */\n      dup2\n        /* \"#utility.yul\":10882:10904   */\n      lt\n        /* \"#utility.yul\":10861:10879   */\n      0xffffffffffffffff\n        /* \"#utility.yul\":10849:10859   */\n      dup3\n        /* \"#utility.yul\":10846:10880   */\n      gt\n        /* \"#utility.yul\":10843:10905   */\n      or\n        /* \"#utility.yul\":10840:10928   */\n      iszero\n      tag_304\n      jumpi\n        /* \"#utility.yul\":10908:10926   */\n      tag_305\n      tag_174\n      jump\t// in\n    tag_305:\n        /* \"#utility.yul\":10840:10928   */\n    tag_304:\n        /* \"#utility.yul\":10948:10958   */\n      dup1\n        /* \"#utility.yul\":10944:10946   */\n      0x40\n        /* \"#utility.yul\":10937:10959   */\n      mstore\n        /* \"#utility.yul\":10727:10965   */\n      pop\n        /* \"#utility.yul\":10684:10965   */\n      pop\n      pop\n      jump\t// out\n        /* \"#utility.yul\":10971:11100   */\n    tag_176:\n        /* \"#utility.yul\":11005:11011   */\n      0x00\n        /* \"#utility.yul\":11032:11052   */\n      tag_307\n      tag_143\n      jump\t// in\n    tag_307:\n        /* \"#utility.yul\":11022:11052   */\n      swap1\n      pop\n        /* \"#utility.yul\":11061:11094   */\n      tag_308\n        /* \"#utility.yul\":11089:11093   */\n      dup3\n        /* \"#utility.yul\":11081:11087   */\n      dup3\n        /* \"#utility.yul\":11061:11094   */\n      tag_175\n      jump\t// in\n    tag_308:\n        /* \"#utility.yul\":10971:11100   */\n      swap2\n      swap1\n      pop\n      jump\t// out\n        /* \"#utility.yul\":11106:11414   */\n    tag_177:\n        /* \"#utility.yul\":11168:11172   */\n      0x00\n        /* \"#utility.yul\":11258:11276   */\n      0xffffffffffffffff\n        /* \"#utility.yul\":11250:11256   */\n      dup3\n        /* \"#utility.yul\":11247:11277   */\n      gt\n        /* \"#utility.yul\":11244:11300   */\n      iszero\n      tag_310\n      jumpi\n        /* \"#utility.yul\":11280:11298   */\n      tag_311\n      tag_174\n      jump\t// in\n    tag_311:\n        /* \"#utility.yul\":11244:11300   */\n    tag_310:\n        /* \"#utility.yul\":11318:11347   */\n      tag_312\n        /* \"#utility.yul\":11340:11346   */\n      dup3\n        /* \"#utility.yul\":11318:11347   */\n      tag_157\n      jump\t// in\n    tag_312:\n        /* \"#utility.yul\":11310:11347   */\n      swap1\n      pop\n        /* \"#utility.yul\":11402:11406   */\n      0x20\n        /* \"#utility.yul\":11396:11400   */\n      dup2\n        /* \"#utility.yul\":11392:11407   */\n      add\n        /* \"#utility.yul\":11384:11407   */\n      swap1\n      pop\n        /* \"#utility.yul\":11106:11414   */\n      swap2\n      swap1\n      pop\n      jump\t// out\n        /* \"#utility.yul\":11420:11568   */\n    tag_178:\n        /* \"#utility.yul\":11518:11524   */\n      dup3\n        /* \"#utility.yul\":11513:11516   */\n      dup2\n        /* \"#utility.yul\":11508:11511   */\n      dup4\n        /* \"#utility.yul\":11495:11525   */\n      calldatacopy\n        /* \"#utility.yul\":11559:11560   */\n      0x00\n        /* \"#utility.yul\":11550:11556   */\n      dup4\n        /* \"#utility.yul\":11545:11548   */\n      dup4\n        /* \"#utility.yul\":11541:11557   */\n      add\n        /* \"#utility.yul\":11534:11561   */\n      mstore\n        /* \"#utility.yul\":11420:11568   */\n      pop\n      pop\n      pop\n      jump\t// out\n        /* \"#utility.yul\":11574:11999   */\n    tag_179:\n        /* \"#utility.yul\":11652:11657   */\n      0x00\n        /* \"#utility.yul\":11677:11743   */\n      tag_315\n        /* \"#utility.yul\":11693:11742   */\n      tag_316\n        /* \"#utility.yul\":11735:11741   */\n      dup5\n        /* \"#utility.yul\":11693:11742   */\n      tag_177\n      jump\t// in\n    tag_316:\n        /* \"#utility.yul\":11677:11743   */\n      tag_176\n      jump\t// in\n    tag_315:\n        /* \"#utility.yul\":11668:11743   */\n      swap1\n      pop\n        /* \"#utility.yul\":11766:11772   */\n      dup3\n        /* \"#utility.yul\":11759:11764   */\n      dup2\n        /* \"#utility.yul\":11752:11773   */\n      mstore\n        /* \"#utility.yul\":11804:11808   */\n      0x20\n        /* \"#utility.yul\":11797:11802   */\n      dup2\n        /* \"#utility.yul\":11793:11809   */\n      add\n        /* \"#utility.yul\":11842:11845   */\n      dup5\n        /* \"#utility.yul\":11833:11839   */\n      dup5\n        /* \"#utility.yul\":11828:11831   */\n      dup5\n        /* \"#utility.yul\":11824:11840   */\n      add\n        /* \"#utility.yul\":11821:11846   */\n      gt\n        /* \"#utility.yul\":11818:11930   */\n      iszero\n      tag_317\n      jumpi\n        /* \"#utility.yul\":11849:11928   */\n      tag_318\n      tag_173\n      jump\t// in\n    tag_318:\n        /* \"#utility.yul\":11818:11930   */\n    tag_317:\n        /* \"#utility.yul\":11939:11993   */\n      tag_319\n        /* \"#utility.yul\":11986:11992   */\n      dup5\n        /* \"#utility.yul\":11981:11984   */\n      dup3\n        /* \"#utility.yul\":11976:11979   */\n      dup6\n        /* \"#utility.yul\":11939:11993   */\n      tag_178\n      jump\t// in\n    tag_319:\n        /* \"#utility.yul\":11658:11999   */\n      pop\n        /* \"#utility.yul\":11574:11999   */\n      swap4\n      swap3\n      pop\n      pop\n      pop\n      jump\t// out\n        /* \"#utility.yul\":12019:12359   */\n    tag_180:\n        /* \"#utility.yul\":12075:12080   */\n      0x00\n        /* \"#utility.yul\":12124:12127   */\n      dup3\n        /* \"#utility.yul\":12117:12121   */\n      0x1f\n        /* \"#utility.yul\":12109:12115   */\n      dup4\n        /* \"#utility.yul\":12105:12122   */\n      add\n        /* \"#utility.yul\":12101:12128   */\n      slt\n        /* \"#utility.yul\":12091:12213   */\n      tag_321\n      jumpi\n        /* \"#utility.yul\":12132:12211   */\n      tag_322\n      tag_172\n      jump\t// in\n    tag_322:\n        /* \"#utility.yul\":12091:12213   */\n    tag_321:\n        /* \"#utility.yul\":12249:12255   */\n      dup2\n        /* \"#utility.yul\":12236:12256   */\n      calldataload\n        /* \"#utility.yul\":12274:12353   */\n      tag_323\n        /* \"#utility.yul\":12349:12352   */\n      dup5\n        /* \"#utility.yul\":12341:12347   */\n      dup3\n        /* \"#utility.yul\":12334:12338   */\n      0x20\n        /* \"#utility.yul\":12326:12332   */\n      dup7\n        /* \"#utility.yul\":12322:12339   */\n      add\n        /* \"#utility.yul\":12274:12353   */\n      tag_179\n      jump\t// in\n    tag_323:\n        /* \"#utility.yul\":12265:12353   */\n      swap2\n      pop\n        /* \"#utility.yul\":12081:12359   */\n      pop\n        /* \"#utility.yul\":12019:12359   */\n      swap3\n      swap2\n      pop\n      pop\n      jump\t// out\n        /* \"#utility.yul\":12365:12874   */\n    tag_34:\n        /* \"#utility.yul\":12434:12440   */\n      0x00\n        /* \"#utility.yul\":12483:12485   */\n      0x20\n        /* \"#utility.yul\":12471:12480   */\n      dup3\n        /* \"#utility.yul\":12462:12469   */\n      dup5\n        /* \"#utility.yul\":12458:12481   */\n      sub\n        /* \"#utility.yul\":12454:12486   */\n      slt\n        /* \"#utility.yul\":12451:12570   */\n      iszero\n      tag_325\n      jumpi\n        /* \"#utility.yul\":12489:12568   */\n      tag_326\n      tag_144\n      jump\t// in\n    tag_326:\n        /* \"#utility.yul\":12451:12570   */\n    tag_325:\n        /* \"#utility.yul\":12637:12638   */\n      0x00\n        /* \"#utility.yul\":12626:12635   */\n      dup3\n        /* \"#utility.yul\":12622:12639   */\n      add\n        /* \"#utility.yul\":12609:12640   */\n      calldataload\n        /* \"#utility.yul\":12667:12685   */\n      0xffffffffffffffff\n        /* \"#utility.yul\":12659:12665   */\n      dup2\n        /* \"#utility.yul\":12656:12686   */\n      gt\n        /* \"#utility.yul\":12653:12770   */\n      iszero\n      tag_327\n      jumpi\n        /* \"#utility.yul\":12689:12768   */\n      tag_328\n      tag_145\n      jump\t// in\n    tag_328:\n        /* \"#utility.yul\":12653:12770   */\n    tag_327:\n        /* \"#utility.yul\":12794:12857   */\n      tag_329\n        /* \"#utility.yul\":12849:12856   */\n      dup5\n        /* \"#utility.yul\":12840:12846   */\n      dup3\n        /* \"#utility.yul\":12829:12838   */\n      dup6\n        /* \"#utility.yul\":12825:12847   */\n      add\n        /* \"#utility.yul\":12794:12857   */\n      tag_180\n      jump\t// in\n    tag_329:\n        /* \"#utility.yul\":12784:12857   */\n      swap2\n      pop\n        /* \"#utility.yul\":12580:12867   */\n      pop\n        /* \"#utility.yul\":12365:12874   */\n      swap3\n      swap2\n      pop\n      pop\n      jump\t// out\n        /* \"#utility.yul\":12880:13102   */\n    tag_42:\n        /* \"#utility.yul\":12973:12977   */\n      0x00\n        /* \"#utility.yul\":13011:13013   */\n      0x20\n        /* \"#utility.yul\":13000:13009   */\n      dup3\n        /* \"#utility.yul\":12996:13014   */\n      add\n        /* \"#utility.yul\":12988:13014   */\n      swap1\n      pop\n        /* \"#utility.yul\":13024:13095   */\n      tag_331\n        /* \"#utility.yul\":13092:13093   */\n      0x00\n        /* \"#utility.yul\":13081:13090   */\n      dup4\n        /* \"#utility.yul\":13077:13094   */\n      add\n        /* \"#utility.yul\":13068:13074   */\n      dup5\n        /* \"#utility.yul\":13024:13095   */\n      tag_153\n      jump\t// in\n    tag_331:\n        /* \"#utility.yul\":12880:13102   */\n      swap3\n      swap2\n      pop\n      pop\n      jump\t// out\n        /* \"#utility.yul\":13108:13582   */\n    tag_45:\n        /* \"#utility.yul\":13176:13182   */\n      0x00\n        /* \"#utility.yul\":13184:13190   */\n      0x00\n        /* \"#utility.yul\":13233:13235   */\n      0x40\n        /* \"#utility.yul\":13221:13230   */\n      dup4\n        /* \"#utility.yul\":13212:13219   */\n      dup6\n        /* \"#utility.yul\":13208:13231   */\n      sub\n        /* \"#utility.yul\":13204:13236   */\n      slt\n        /* \"#utility.yul\":13201:13320   */\n      iszero\n      tag_333\n      jumpi\n        /* \"#utility.yul\":13239:13318   */\n      tag_334\n      tag_144\n      jump\t// in\n    tag_334:\n        /* \"#utility.yul\":13201:13320   */\n    tag_333:\n        /* \"#utility.yul\":13359:13360   */\n      0x00\n        /* \"#utility.yul\":13384:13437   */\n      tag_335\n        /* \"#utility.yul\":13429:13436   */\n      dup6\n        /* \"#utility.yul\":13420:13426   */\n      dup3\n        /* \"#utility.yul\":13409:13418   */\n      dup7\n        /* \"#utility.yul\":13405:13427   */\n      add\n        /* \"#utility.yul\":13384:13437   */\n      tag_152\n      jump\t// in\n    tag_335:\n        /* \"#utility.yul\":13374:13437   */\n      swap3\n      pop\n        /* \"#utility.yul\":13330:13447   */\n      pop\n        /* \"#utility.yul\":13486:13488   */\n      0x20\n        /* \"#utility.yul\":13512:13565   */\n      tag_336\n        /* \"#utility.yul\":13557:13564   */\n      dup6\n        /* \"#utility.yul\":13548:13554   */\n      dup3\n        /* \"#utility.yul\":13537:13546   */\n      dup7\n        /* \"#utility.yul\":13533:13555   */\n      add\n        /* \"#utility.yul\":13512:13565   */\n      tag_149\n      jump\t// in\n    tag_336:\n        /* \"#utility.yul\":13502:13565   */\n      swap2\n      pop\n        /* \"#utility.yul\":13457:13575   */\n      pop\n        /* \"#utility.yul\":13108:13582   */\n      swap3\n      pop\n      swap3\n      swap1\n      pop\n      jump\t// out\n        /* \"#utility.yul\":13588:13810   */\n    tag_50:\n        /* \"#utility.yul\":13681:13685   */\n      0x00\n        /* \"#utility.yul\":13719:13721   */\n      0x20\n        /* \"#utility.yul\":13708:13717   */\n      dup3\n        /* \"#utility.yul\":13704:13722   */\n      add\n        /* \"#utility.yul\":13696:13722   */\n      swap1\n      pop\n        /* \"#utility.yul\":13732:13803   */\n      tag_338\n        /* \"#utility.yul\":13800:13801   */\n      0x00\n        /* \"#utility.yul\":13789:13798   */\n      dup4\n        /* \"#utility.yul\":13785:13802   */\n      add\n        /* \"#utility.yul\":13776:13782   */\n      dup5\n        /* \"#utility.yul\":13732:13803   */\n      tag_159\n      jump\t// in\n    tag_338:\n        /* \"#utility.yul\":13588:13810   */\n      swap3\n      swap2\n      pop\n      pop\n      jump\t// out\n        /* \"#utility.yul\":13816:13996   */\n    tag_181:\n        /* \"#utility.yul\":13864:13941   */\n      0x4e487b7100000000000000000000000000000000000000000000000000000000\n        /* \"#utility.yul\":13861:13862   */\n      0x00\n        /* \"#utility.yul\":13854:13942   */\n      mstore\n        /* \"#utility.yul\":13961:13965   */\n      0x22\n        /* \"#utility.yul\":13958:13959   */\n      0x04\n        /* \"#utility.yul\":13951:13966   */\n      mstore\n        /* \"#utility.yul\":13985:13989   */\n      0x24\n        /* \"#utility.yul\":13982:13983   */\n      0x00\n        /* \"#utility.yul\":13975:13990   */\n      revert\n        /* \"#utility.yul\":14002:14322   */\n    tag_60:\n        /* \"#utility.yul\":14046:14052   */\n      0x00\n        /* \"#utility.yul\":14083:14084   */\n      0x02\n        /* \"#utility.yul\":14077:14081   */\n      dup3\n        /* \"#utility.yul\":14073:14085   */\n      div\n        /* \"#utility.yul\":14063:14085   */\n      swap1\n      pop\n        /* \"#utility.yul\":14130:14131   */\n      0x01\n        /* \"#utility.yul\":14124:14128   */\n      dup3\n        /* \"#utility.yul\":14120:14132   */\n      and\n        /* \"#utility.yul\":14151:14169   */\n      dup1\n        /* \"#utility.yul\":14141:14222   */\n      tag_341\n      jumpi\n        /* \"#utility.yul\":14207:14211   */\n      0x7f\n        /* \"#utility.yul\":14199:14205   */\n      dup3\n        /* \"#utility.yul\":14195:14212   */\n      and\n        /* \"#utility.yul\":14185:14212   */\n      swap2\n      pop\n        /* \"#utility.yul\":14141:14222   */\n    tag_341:\n        /* \"#utility.yul\":14269:14271   */\n      0x20\n        /* \"#utility.yul\":14261:14267   */\n      dup3\n        /* \"#utility.yul\":14258:14272   */\n      lt\n        /* \"#utility.yul\":14238:14256   */\n      dup2\n        /* \"#utility.yul\":14235:14273   */\n      sub\n        /* \"#utility.yul\":14232:14316   */\n      tag_342\n      jumpi\n        /* \"#utility.yul\":14288:14306   */\n      tag_343\n      tag_181\n      jump\t// in\n    tag_343:\n        /* \"#utility.yul\":14232:14316   */\n    tag_342:\n        /* \"#utility.yul\":14053:14322   */\n      pop\n        /* \"#utility.yul\":14002:14322   */\n      swap2\n      swap1\n      pop\n      jump\t// out\n        /* \"#utility.yul\":14328:14508   */\n    tag_79:\n        /* \"#utility.yul\":14376:14453   */\n      0x4e487b7100000000000000000000000000000000000000000000000000000000\n        /* \"#utility.yul\":14373:14374   */\n      0x00\n        /* \"#utility.yul\":14366:14454   */\n      mstore\n        /* \"#utility.yul\":14473:14477   */\n      0x32\n        /* \"#utility.yul\":14470:14471   */\n      0x04\n        /* \"#utility.yul\":14463:14478   */\n      mstore\n        /* \"#utility.yul\":14497:14501   */\n      0x24\n        /* \"#utility.yul\":14494:14495   */\n      0x00\n        /* \"#utility.yul\":14487:14502   */\n      revert\n        /* \"#utility.yul\":14514:14687   */\n    tag_182:\n        /* \"#utility.yul\":14654:14679   */\n      0x63616e6e6f74207061737320656d707479207477656574000000000000000000\n        /* \"#utility.yul\":14650:14651   */\n      0x00\n        /* \"#utility.yul\":14642:14648   */\n      dup3\n        /* \"#utility.yul\":14638:14652   */\n      add\n        /* \"#utility.yul\":14631:14680   */\n      mstore\n        /* \"#utility.yul\":14514:14687   */\n      pop\n      jump\t// out\n        /* \"#utility.yul\":14693:15059   */\n    tag_183:\n        /* \"#utility.yul\":14835:14838   */\n      0x00\n        /* \"#utility.yul\":14856:14923   */\n      tag_347\n        /* \"#utility.yul\":14920:14922   */\n      0x17\n        /* \"#utility.yul\":14915:14918   */\n      dup4\n        /* \"#utility.yul\":14856:14923   */\n      tag_155\n      jump\t// in\n    tag_347:\n        /* \"#utility.yul\":14849:14923   */\n      swap2\n      pop\n        /* \"#utility.yul\":14932:15025   */\n      tag_348\n        /* \"#utility.yul\":15021:15024   */\n      dup3\n        /* \"#utility.yul\":14932:15025   */\n      tag_182\n      jump\t// in\n    tag_348:\n        /* \"#utility.yul\":15050:15052   */\n      0x20\n        /* \"#utility.yul\":15045:15048   */\n      dup3\n        /* \"#utility.yul\":15041:15053   */\n      add\n        /* \"#utility.yul\":15034:15053   */\n      swap1\n      pop\n        /* \"#utility.yul\":14693:15059   */\n      swap2\n      swap1\n      pop\n      jump\t// out\n        /* \"#utility.yul\":15065:15484   */\n    tag_89:\n        /* \"#utility.yul\":15231:15235   */\n      0x00\n        /* \"#utility.yul\":15269:15271   */\n      0x20\n        /* \"#utility.yul\":15258:15267   */\n      dup3\n        /* \"#utility.yul\":15254:15272   */\n      add\n        /* \"#utility.yul\":15246:15272   */\n      swap1\n      pop\n        /* \"#utility.yul\":15318:15327   */\n      dup2\n        /* \"#utility.yul\":15312:15316   */\n      dup2\n        /* \"#utility.yul\":15308:15328   */\n      sub\n        /* \"#utility.yul\":15304:15305   */\n      0x00\n        /* \"#utility.yul\":15293:15302   */\n      dup4\n        /* \"#utility.yul\":15289:15306   */\n      add\n        /* \"#utility.yul\":15282:15329   */\n      mstore\n        /* \"#utility.yul\":15346:15477   */\n      tag_350\n        /* \"#utility.yul\":15472:15476   */\n      dup2\n        /* \"#utility.yul\":15346:15477   */\n      tag_183\n      jump\t// in\n    tag_350:\n        /* \"#utility.yul\":15338:15477   */\n      swap1\n      pop\n        /* \"#utility.yul\":15065:15484   */\n      swap2\n      swap1\n      pop\n      jump\t// out\n        /* \"#utility.yul\":15490:15654   */\n    tag_184:\n        /* \"#utility.yul\":15630:15646   */\n      0x747765657420746f6f206c6f6e67000000000000000000000000000000000000\n        /* \"#utility.yul\":15626:15627   */\n      0x00\n        /* \"#utility.yul\":15618:15624   */\n      dup3\n        /* \"#utility.yul\":15614:15628   */\n      add\n        /* \"#utility.yul\":15607:15647   */\n      mstore\n        /* \"#utility.yul\":15490:15654   */\n      pop\n      jump\t// out\n        /* \"#utility.yul\":15660:16026   */\n    tag_185:\n        /* \"#utility.yul\":15802:15805   */\n      0x00\n        /* \"#utility.yul\":15823:15890   */\n      tag_353\n        /* \"#utility.yul\":15887:15889   */\n      0x0e\n        /* \"#utility.yul\":15882:15885   */\n      dup4\n        /* \"#utility.yul\":15823:15890   */\n      tag_155\n      jump\t// in\n    tag_353:\n        /* \"#utility.yul\":15816:15890   */\n      swap2\n      pop\n        /* \"#utility.yul\":15899:15992   */\n      tag_354\n        /* \"#utility.yul\":15988:15991   */\n      dup3\n        /* \"#utility.yul\":15899:15992   */\n      tag_184\n      jump\t// in\n    tag_354:\n        /* \"#utility.yul\":16017:16019   */\n      0x20\n        /* \"#utility.yul\":16012:16015   */\n      dup3\n        /* \"#utility.yul\":16008:16020   */\n      add\n        /* \"#utility.yul\":16001:16020   */\n      swap1\n      pop\n        /* \"#utility.yul\":15660:16026   */\n      swap2\n      swap1\n      pop\n      jump\t// out\n        /* \"#utility.yul\":16032:16451   */\n    tag_92:\n        /* \"#utility.yul\":16198:16202   */\n      0x00\n        /* \"#utility.yul\":16236:16238   */\n      0x20\n        /* \"#utility.yul\":16225:16234   */\n      dup3\n        /* \"#utility.yul\":16221:16239   */\n      add\n        /* \"#utility.yul\":16213:16239   */\n      swap1\n      pop\n        /* \"#utility.yul\":16285:16294   */\n      dup2\n        /* \"#utility.yul\":16279:16283   */\n      dup2\n        /* \"#utility.yul\":16275:16295   */\n      sub\n        /* \"#utility.yul\":16271:16272   */\n      0x00\n        /* \"#utility.yul\":16260:16269   */\n      dup4\n        /* \"#utility.yul\":16256:16273   */\n      add\n        /* \"#utility.yul\":16249:16296   */\n      mstore\n        /* \"#utility.yul\":16313:16444   */\n      tag_356\n        /* \"#utility.yul\":16439:16443   */\n      dup2\n        /* \"#utility.yul\":16313:16444   */\n      tag_185\n      jump\t// in\n    tag_356:\n        /* \"#utility.yul\":16305:16444   */\n      swap1\n      pop\n        /* \"#utility.yul\":16032:16451   */\n      swap2\n      swap1\n      pop\n      jump\t// out\n        /* \"#utility.yul\":16457:16598   */\n    tag_186:\n        /* \"#utility.yul\":16506:16510   */\n      0x00\n        /* \"#utility.yul\":16529:16532   */\n      dup2\n        /* \"#utility.yul\":16521:16532   */\n      swap1\n      pop\n        /* \"#utility.yul\":16552:16555   */\n      dup2\n        /* \"#utility.yul\":16549:16550   */\n      0x00\n        /* \"#utility.yul\":16542:16556   */\n      mstore\n        /* \"#utility.yul\":16586:16590   */\n      0x20\n        /* \"#utility.yul\":16583:16584   */\n      0x00\n        /* \"#utility.yul\":16573:16591   */\n      keccak256\n        /* \"#utility.yul\":16565:16591   */\n      swap1\n      pop\n        /* \"#utility.yul\":16457:16598   */\n      swap2\n      swap1\n      pop\n      jump\t// out\n        /* \"#utility.yul\":16604:16697   */\n    tag_187:\n        /* \"#utility.yul\":16641:16647   */\n      0x00\n        /* \"#utility.yul\":16688:16690   */\n      0x20\n        /* \"#utility.yul\":16683:16685   */\n      0x1f\n        /* \"#utility.yul\":16676:16681   */\n      dup4\n        /* \"#utility.yul\":16672:16686   */\n      add\n        /* \"#utility.yul\":16668:16691   */\n      div\n        /* \"#utility.yul\":16658:16691   */\n      swap1\n      pop\n        /* \"#utility.yul\":16604:16697   */\n      swap2\n      swap1\n      pop\n      jump\t// out\n        /* \"#utility.yul\":16703:16810   */\n    tag_188:\n        /* \"#utility.yul\":16747:16755   */\n      0x00\n        /* \"#utility.yul\":16797:16802   */\n      dup3\n        /* \"#utility.yul\":16791:16795   */\n      dup3\n        /* \"#utility.yul\":16787:16803   */\n      shl\n        /* \"#utility.yul\":16766:16803   */\n      swap1\n      pop\n        /* \"#utility.yul\":16703:16810   */\n      swap3\n      swap2\n      pop\n      pop\n      jump\t// out\n        /* \"#utility.yul\":16816:17209   */\n    tag_189:\n        /* \"#utility.yul\":16885:16891   */\n      0x00\n        /* \"#utility.yul\":16935:16936   */\n      0x08\n        /* \"#utility.yul\":16923:16933   */\n      dup4\n        /* \"#utility.yul\":16919:16937   */\n      mul\n        /* \"#utility.yul\":16958:17055   */\n      tag_361\n        /* \"#utility.yul\":16988:17054   */\n      0xffffffffffffffffffffffffffffffffffffffffffffffffffffffffffffffff\n        /* \"#utility.yul\":16977:16986   */\n      dup3\n        /* \"#utility.yul\":16958:17055   */\n      tag_188\n      jump\t// in\n    tag_361:\n        /* \"#utility.yul\":17076:17115   */\n      tag_362\n        /* \"#utility.yul\":17106:17114   */\n      dup7\n        /* \"#utility.yul\":17095:17104   */\n      dup4\n        /* \"#utility.yul\":17076:17115   */\n      tag_188\n      jump\t// in\n    tag_362:\n        /* \"#utility.yul\":17064:17115   */\n      swap6\n      pop\n        /* \"#utility.yul\":17148:17152   */\n      dup1\n        /* \"#utility.yul\":17144:17153   */\n      not\n        /* \"#utility.yul\":17137:17142   */\n      dup5\n        /* \"#utility.yul\":17133:17154   */\n      and\n        /* \"#utility.yul\":17124:17154   */\n      swap4\n      pop\n        /* \"#utility.yul\":17197:17201   */\n      dup1\n        /* \"#utility.yul\":17187:17195   */\n      dup7\n        /* \"#utility.yul\":17183:17202   */\n      and\n        /* \"#utility.yul\":17176:17181   */\n      dup5\n        /* \"#utility.yul\":17173:17203   */\n      or\n        /* \"#utility.yul\":17163:17203   */\n      swap3\n      pop\n        /* \"#utility.yul\":16892:17209   */\n      pop\n      pop\n        /* \"#utility.yul\":16816:17209   */\n      swap4\n      swap3\n      pop\n      pop\n      pop\n      jump\t// out\n        /* \"#utility.yul\":17215:17275   */\n    tag_190:\n        /* \"#utility.yul\":17243:17246   */\n      0x00\n        /* \"#utility.yul\":17264:17269   */\n      dup2\n        /* \"#utility.yul\":17257:17269   */\n      swap1\n      pop\n        /* \"#utility.yul\":17215:17275   */\n      swap2\n      swap1\n      pop\n      jump\t// out\n        /* \"#utility.yul\":17281:17423   */\n    tag_191:\n        /* \"#utility.yul\":17331:17340   */\n      0x00\n        /* \"#utility.yul\":17364:17417   */\n      tag_365\n        /* \"#utility.yul\":17382:17416   */\n      tag_366\n        /* \"#utility.yul\":17391:17415   */\n      tag_367\n        /* \"#utility.yul\":17409:17414   */\n      dup5\n        /* \"#utility.yul\":17391:17415   */\n      tag_150\n      jump\t// in\n    tag_367:\n        /* \"#utility.yul\":17382:17416   */\n      tag_190\n      jump\t// in\n    tag_366:\n        /* \"#utility.yul\":17364:17417   */\n      tag_150\n      jump\t// in\n    tag_365:\n        /* \"#utility.yul\":17351:17417   */\n      swap1\n      pop\n        /* \"#utility.yul\":17281:17423   */\n      swap2\n      swap1\n      pop\n      jump\t// out\n        /* \"#utility.yul\":17429:17504   */\n    tag_192:\n        /* \"#utility.yul\":17472:17475   */\n      0x00\n        /* \"#utility.yul\":17493:17498   */\n      dup2\n        /* \"#utility.yul\":17486:17498   */\n      swap1\n      pop\n        /* \"#utility.yul\":17429:17504   */\n      swap2\n      swap1\n      pop\n      jump\t// out\n        /* \"#utility.yul\":17510:17779   */\n    tag_193:\n        /* \"#utility.yul\":17620:17659   */\n      tag_370\n        /* \"#utility.yul\":17651:17658   */\n      dup4\n        /* \"#utility.yul\":17620:17659   */\n      tag_191\n      jump\t// in\n    tag_370:\n        /* \"#utility.yul\":17681:17772   */\n      tag_371\n        /* \"#utility.yul\":17730:17771   */\n      tag_372\n        /* \"#utility.yul\":17754:17770   */\n      dup3\n        /* \"#utility.yul\":17730:17771   */\n      tag_192\n      jump\t// in\n    tag_372:\n        /* \"#utility.yul\":17722:17728   */\n      dup5\n        /* \"#utility.yul\":17715:17719   */\n      dup5\n        /* \"#utility.yul\":17709:17720   */\n      sload\n        /* \"#utility.yul\":17681:17772   */\n      tag_189\n      jump\t// in\n    tag_371:\n        /* \"#utility.yul\":17675:17679   */\n      dup3\n        /* \"#utility.yul\":17668:17773   */\n      sstore\n        /* \"#utility.yul\":17586:17779   */\n      pop\n        /* \"#utility.yul\":17510:17779   */\n      pop\n      pop\n      pop\n      jump\t// out\n        /* \"#utility.yul\":17785:17858   */\n    tag_194:\n        /* \"#utility.yul\":17830:17833   */\n      0x00\n        /* \"#utility.yul\":17851:17852   */\n      0x00\n        /* \"#utility.yul\":17844:17852   */\n      swap1\n      pop\n        /* \"#utility.yul\":17785:17858   */\n      swap1\n      jump\t// out\n        /* \"#utility.yul\":17864:18053   */\n    tag_195:\n        /* \"#utility.yul\":17941:17973   */\n      tag_375\n      tag_194\n      jump\t// in\n    tag_375:\n        /* \"#utility.yul\":17982:18047   */\n      tag_376\n        /* \"#utility.yul\":18040:18046   */\n      dup2\n        /* \"#utility.yul\":18032:18038   */\n      dup5\n        /* \"#utility.yul\":18026:18030   */\n      dup5\n        /* \"#utility.yul\":17982:18047   */\n      tag_193\n      jump\t// in\n    tag_376:\n        /* \"#utility.yul\":17917:18053   */\n      pop\n        /* \"#utility.yul\":17864:18053   */\n      pop\n      pop\n      jump\t// out\n        /* \"#utility.yul\":18059:18245   */\n    tag_196:\n        /* \"#utility.yul\":18119:18239   */\n    tag_378:\n        /* \"#utility.yul\":18136:18139   */\n      dup2\n        /* \"#utility.yul\":18129:18134   */\n      dup2\n        /* \"#utility.yul\":18126:18140   */\n      lt\n        /* \"#utility.yul\":18119:18239   */\n      iszero\n      tag_380\n      jumpi\n        /* \"#utility.yul\":18190:18229   */\n      tag_381\n        /* \"#utility.yul\":18227:18228   */\n      0x00\n        /* \"#utility.yul\":18220:18225   */\n      dup3\n        /* \"#utility.yul\":18190:18229   */\n      tag_195\n      jump\t// in\n    tag_381:\n        /* \"#utility.yul\":18163:18164   */\n      0x01\n        /* \"#utility.yul\":18156:18161   */\n      dup2\n        /* \"#utility.yul\":18152:18165   */\n      add\n        /* \"#utility.yul\":18143:18165   */\n      swap1\n      pop\n        /* \"#utility.yul\":18119:18239   */\n      jump(tag_378)\n    tag_380:\n        /* \"#utility.yul\":18059:18245   */\n      pop\n      pop\n      jump\t// out\n        /* \"#utility.yul\":18251:18794   */\n    tag_197:\n        /* \"#utility.yul\":18352:18354   */\n      0x1f\n        /* \"#utility.yul\":18347:18350   */\n      dup3\n        /* \"#utility.yul\":18344:18355   */\n      gt\n        /* \"#utility.yul\":18341:18787   */\n      iszero\n      tag_383\n      jumpi\n        /* \"#utility.yul\":18386:18424   */\n      tag_384\n        /* \"#utility.yul\":18418:18423   */\n      dup2\n        /* \"#utility.yul\":18386:18424   */\n      tag_186\n      jump\t// in\n    tag_384:\n        /* \"#utility.yul\":18470:18499   */\n      tag_385\n        /* \"#utility.yul\":18488:18498   */\n      dup5\n        /* \"#utility.yul\":18470:18499   */\n      tag_187\n      jump\t// in\n    tag_385:\n        /* \"#utility.yul\":18460:18468   */\n      dup2\n        /* \"#utility.yul\":18456:18500   */\n      add\n        /* \"#utility.yul\":18653:18655   */\n      0x20\n        /* \"#utility.yul\":18641:18651   */\n      dup6\n        /* \"#utility.yul\":18638:18656   */\n      lt\n        /* \"#utility.yul\":18635:18684   */\n      iszero\n      tag_386\n      jumpi\n        /* \"#utility.yul\":18674:18682   */\n      dup2\n        /* \"#utility.yul\":18659:18682   */\n      swap1\n      pop\n        /* \"#utility.yul\":18635:18684   */\n    tag_386:\n        /* \"#utility.yul\":18697:18777   */\n      tag_387\n        /* \"#utility.yul\":18753:18775   */\n      tag_388\n        /* \"#utility.yul\":18771:18774   */\n      dup6\n        /* \"#utility.yul\":18753:18775   */\n      tag_187\n      jump\t// in\n    tag_388:\n        /* \"#utility.yul\":18743:18751   */\n      dup4\n        /* \"#utility.yul\":18739:18776   */\n      add\n        /* \"#utility.yul\":18726:18737   */\n      dup3\n        /* \"#utility.yul\":18697:18777   */\n      tag_196\n      jump\t// in\n    tag_387:\n        /* \"#utility.yul\":18356:18787   */\n      pop\n      pop\n        /* \"#utility.yul\":18341:18787   */\n    tag_383:\n        /* \"#utility.yul\":18251:18794   */\n      pop\n      pop\n      pop\n      jump\t// out\n        /* \"#utility.yul\":18800:18917   */\n    tag_198:\n        /* \"#utility.yul\":18854:18862   */\n      0x00\n        /* \"#utility.yul\":18904:18909   */\n      dup3\n        /* \"#utility.yul\":18898:18902   */\n      dup3\n        /* \"#utility.yul\":18894:18910   */\n      shr\n        /* \"#utility.yul\":18873:18910   */\n      swap1\n      pop\n        /* \"#utility.yul\":18800:18917   */\n      swap3\n      swap2\n      pop\n      pop\n      jump\t// out\n        /* \"#utility.yul\":18923:19092   */\n    tag_199:\n        /* \"#utility.yul\":18967:18973   */\n      0x00\n        /* \"#utility.yul\":19000:19051   */\n      tag_391\n        /* \"#utility.yul\":19048:19049   */\n      0x00\n        /* \"#utility.yul\":19044:19050   */\n      not\n        /* \"#utility.yul\":19036:19041   */\n      dup5\n        /* \"#utility.yul\":19033:19034   */\n      0x08\n        /* \"#utility.yul\":19029:19042   */\n      mul\n        /* \"#utility.yul\":19000:19051   */\n      tag_198\n      jump\t// in\n    tag_391:\n        /* \"#utility.yul\":18996:19052   */\n      not\n        /* \"#utility.yul\":19081:19085   */\n      dup1\n        /* \"#utility.yul\":19075:19079   */\n      dup4\n        /* \"#utility.yul\":19071:19086   */\n      and\n        /* \"#utility.yul\":19061:19086   */\n      swap2\n      pop\n        /* \"#utility.yul\":18974:19092   */\n      pop\n        /* \"#utility.yul\":18923:19092   */\n      swap3\n      swap2\n      pop\n      pop\n      jump\t// out\n        /* \"#utility.yul\":19097:19392   */\n    tag_200:\n        /* \"#utility.yul\":19173:19177   */\n      0x00\n        /* \"#utility.yul\":19319:19348   */\n      tag_393\n        /* \"#utility.yul\":19344:19347   */\n      dup4\n        /* \"#utility.yul\":19338:19342   */\n      dup4\n        /* \"#utility.yul\":19319:19348   */\n      tag_199\n      jump\t// in\n    tag_393:\n        /* \"#utility.yul\":19311:19348   */\n      swap2\n      pop\n        /* \"#utility.yul\":19381:19384   */\n      dup3\n        /* \"#utility.yul\":19378:19379   */\n      0x02\n        /* \"#utility.yul\":19374:19385   */\n      mul\n        /* \"#utility.yul\":19368:19372   */\n      dup3\n        /* \"#utility.yul\":19365:19386   */\n      or\n        /* \"#utility.yul\":19357:19386   */\n      swap1\n      pop\n        /* \"#utility.yul\":19097:19392   */\n      swap3\n      swap2\n      pop\n      pop\n      jump\t// out\n        /* \"#utility.yul\":19397:20792   */\n    tag_95:\n        /* \"#utility.yul\":19514:19551   */\n      tag_395\n        /* \"#utility.yul\":19547:19550   */\n      dup3\n        /* \"#utility.yul\":19514:19551   */\n      tag_154\n      jump\t// in\n    tag_395:\n        /* \"#utility.yul\":19616:19634   */\n      0xffffffffffffffff\n        /* \"#utility.yul\":19608:19614   */\n      dup2\n        /* \"#utility.yul\":19605:19635   */\n      gt\n        /* \"#utility.yul\":19602:19658   */\n      iszero\n      tag_396\n      jumpi\n        /* \"#utility.yul\":19638:19656   */\n      tag_397\n      tag_174\n      jump\t// in\n    tag_397:\n        /* \"#utility.yul\":19602:19658   */\n    tag_396:\n        /* \"#utility.yul\":19682:19720   */\n      tag_398\n        /* \"#utility.yul\":19714:19718   */\n      dup3\n        /* \"#utility.yul\":19708:19719   */\n      sload\n        /* \"#utility.yul\":19682:19720   */\n      tag_60\n      jump\t// in\n    tag_398:\n        /* \"#utility.yul\":19767:19834   */\n      tag_399\n        /* \"#utility.yul\":19827:19833   */\n      dup3\n        /* \"#utility.yul\":19819:19825   */\n      dup3\n        /* \"#utility.yul\":19813:19817   */\n      dup6\n        /* \"#utility.yul\":19767:19834   */\n      tag_197\n      jump\t// in\n    tag_399:\n        /* \"#utility.yul\":19861:19862   */\n      0x00\n        /* \"#utility.yul\":19885:19889   */\n      0x20\n        /* \"#utility.yul\":19872:19889   */\n      swap1\n      pop\n        /* \"#utility.yul\":19917:19919   */\n      0x1f\n        /* \"#utility.yul\":19909:19915   */\n      dup4\n        /* \"#utility.yul\":19906:19920   */\n      gt\n        /* \"#utility.yul\":19934:19935   */\n      0x01\n        /* \"#utility.yul\":19929:20547   */\n      dup2\n      eq\n      tag_401\n      jumpi\n        /* \"#utility.yul\":20591:20592   */\n      0x00\n        /* \"#utility.yul\":20608:20614   */\n      dup5\n        /* \"#utility.yul\":20605:20682   */\n      iszero\n      tag_402\n      jumpi\n        /* \"#utility.yul\":20657:20666   */\n      dup3\n        /* \"#utility.yul\":20652:20655   */\n      dup8\n        /* \"#utility.yul\":20648:20667   */\n      add\n        /* \"#utility.yul\":20642:20668   */\n      mload\n        /* \"#utility.yul\":20633:20668   */\n      swap1\n      pop\n        /* \"#utility.yul\":20605:20682   */\n    tag_402:\n        /* \"#utility.yul\":20708:20775   */\n      tag_403\n        /* \"#utility.yul\":20768:20774   */\n      dup6\n        /* \"#utility.yul\":20761:20766   */\n      dup3\n        /* \"#utility.yul\":20708:20775   */\n      tag_200\n      jump\t// in\n    tag_403:\n        /* \"#utility.yul\":20702:20706   */\n      dup7\n        /* \"#utility.yul\":20695:20776   */\n      sstore\n        /* \"#utility.yul\":20564:20786   */\n      pop\n        /* \"#utility.yul\":19899:20786   */\n      jump(tag_400)\n        /* \"#utility.yul\":19929:20547   */\n    tag_401:\n        /* \"#utility.yul\":19981:19985   */\n      0x1f\n        /* \"#utility.yul\":19977:19986   */\n      not\n        /* \"#utility.yul\":19969:19975   */\n      dup5\n        /* \"#utility.yul\":19965:19987   */\n      and\n        /* \"#utility.yul\":20015:20052   */\n      tag_404\n        /* \"#utility.yul\":20047:20051   */\n      dup7\n        /* \"#utility.yul\":20015:20052   */\n      tag_186\n      jump\t// in\n    tag_404:\n        /* \"#utility.yul\":20074:20075   */\n      0x00\n        /* \"#utility.yul\":20088:20296   */\n    tag_405:\n        /* \"#utility.yul\":20102:20109   */\n      dup3\n        /* \"#utility.yul\":20099:20100   */\n      dup2\n        /* \"#utility.yul\":20096:20110   */\n      lt\n        /* \"#utility.yul\":20088:20296   */\n      iszero\n      tag_407\n      jumpi\n        /* \"#utility.yul\":20181:20190   */\n      dup5\n        /* \"#utility.yul\":20176:20179   */\n      dup10\n        /* \"#utility.yul\":20172:20191   */\n      add\n        /* \"#utility.yul\":20166:20192   */\n      mload\n        /* \"#utility.yul\":20158:20164   */\n      dup3\n        /* \"#utility.yul\":20151:20193   */\n      sstore\n        /* \"#utility.yul\":20232:20233   */\n      0x01\n        /* \"#utility.yul\":20224:20230   */\n      dup3\n        /* \"#utility.yul\":20220:20234   */\n      add\n        /* \"#utility.yul\":20210:20234   */\n      swap2\n      pop\n        /* \"#utility.yul\":20279:20281   */\n      0x20\n        /* \"#utility.yul\":20268:20277   */\n      dup6\n        /* \"#utility.yul\":20264:20282   */\n      add\n        /* \"#utility.yul\":20251:20282   */\n      swap5\n      pop\n        /* \"#utility.yul\":20125:20129   */\n      0x20\n        /* \"#utility.yul\":20122:20123   */\n      dup2\n        /* \"#utility.yul\":20118:20130   */\n      add\n        /* \"#utility.yul\":20113:20130   */\n      swap1\n      pop\n        /* \"#utility.yul\":20088:20296   */\n      jump(tag_405)\n    tag_407:\n        /* \"#utility.yul\":20324:20330   */\n      dup7\n        /* \"#utility.yul\":20315:20322   */\n      dup4\n        /* \"#utility.yul\":20312:20331   */\n      lt\n        /* \"#utility.yul\":20309:20488   */\n      iszero\n      tag_408\n      jumpi\n        /* \"#utility.yul\":20382:20391   */\n      dup5\n        /* \"#utility.yul\":20377:20380   */\n      dup10\n        /* \"#utility.yul\":20373:20392   */\n      add\n        /* \"#utility.yul\":20367:20393   */\n      mload\n        /* \"#utility.yul\":20425:20473   */\n      tag_409\n        /* \"#utility.yul\":20467:20471   */\n      0x1f\n        /* \"#utility.yul\":20459:20465   */\n      dup10\n        /* \"#utility.yul\":20455:20472   */\n      and\n        /* \"#utility.yul\":20444:20453   */\n      dup3\n        /* \"#utility.yul\":20425:20473   */\n      tag_199\n      jump\t// in\n    tag_409:\n        /* \"#utility.yul\":20417:20423   */\n      dup4\n        /* \"#utility.yul\":20410:20474   */\n      sstore\n        /* \"#utility.yul\":20332:20488   */\n      pop\n        /* \"#utility.yul\":20309:20488   */\n    tag_408:\n        /* \"#utility.yul\":20534:20535   */\n      0x01\n        /* \"#utility.yul\":20530:20531   */\n      0x02\n        /* \"#utility.yul\":20522:20528   */\n      dup9\n        /* \"#utility.yul\":20518:20532   */\n      mul\n        /* \"#utility.yul\":20514:20536   */\n      add\n        /* \"#utility.yul\":20508:20512   */\n      dup9\n        /* \"#utility.yul\":20501:20537   */\n      sstore\n        /* \"#utility.yul\":19936:20547   */\n      pop\n      pop\n      pop\n        /* \"#utility.yul\":19899:20786   */\n    tag_400:\n      pop\n        /* \"#utility.yul\":19489:20792   */\n      pop\n      pop\n      pop\n        /* \"#utility.yul\":19397:20792   */\n      pop\n      pop\n      jump\t// out\n        /* \"#utility.yul\":20798:21442   */\n    tag_97:\n        /* \"#utility.yul\":20995:20999   */\n      0x00\n        /* \"#utility.yul\":21033:21036   */\n      0x80\n        /* \"#utility.yul\":21022:21031   */\n      dup3\n        /* \"#utility.yul\":21018:21037   */\n      add\n        /* \"#utility.yul\":21010:21037   */\n      swap1\n      pop\n        /* \"#utility.yul\":21047:21118   */\n      tag_411\n        /* \"#utility.yul\":21115:21116   */\n      0x00\n        /* \"#utility.yul\":21104:21113   */\n      dup4\n        /* \"#utility.yul\":21100:21117   */\n      add\n        /* \"#utility.yul\":21091:21097   */\n      dup8\n        /* \"#utility.yul\":21047:21118   */\n      tag_159\n      jump\t// in\n    tag_411:\n        /* \"#utility.yul\":21128:21200   */\n      tag_412\n        /* \"#utility.yul\":21196:21198   */\n      0x20\n        /* \"#utility.yul\":21185:21194   */\n      dup4\n        /* \"#utility.yul\":21181:21199   */\n      add\n        /* \"#utility.yul\":21172:21178   */\n      dup7\n        /* \"#utility.yul\":21128:21200   */\n      tag_153\n      jump\t// in\n    tag_412:\n        /* \"#utility.yul\":21247:21256   */\n      dup2\n        /* \"#utility.yul\":21241:21245   */\n      dup2\n        /* \"#utility.yul\":21237:21257   */\n      sub\n        /* \"#utility.yul\":21232:21234   */\n      0x40\n        /* \"#utility.yul\":21221:21230   */\n      dup4\n        /* \"#utility.yul\":21217:21235   */\n      add\n        /* \"#utility.yul\":21210:21258   */\n      mstore\n        /* \"#utility.yul\":21275:21353   */\n      tag_413\n        /* \"#utility.yul\":21348:21352   */\n      dup2\n        /* \"#utility.yul\":21339:21345   */\n      dup6\n        /* \"#utility.yul\":21275:21353   */\n      tag_158\n      jump\t// in\n    tag_413:\n        /* \"#utility.yul\":21267:21353   */\n      swap1\n      pop\n        /* \"#utility.yul\":21363:21435   */\n      tag_414\n        /* \"#utility.yul\":21431:21433   */\n      0x60\n        /* \"#utility.yul\":21420:21429   */\n      dup4\n        /* \"#utility.yul\":21416:21434   */\n      add\n        /* \"#utility.yul\":21407:21413   */\n      dup5\n        /* \"#utility.yul\":21363:21435   */\n      tag_159\n      jump\t// in\n    tag_414:\n        /* \"#utility.yul\":20798:21442   */\n      swap6\n      swap5\n      pop\n      pop\n      pop\n      pop\n      pop\n      jump\t// out\n        /* \"#utility.yul\":21448:21673   */\n    tag_201:\n        /* \"#utility.yul\":21588:21622   */\n      0x6f6e6c7920746865206f776e65722063616e20706572666f726d207468697320\n        /* \"#utility.yul\":21584:21585   */\n      0x00\n        /* \"#utility.yul\":21576:21582   */\n      dup3\n        /* \"#utility.yul\":21572:21586   */\n      add\n        /* \"#utility.yul\":21565:21623   */\n      mstore\n        /* \"#utility.yul\":21657:21665   */\n      0x616374696f6e0000000000000000000000000000000000000000000000000000\n        /* \"#utility.yul\":21652:21654   */\n      0x20\n        /* \"#utility.yul\":21644:21650   */\n      dup3\n        /* \"#utility.yul\":21640:21655   */\n      add\n        /* \"#utility.yul\":21633:21666   */\n      mstore\n        /* \"#utility.yul\":21448:21673   */\n      pop\n      jump\t// out\n        /* \"#utility.yul\":21679:22045   */\n    tag_202:\n        /* \"#utility.yul\":21821:21824   */\n      0x00\n        /* \"#utility.yul\":21842:21909   */\n      tag_417\n        /* \"#utility.yul\":21906:21908   */\n      0x26\n        /* \"#utility.yul\":21901:21904   */\n      dup4\n        /* \"#utility.yul\":21842:21909   */\n      tag_155\n      jump\t// in\n    tag_417:\n        /* \"#utility.yul\":21835:21909   */\n      swap2\n      pop\n        /* \"#utility.yul\":21918:22011   */\n      tag_418\n        /* \"#utility.yul\":22007:22010   */\n      dup3\n        /* \"#utility.yul\":21918:22011   */\n      tag_201\n      jump\t// in\n    tag_418:\n        /* \"#utility.yul\":22036:22038   */\n      0x40\n        /* \"#utility.yul\":22031:22034   */\n      dup3\n        /* \"#utility.yul\":22027:22039   */\n      add\n        /* \"#utility.yul\":22020:22039   */\n      swap1\n      pop\n        /* \"#utility.yul\":21679:22045   */\n      swap2\n      swap1\n      pop\n      jump\t// out\n        /* \"#utility.yul\":22051:22470   */\n    tag_101:\n        /* \"#utility.yul\":22217:22221   */\n      0x00\n        /* \"#utility.yul\":22255:22257   */\n      0x20\n        /* \"#utility.yul\":22244:22253   */\n      dup3\n        /* \"#utility.yul\":22240:22258   */\n      add\n        /* \"#utility.yul\":22232:22258   */\n      swap1\n      pop\n        /* \"#utility.yul\":22304:22313   */\n      dup2\n        /* \"#utility.yul\":22298:22302   */\n      dup2\n        /* \"#utility.yul\":22294:22314   */\n      sub\n        /* \"#utility.yul\":22290:22291   */\n      0x00\n        /* \"#utility.yul\":22279:22288   */\n      dup4\n        /* \"#utility.yul\":22275:22292   */\n      add\n        /* \"#utility.yul\":22268:22315   */\n      mstore\n        /* \"#utility.yul\":22332:22463   */\n      tag_420\n        /* \"#utility.yul\":22458:22462   */\n      dup2\n        /* \"#utility.yul\":22332:22463   */\n      tag_202\n      jump\t// in\n    tag_420:\n        /* \"#utility.yul\":22324:22463   */\n      swap1\n      pop\n        /* \"#utility.yul\":22051:22470   */\n      swap2\n      swap1\n      pop\n      jump\t// out\n        /* \"#utility.yul\":22476:22646   */\n    tag_203:\n        /* \"#utility.yul\":22616:22638   */\n      0x747765657420646f6573206e6f74206578697374000000000000000000000000\n        /* \"#utility.yul\":22612:22613   */\n      0x00\n        /* \"#utility.yul\":22604:22610   */\n      dup3\n        /* \"#utility.yul\":22600:22614   */\n      add\n        /* \"#utility.yul\":22593:22639   */\n      mstore\n        /* \"#utility.yul\":22476:22646   */\n      pop\n      jump\t// out\n        /* \"#utility.yul\":22652:23018   */\n    tag_204:\n        /* \"#utility.yul\":22794:22797   */\n      0x00\n        /* \"#utility.yul\":22815:22882   */\n      tag_423\n        /* \"#utility.yul\":22879:22881   */\n      0x14\n        /* \"#utility.yul\":22874:22877   */\n      dup4\n        /* \"#utility.yul\":22815:22882   */\n      tag_155\n      jump\t// in\n    tag_423:\n        /* \"#utility.yul\":22808:22882   */\n      swap2\n      pop\n        /* \"#utility.yul\":22891:22984   */\n      tag_424\n        /* \"#utility.yul\":22980:22983   */\n      dup3\n        /* \"#utility.yul\":22891:22984   */\n      tag_203\n      jump\t// in\n    tag_424:\n        /* \"#utility.yul\":23009:23011   */\n      0x20\n        /* \"#utility.yul\":23004:23007   */\n      dup3\n        /* \"#utility.yul\":23000:23012   */\n      add\n        /* \"#utility.yul\":22993:23012   */\n      swap1\n      pop\n        /* \"#utility.yul\":22652:23018   */\n      swap2\n      swap1\n      pop\n      jump\t// out\n        /* \"#utility.yul\":23024:23443   */\n    tag_109:\n        /* \"#utility.yul\":23190:23194   */\n      0x00\n        /* \"#utility.yul\":23228:23230   */\n      0x20\n        /* \"#utility.yul\":23217:23226   */\n      dup3\n        /* \"#utility.yul\":23213:23231   */\n      add\n        /* \"#utility.yul\":23205:23231   */\n      swap1\n      pop\n        /* \"#utility.yul\":23277:23286   */\n      dup2\n        /* \"#utility.yul\":23271:23275   */\n      dup2\n        /* \"#utility.yul\":23267:23287   */\n      sub\n        /* \"#utility.yul\":23263:23264   */\n      0x00\n        /* \"#utility.yul\":23252:23261   */\n      dup4\n        /* \"#utility.yul\":23248:23265   */\n      add\n        /* \"#utility.yul\":23241:23288   */\n      mstore\n        /* \"#utility.yul\":23305:23436   */\n      tag_426\n        /* \"#utility.yul\":23431:23435   */\n      dup2\n        /* \"#utility.yul\":23305:23436   */\n      tag_204\n      jump\t// in\n    tag_426:\n        /* \"#utility.yul\":23297:23436   */\n      swap1\n      pop\n        /* \"#utility.yul\":23024:23443   */\n      swap2\n      swap1\n      pop\n      jump\t// out\n        /* \"#utility.yul\":23449:23628   */\n    tag_205:\n        /* \"#utility.yul\":23589:23620   */\n      0x747765657420646f6573206e6f74206861766520616e79206c696b6573000000\n        /* \"#utility.yul\":23585:23586   */\n      0x00\n        /* \"#utility.yul\":23577:23583   */\n      dup3\n        /* \"#utility.yul\":23573:23587   */\n      add\n        /* \"#utility.yul\":23566:23621   */\n      mstore\n        /* \"#utility.yul\":23449:23628   */\n      pop\n      jump\t// out\n        /* \"#utility.yul\":23634:24000   */\n    tag_206:\n        /* \"#utility.yul\":23776:23779   */\n      0x00\n        /* \"#utility.yul\":23797:23864   */\n      tag_429\n        /* \"#utility.yul\":23861:23863   */\n      0x1d\n        /* \"#utility.yul\":23856:23859   */\n      dup4\n        /* \"#utility.yul\":23797:23864   */\n      tag_155\n      jump\t// in\n    tag_429:\n        /* \"#utility.yul\":23790:23864   */\n      swap2\n      pop\n        /* \"#utility.yul\":23873:23966   */\n      tag_430\n        /* \"#utility.yul\":23962:23965   */\n      dup3\n        /* \"#utility.yul\":23873:23966   */\n      tag_205\n      jump\t// in\n    tag_430:\n        /* \"#utility.yul\":23991:23993   */\n      0x20\n        /* \"#utility.yul\":23986:23989   */\n      dup3\n        /* \"#utility.yul\":23982:23994   */\n      add\n        /* \"#utility.yul\":23975:23994   */\n      swap1\n      pop\n        /* \"#utility.yul\":23634:24000   */\n      swap2\n      swap1\n      pop\n      jump\t// out\n        /* \"#utility.yul\":24006:24425   */\n    tag_115:\n        /* \"#utility.yul\":24172:24176   */\n      0x00\n        /* \"#utility.yul\":24210:24212   */\n      0x20\n        /* \"#utility.yul\":24199:24208   */\n      dup3\n        /* \"#utility.yul\":24195:24213   */\n      add\n        /* \"#utility.yul\":24187:24213   */\n      swap1\n      pop\n        /* \"#utility.yul\":24259:24268   */\n      dup2\n        /* \"#utility.yul\":24253:24257   */\n      dup2\n        /* \"#utility.yul\":24249:24269   */\n      sub\n        /* \"#utility.yul\":24245:24246   */\n      0x00\n        /* \"#utility.yul\":24234:24243   */\n      dup4\n        /* \"#utility.yul\":24230:24247   */\n      add\n        /* \"#utility.yul\":24223:24270   */\n      mstore\n        /* \"#utility.yul\":24287:24418   */\n      tag_432\n        /* \"#utility.yul\":24413:24417   */\n      dup2\n        /* \"#utility.yul\":24287:24418   */\n      tag_206\n      jump\t// in\n    tag_432:\n        /* \"#utility.yul\":24279:24418   */\n      swap1\n      pop\n        /* \"#utility.yul\":24006:24425   */\n      swap2\n      swap1\n      pop\n      jump\t// out\n        /* \"#utility.yul\":24431:24611   */\n    tag_207:\n        /* \"#utility.yul\":24479:24556   */\n      0x4e487b7100000000000000000000000000000000000000000000000000000000\n        /* \"#utility.yul\":24476:24477   */\n      0x00\n        /* \"#utility.yul\":24469:24557   */\n      mstore\n        /* \"#utility.yul\":24576:24580   */\n      0x11\n        /* \"#utility.yul\":24573:24574   */\n      0x04\n        /* \"#utility.yul\":24566:24581   */\n      mstore\n        /* \"#utility.yul\":24600:24604   */\n      0x24\n        /* \"#utility.yul\":24597:24598   */\n      0x00\n        /* \"#utility.yul\":24590:24605   */\n      revert\n        /* \"#utility.yul\":24617:24788   */\n    tag_120:\n        /* \"#utility.yul\":24656:24659   */\n      0x00\n        /* \"#utility.yul\":24679:24703   */\n      tag_435\n        /* \"#utility.yul\":24697:24702   */\n      dup3\n        /* \"#utility.yul\":24679:24703   */\n      tag_150\n      jump\t// in\n    tag_435:\n        /* \"#utility.yul\":24670:24703   */\n      swap2\n      pop\n        /* \"#utility.yul\":24725:24729   */\n      0x00\n        /* \"#utility.yul\":24718:24723   */\n      dup3\n        /* \"#utility.yul\":24715:24730   */\n      sub\n        /* \"#utility.yul\":24712:24753   */\n      tag_436\n      jumpi\n        /* \"#utility.yul\":24733:24751   */\n      tag_437\n      tag_207\n      jump\t// in\n    tag_437:\n        /* \"#utility.yul\":24712:24753   */\n    tag_436:\n        /* \"#utility.yul\":24780:24781   */\n      0x01\n        /* \"#utility.yul\":24773:24778   */\n      dup3\n        /* \"#utility.yul\":24769:24782   */\n      sub\n        /* \"#utility.yul\":24762:24782   */\n      swap1\n      pop\n        /* \"#utility.yul\":24617:24788   */\n      swap2\n      swap1\n      pop\n      jump\t// out\n        /* \"#utility.yul\":24794:25347   */\n    tag_125:\n        /* \"#utility.yul\":24971:24975   */\n      0x00\n        /* \"#utility.yul\":25009:25012   */\n      0x80\n        /* \"#utility.yul\":24998:25007   */\n      dup3\n        /* \"#utility.yul\":24994:25013   */\n      add\n        /* \"#utility.yul\":24986:25013   */\n      swap1\n      pop\n        /* \"#utility.yul\":25023:25094   */\n      tag_439\n        /* \"#utility.yul\":25091:25092   */\n      0x00\n        /* \"#utility.yul\":25080:25089   */\n      dup4\n        /* \"#utility.yul\":25076:25093   */\n      add\n        /* \"#utility.yul\":25067:25073   */\n      dup8\n        /* \"#utility.yul\":25023:25094   */\n      tag_153\n      jump\t// in\n    tag_439:\n        /* \"#utility.yul\":25104:25176   */\n      tag_440\n        /* \"#utility.yul\":25172:25174   */\n      0x20\n        /* \"#utility.yul\":25161:25170   */\n      dup4\n        /* \"#utility.yul\":25157:25175   */\n      add\n        /* \"#utility.yul\":25148:25154   */\n      dup7\n        /* \"#utility.yul\":25104:25176   */\n      tag_153\n      jump\t// in\n    tag_440:\n        /* \"#utility.yul\":25186:25258   */\n      tag_441\n        /* \"#utility.yul\":25254:25256   */\n      0x40\n        /* \"#utility.yul\":25243:25252   */\n      dup4\n        /* \"#utility.yul\":25239:25257   */\n      add\n        /* \"#utility.yul\":25230:25236   */\n      dup6\n        /* \"#utility.yul\":25186:25258   */\n      tag_159\n      jump\t// in\n    tag_441:\n        /* \"#utility.yul\":25268:25340   */\n      tag_442\n        /* \"#utility.yul\":25336:25338   */\n      0x60\n        /* \"#utility.yul\":25325:25334   */\n      dup4\n        /* \"#utility.yul\":25321:25339   */\n      add\n        /* \"#utility.yul\":25312:25318   */\n      dup5\n        /* \"#utility.yul\":25268:25340   */\n      tag_159\n      jump\t// in\n    tag_442:\n        /* \"#utility.yul\":24794:25347   */\n      swap6\n      swap5\n      pop\n      pop\n      pop\n      pop\n      pop\n      jump\t// out\n        /* \"#utility.yul\":25353:25586   */\n    tag_137:\n        /* \"#utility.yul\":25392:25395   */\n      0x00\n        /* \"#utility.yul\":25415:25439   */\n      tag_444\n        /* \"#utility.yul\":25433:25438   */\n      dup3\n        /* \"#utility.yul\":25415:25439   */\n      tag_150\n      jump\t// in\n    tag_444:\n        /* \"#utility.yul\":25406:25439   */\n      swap2\n      pop\n        /* \"#utility.yul\":25461:25527   */\n      0xffffffffffffffffffffffffffffffffffffffffffffffffffffffffffffffff\n        /* \"#utility.yul\":25454:25459   */\n      dup3\n        /* \"#utility.yul\":25451:25528   */\n      sub\n        /* \"#utility.yul\":25448:25551   */\n      tag_445\n      jumpi\n        /* \"#utility.yul\":25531:25549   */\n      tag_446\n      tag_207\n      jump\t// in\n    tag_446:\n        /* \"#utility.yul\":25448:25551   */\n    tag_445:\n        /* \"#utility.yul\":25578:25579   */\n      0x01\n        /* \"#utility.yul\":25571:25576   */\n      dup3\n        /* \"#utility.yul\":25567:25580   */\n      add\n        /* \"#utility.yul\":25560:25580   */\n      swap1\n      pop\n        /* \"#utility.yul\":25353:25586   */\n      swap2\n      swap1\n      pop\n      jump\t// out\n\n    auxdata: 0xa2646970667358221220678ad2cfa4fc41e18adb8678adaa481002c64a55a4befcfe782cc89bc0c4487564736f6c634300081e0033\n}\n",
				"bytecode": {
					"linkReferences": {},
					"object": "60806040526101185f553480156013575f5ffd5b503360015f6101000a81548173ffffffffffffffffffffffffffffffffffffffff021916908373ffffffffffffffffffffffffffffffffffffffff160217905550611a30806100615f395ff3fe608060405234801561000f575f5ffd5b506004361061009c575f3560e01c80638da5cb5b116100645780638da5cb5b1461016c578063a1488f7c1461018a578063a2afce88146101a6578063d04ddaa0146101c4578063fb0c6bfb146101e05761009c565b806305a1b4a9146100a057806346247363146100d457806361cfc6c7146101045780637c9cd2bc1461013457806385da6f1c14610150575b5f5ffd5b6100ba60048036038101906100b59190610e07565b6101fe565b6040516100cb959493929190610ed3565b60405180910390f35b6100ee60048036038101906100e99190610f2b565b6102ef565b6040516100fb91906110ea565b60405180910390f35b61011e6004803603810190610119919061110a565b61048a565b60405161012b91906111a8565b60405180910390f35b61014e600480360381019061014991906112f4565b610601565b005b61016a6004803603810190610165919061110a565b610837565b005b6101746108cf565b604051610181919061133b565b60405180910390f35b6101a4600480360381019061019f9190611354565b6108f4565b005b6101ae610b46565b6040516101bb9190611392565b60405180910390f35b6101de60048036038101906101d99190611354565b610b4e565b005b6101e8610d00565b6040516101f5919061133b565b60405180910390f35b6002602052815f5260405f208181548110610217575f80fd5b905f5260205f2090600502015f9150915050805f015f9054906101000a900473ffffffffffffffffffffffffffffffffffffffff169080600101805461025c906113d8565b80601f0160208091040260200160405190810160405280929190818152602001828054610288906113d8565b80156102d35780601f106102aa576101008083540402835291602001916102d3565b820191905f5260205f20905b8154815290600101906020018083116102b657829003601f168201915b5050505050908060020154908060030154908060040154905085565b606060025f8373ffffffffffffffffffffffffffffffffffffffff1673ffffffffffffffffffffffffffffffffffffffff1681526020019081526020015f20805480602002602001604051908101604052809291908181526020015f905b8282101561047f578382905f5260205f2090600502016040518060a00160405290815f82015f9054906101000a900473ffffffffffffffffffffffffffffffffffffffff1673ffffffffffffffffffffffffffffffffffffffff1673ffffffffffffffffffffffffffffffffffffffff1681526020016001820180546103d2906113d8565b80601f01602080910402602001604051908101604052809291908181526020018280546103fe906113d8565b80156104495780601f1061042057610100808354040283529160200191610449565b820191905f5260205f20905b81548152906001019060200180831161042c57829003601f168201915b5050505050815260200160028201548152602001600382015481526020016004820154815250508152602001906001019061034d565b505050509050919050565b610492610d28565b60025f3373ffffffffffffffffffffffffffffffffffffffff1673ffffffffffffffffffffffffffffffffffffffff1681526020019081526020015f2082815481106104e1576104e0611408565b5b905f5260205f2090600502016040518060a00160405290815f82015f9054906101000a900473ffffffffffffffffffffffffffffffffffffffff1673ffffffffffffffffffffffffffffffffffffffff1673ffffffffffffffffffffffffffffffffffffffff16815260200160018201805461055c906113d8565b80601f0160208091040260200160405190810160405280929190818152602001828054610588906113d8565b80156105d35780601f106105aa576101008083540402835291602001916105d3565b820191905f5260205f20905b8154815290600101906020018083116105b657829003601f168201915b5050505050815260200160028201548152602001600382015481526020016004820154815250509050919050565b5f815111610644576040517f08c379a000000000000000000000000000000000000000000000000000000000815260040161063b9061147f565b60405180910390fd5b5f5481511115610689576040517f08c379a0000000000000000000000000000000000000000000000000000000008152600401610680906114e7565b60405180910390fd5b5f6040518060a001604052803373ffffffffffffffffffffffffffffffffffffffff1681526020018381526020014281526020015f815260200160025f3373ffffffffffffffffffffffffffffffffffffffff1673ffffffffffffffffffffffffffffffffffffffff1681526020019081526020015f2080549050815250905060025f3373ffffffffffffffffffffffffffffffffffffffff1673ffffffffffffffffffffffffffffffffffffffff1681526020019081526020015f2081908060018154018082558091505060019003905f5260205f2090600502015f909190919091505f820151815f015f6101000a81548173ffffffffffffffffffffffffffffffffffffffff021916908373ffffffffffffffffffffffffffffffffffffffff16021790555060208201518160010190816107c691906116a5565b5060408201518160020155606082015181600301556080820151816004015550507f16fd3c13e9d46923e0a8bce11c7b473ec508a72e6c96cd2404b29ce972afc29e8160800151825f01518360200151846040015160405161082b9493929190611774565b60405180910390a15050565b60015f9054906101000a900473ffffffffffffffffffffffffffffffffffffffff1673ffffffffffffffffffffffffffffffffffffffff163373ffffffffffffffffffffffffffffffffffffffff16146108c6576040517f08c379a00000000000000000000000000000000000000000000000000000000081526004016108bd9061182e565b60405180910390fd5b805f8190555050565b60015f9054906101000a900473ffffffffffffffffffffffffffffffffffffffff1681565b8160025f8373ffffffffffffffffffffffffffffffffffffffff1673ffffffffffffffffffffffffffffffffffffffff1681526020019081526020015f20838154811061094457610943611408565b5b905f5260205f2090600502016004015414610994576040517f08c379a000000000000000000000000000000000000000000000000000000000815260040161098b90611896565b60405180910390fd5b5f60025f8373ffffffffffffffffffffffffffffffffffffffff1673ffffffffffffffffffffffffffffffffffffffff1681526020019081526020015f2083815481106109e4576109e3611408565b5b905f5260205f2090600502016003015411610a34576040517f08c379a0000000000000000000000000000000000000000000000000000000008152600401610a2b906118fe565b60405180910390fd5b60025f8273ffffffffffffffffffffffffffffffffffffffff1673ffffffffffffffffffffffffffffffffffffffff1681526020019081526020015f208281548110610a8357610a82611408565b5b905f5260205f2090600502016003015f815480929190610aa290611949565b91905055507fa364d895015bbd024115082f05215300f6d39b35e8268d0b54a8d1e94641154733828460025f8673ffffffffffffffffffffffffffffffffffffffff1673ffffffffffffffffffffffffffffffffffffffff1681526020019081526020015f208681548110610b1a57610b19611408565b5b905f5260205f20906005020160030154604051610b3a9493929190611970565b60405180910390a15050565b5f5f54905090565b8160025f8373ffffffffffffffffffffffffffffffffffffffff1673ffffffffffffffffffffffffffffffffffffffff1681526020019081526020015f208381548110610b9e57610b9d611408565b5b905f5260205f2090600502016004015414610bee576040517f08c379a0000000000000000000000000000000000000000000000000000000008152600401610be590611896565b60405180910390fd5b60025f8273ffffffffffffffffffffffffffffffffffffffff1673ffffffffffffffffffffffffffffffffffffffff1681526020019081526020015f208281548110610c3d57610c3c611408565b5b905f5260205f2090600502016003015f815480929190610c5c906119b3565b91905055507f9b14b824c633c47786b37f814b120cc2cefc008bb464636c6018897ef97fd71d33828460025f8673ffffffffffffffffffffffffffffffffffffffff1673ffffffffffffffffffffffffffffffffffffffff1681526020019081526020015f208681548110610cd457610cd3611408565b5b905f5260205f20906005020160030154604051610cf49493929190611970565b60405180910390a15050565b5f60015f9054906101000a900473ffffffffffffffffffffffffffffffffffffffff16905090565b6040518060a001604052805f73ffffffffffffffffffffffffffffffffffffffff168152602001606081526020015f81526020015f81526020015f81525090565b5f604051905090565b5f5ffd5b5f5ffd5b5f73ffffffffffffffffffffffffffffffffffffffff82169050919050565b5f610da382610d7a565b9050919050565b610db381610d99565b8114610dbd575f5ffd5b50565b5f81359050610dce81610daa565b92915050565b5f819050919050565b610de681610dd4565b8114610df0575f5ffd5b50565b5f81359050610e0181610ddd565b92915050565b5f5f60408385031215610e1d57610e1c610d72565b5b5f610e2a85828601610dc0565b9250506020610e3b85828601610df3565b9150509250929050565b610e4e81610d99565b82525050565b5f81519050919050565b5f82825260208201905092915050565b8281835e5f83830152505050565b5f601f19601f8301169050919050565b5f610e9682610e54565b610ea08185610e5e565b9350610eb0818560208601610e6e565b610eb981610e7c565b840191505092915050565b610ecd81610dd4565b82525050565b5f60a082019050610ee65f830188610e45565b8181036020830152610ef88187610e8c565b9050610f076040830186610ec4565b610f146060830185610ec4565b610f216080830184610ec4565b9695505050505050565b5f60208284031215610f4057610f3f610d72565b5b5f610f4d84828501610dc0565b91505092915050565b5f81519050919050565b5f82825260208201905092915050565b5f819050602082019050919050565b610f8881610d99565b82525050565b5f82825260208201905092915050565b5f610fa882610e54565b610fb28185610f8e565b9350610fc2818560208601610e6e565b610fcb81610e7c565b840191505092915050565b610fdf81610dd4565b82525050565b5f60a083015f830151610ffa5f860182610f7f565b50602083015184820360208601526110128282610f9e565b91505060408301516110276040860182610fd6565b50606083015161103a6060860182610fd6565b50608083015161104d6080860182610fd6565b508091505092915050565b5f6110638383610fe5565b905092915050565b5f602082019050919050565b5f61108182610f56565b61108b8185610f60565b93508360208202850161109d85610f70565b805f5b858110156110d857848403895281516110b98582611058565b94506110c48361106b565b925060208a019950506001810190506110a0565b50829750879550505050505092915050565b5f6020820190508181035f8301526111028184611077565b905092915050565b5f6020828403121561111f5761111e610d72565b5b5f61112c84828501610df3565b91505092915050565b5f60a083015f83015161114a5f860182610f7f565b50602083015184820360208601526111628282610f9e565b91505060408301516111776040860182610fd6565b50606083015161118a6060860182610fd6565b50608083015161119d6080860182610fd6565b508091505092915050565b5f6020820190508181035f8301526111c08184611135565b905092915050565b5f5ffd5b5f5ffd5b7f4e487b71000000000000000000000000000000000000000000000000000000005f52604160045260245ffd5b61120682610e7c565b810181811067ffffffffffffffff82111715611225576112246111d0565b5b80604052505050565b5f611237610d69565b905061124382826111fd565b919050565b5f67ffffffffffffffff821115611262576112616111d0565b5b61126b82610e7c565b9050602081019050919050565b828183375f83830152505050565b5f61129861129384611248565b61122e565b9050828152602081018484840111156112b4576112b36111cc565b5b6112bf848285611278565b509392505050565b5f82601f8301126112db576112da6111c8565b5b81356112eb848260208601611286565b91505092915050565b5f6020828403121561130957611308610d72565b5b5f82013567ffffffffffffffff81111561132657611325610d76565b5b611332848285016112c7565b91505092915050565b5f60208201905061134e5f830184610e45565b92915050565b5f5f6040838503121561136a57611369610d72565b5b5f61137785828601610df3565b925050602061138885828601610dc0565b9150509250929050565b5f6020820190506113a55f830184610ec4565b92915050565b7f4e487b71000000000000000000000000000000000000000000000000000000005f52602260045260245ffd5b5f60028204905060018216806113ef57607f821691505b602082108103611402576114016113ab565b5b50919050565b7f4e487b71000000000000000000000000000000000000000000000000000000005f52603260045260245ffd5b7f63616e6e6f74207061737320656d7074792074776565740000000000000000005f82015250565b5f611469601783610e5e565b915061147482611435565b602082019050919050565b5f6020820190508181035f8301526114968161145d565b9050919050565b7f747765657420746f6f206c6f6e670000000000000000000000000000000000005f82015250565b5f6114d1600e83610e5e565b91506114dc8261149d565b602082019050919050565b5f6020820190508181035f8301526114fe816114c5565b9050919050565b5f819050815f5260205f209050919050565b5f6020601f8301049050919050565b5f82821b905092915050565b5f600883026115617fffffffffffffffffffffffffffffffffffffffffffffffffffffffffffffffff82611526565b61156b8683611526565b95508019841693508086168417925050509392505050565b5f819050919050565b5f6115a66115a161159c84610dd4565b611583565b610dd4565b9050919050565b5f819050919050565b6115bf8361158c565b6115d36115cb826115ad565b848454611532565b825550505050565b5f5f905090565b6115ea6115db565b6115f58184846115b6565b505050565b5b818110156116185761160d5f826115e2565b6001810190506115fb565b5050565b601f82111561165d5761162e81611505565b61163784611517565b81016020851015611646578190505b61165a61165285611517565b8301826115fa565b50505b505050565b5f82821c905092915050565b5f61167d5f1984600802611662565b1980831691505092915050565b5f611695838361166e565b9150826002028217905092915050565b6116ae82610e54565b67ffffffffffffffff8111156116c7576116c66111d0565b5b6116d182546113d8565b6116dc82828561161c565b5f60209050601f83116001811461170d575f84156116fb578287015190505b611705858261168a565b86555061176c565b601f19841661171b86611505565b5f5b828110156117425784890151825560018201915060208501945060208101905061171d565b8683101561175f578489015161175b601f89168261166e565b8355505b6001600288020188555050505b505050505050565b5f6080820190506117875f830187610ec4565b6117946020830186610e45565b81810360408301526117a68185610e8c565b90506117b56060830184610ec4565b95945050505050565b7f6f6e6c7920746865206f776e65722063616e20706572666f726d2074686973205f8201527f616374696f6e0000000000000000000000000000000000000000000000000000602082015250565b5f611818602683610e5e565b9150611823826117be565b604082019050919050565b5f6020820190508181035f8301526118458161180c565b9050919050565b7f747765657420646f6573206e6f742065786973740000000000000000000000005f82015250565b5f611880601483610e5e565b915061188b8261184c565b602082019050919050565b5f6020820190508181035f8301526118ad81611874565b9050919050565b7f747765657420646f6573206e6f74206861766520616e79206c696b65730000005f82015250565b5f6118e8601d83610e5e565b91506118f3826118b4565b602082019050919050565b5f6020820190508181035f830152611915816118dc565b9050919050565b7f4e487b71000000000000000000000000000000000000000000000000000000005f52601160045260245ffd5b5f61195382610dd4565b91505f82036119655761196461191c565b5b600182039050919050565b5f6080820190506119835f830187610e45565b6119906020830186610e45565b61199d6040830185610ec4565b6119aa6060830184610ec4565b95945050505050565b5f6119bd82610dd4565b91507fffffffffffffffffffffffffffffffffffffffffffffffffffffffffffffffff82036119ef576119ee61191c565b5b60018201905091905056fea2646970667358221220678ad2cfa4fc41e18adb8678adaa481002c64a55a4befcfe782cc89bc0c4487564736f6c634300081e0033",
					"opcodes": "PUSH1 0x80 PUSH1 0x40 MSTORE PUSH2 0x118 PUSH0 SSTORE CALLVALUE DUP1 ISZERO PUSH1 0x13 JUMPI PUSH0 PUSH0 REVERT JUMPDEST POP CALLER PUSH1 0x1 PUSH0 PUSH2 0x100 EXP DUP2 SLOAD DUP2 PUSH20 0xFFFFFFFFFFFFFFFFFFFFFFFFFFFFFFFFFFFFFFFF MUL NOT AND SWAP1 DUP4 PUSH20 0xFFFFFFFFFFFFFFFFFFFFFFFFFFFFFFFFFFFFFFFF AND MUL OR SWAP1 SSTORE POP PUSH2 0x1A30 DUP1 PUSH2 0x61 PUSH0 CODECOPY PUSH0 RETURN INVALID PUSH1 0x80 PUSH1 0x40 MSTORE CALLVALUE DUP1 ISZERO PUSH2 0xF JUMPI PUSH0 PUSH0 REVERT JUMPDEST POP PUSH1 0x4 CALLDATASIZE LT PUSH2 0x9C JUMPI PUSH0 CALLDATALOAD PUSH1 0xE0 SHR DUP1 PUSH4 0x8DA5CB5B GT PUSH2 0x64 JUMPI DUP1 PUSH4 0x8DA5CB5B EQ PUSH2 0x16C JUMPI DUP1 PUSH4 0xA1488F7C EQ PUSH2 0x18A JUMPI DUP1 PUSH4 0xA2AFCE88 EQ PUSH2 0x1A6 JUMPI DUP1 PUSH4 0xD04DDAA0 EQ PUSH2 0x1C4 JUMPI DUP1 PUSH4 0xFB0C6BFB EQ PUSH2 0x1E0 JUMPI PUSH2 0x9C JUMP JUMPDEST DUP1 PUSH4 0x5A1B4A9 EQ PUSH2 0xA0 JUMPI DUP1 PUSH4 0x46247363 EQ PUSH2 0xD4 JUMPI DUP1 PUSH4 0x61CFC6C7 EQ PUSH2 0x104 JUMPI DUP1 PUSH4 0x7C9CD2BC EQ PUSH2 0x134 JUMPI DUP1 PUSH4 0x85DA6F1C EQ PUSH2 0x150 JUMPI JUMPDEST PUSH0 PUSH0 REVERT JUMPDEST PUSH2 0xBA PUSH1 0x4 DUP1 CALLDATASIZE SUB DUP2 ADD SWAP1 PUSH2 0xB5 SWAP2 SWAP1 PUSH2 0xE07 JUMP JUMPDEST PUSH2 0x1FE JUMP JUMPDEST PUSH1 0x40 MLOAD PUSH2 0xCB SWAP6 SWAP5 SWAP4 SWAP3 SWAP2 SWAP1 PUSH2 0xED3 JUMP JUMPDEST PUSH1 0x40 MLOAD DUP1 SWAP2 SUB SWAP1 RETURN JUMPDEST PUSH2 0xEE PUSH1 0x4 DUP1 CALLDATASIZE SUB DUP2 ADD SWAP1 PUSH2 0xE9 SWAP2 SWAP1 PUSH2 0xF2B JUMP JUMPDEST PUSH2 0x2EF JUMP JUMPDEST PUSH1 0x40 MLOAD PUSH2 0xFB SWAP2 SWAP1 PUSH2 0x10EA JUMP JUMPDEST PUSH1 0x40 MLOAD DUP1 SWAP2 SUB SWAP1 RETURN JUMPDEST PUSH2 0x11E PUSH1 0x4 DUP1 CALLDATASIZE SUB DUP2 ADD SWAP1 PUSH2 0x119 SWAP2 SWAP1 PUSH2 0x110A JUMP JUMPDEST PUSH2 0x48A JUMP JUMPDEST PUSH1 0x40 MLOAD PUSH2 0x12B SWAP2 SWAP1 PUSH2 0x11A8 JUMP JUMPDEST PUSH1 0x40 MLOAD DUP1 SWAP2 SUB SWAP1 RETURN JUMPDEST PUSH2 0x14E PUSH1 0x4 DUP1 CALLDATASIZE SUB DUP2 ADD SWAP1 PUSH2 0x149 SWAP2 SWAP1 PUSH2 0x12F4 JUMP JUMPDEST PUSH2 0x601 JUMP JUMPDEST STOP JUMPDEST PUSH2 0x16A PUSH1 0x4 DUP1 CALLDATASIZE SUB DUP2 ADD SWAP1 PUSH2 0x165 SWAP2 SWAP1 PUSH2 0x110A JUMP JUMPDEST PUSH2 0x837 JUMP JUMPDEST STOP JUMPDEST PUSH2 0x174 PUSH2 0x8CF JUMP JUMPDEST PUSH1 0x40 MLOAD PUSH2 0x181 SWAP2 SWAP1 PUSH2 0x133B JUMP JUMPDEST PUSH1 0x40 MLOAD DUP1 SWAP2 SUB SWAP1 RETURN JUMPDEST PUSH2 0x1A4 PUSH1 0x4 DUP1 CALLDATASIZE SUB DUP2 ADD SWAP1 PUSH2 0x19F SWAP2 SWAP1 PUSH2 0x1354 JUMP JUMPDEST PUSH2 0x8F4 JUMP JUMPDEST STOP JUMPDEST PUSH2 0x1AE PUSH2 0xB46 JUMP JUMPDEST PUSH1 0x40 MLOAD PUSH2 0x1BB SWAP2 SWAP1 PUSH2 0x1392 JUMP JUMPDEST PUSH1 0x40 MLOAD DUP1 SWAP2 SUB SWAP1 RETURN JUMPDEST PUSH2 0x1DE PUSH1 0x4 DUP1 CALLDATASIZE SUB DUP2 ADD SWAP1 PUSH2 0x1D9 SWAP2 SWAP1 PUSH2 0x1354 JUMP JUMPDEST PUSH2 0xB4E JUMP JUMPDEST STOP JUMPDEST PUSH2 0x1E8 PUSH2 0xD00 JUMP JUMPDEST PUSH1 0x40 MLOAD PUSH2 0x1F5 SWAP2 SWAP1 PUSH2 0x133B JUMP JUMPDEST PUSH1 0x40 MLOAD DUP1 SWAP2 SUB SWAP1 RETURN JUMPDEST PUSH1 0x2 PUSH1 0x20 MSTORE DUP2 PUSH0 MSTORE PUSH1 0x40 PUSH0 KECCAK256 DUP2 DUP2 SLOAD DUP2 LT PUSH2 0x217 JUMPI PUSH0 DUP1 REVERT JUMPDEST SWAP1 PUSH0 MSTORE PUSH1 0x20 PUSH0 KECCAK256 SWAP1 PUSH1 0x5 MUL ADD PUSH0 SWAP2 POP SWAP2 POP POP DUP1 PUSH0 ADD PUSH0 SWAP1 SLOAD SWAP1 PUSH2 0x100 EXP SWAP1 DIV PUSH20 0xFFFFFFFFFFFFFFFFFFFFFFFFFFFFFFFFFFFFFFFF AND SWAP1 DUP1 PUSH1 0x1 ADD DUP1 SLOAD PUSH2 0x25C SWAP1 PUSH2 0x13D8 JUMP JUMPDEST DUP1 PUSH1 0x1F ADD PUSH1 0x20 DUP1 SWAP2 DIV MUL PUSH1 0x20 ADD PUSH1 0x40 MLOAD SWAP1 DUP2 ADD PUSH1 0x40 MSTORE DUP1 SWAP3 SWAP2 SWAP1 DUP2 DUP2 MSTORE PUSH1 0x20 ADD DUP3 DUP1 SLOAD PUSH2 0x288 SWAP1 PUSH2 0x13D8 JUMP JUMPDEST DUP1 ISZERO PUSH2 0x2D3 JUMPI DUP1 PUSH1 0x1F LT PUSH2 0x2AA JUMPI PUSH2 0x100 DUP1 DUP4 SLOAD DIV MUL DUP4 MSTORE SWAP2 PUSH1 0x20 ADD SWAP2 PUSH2 0x2D3 JUMP JUMPDEST DUP3 ADD SWAP2 SWAP1 PUSH0 MSTORE PUSH1 0x20 PUSH0 KECCAK256 SWAP1 JUMPDEST DUP2 SLOAD DUP2 MSTORE SWAP1 PUSH1 0x1 ADD SWAP1 PUSH1 0x20 ADD DUP1 DUP4 GT PUSH2 0x2B6 JUMPI DUP3 SWAP1 SUB PUSH1 0x1F AND DUP3 ADD SWAP2 JUMPDEST POP POP POP POP POP SWAP1 DUP1 PUSH1 0x2 ADD SLOAD SWAP1 DUP1 PUSH1 0x3 ADD SLOAD SWAP1 DUP1 PUSH1 0x4 ADD SLOAD SWAP1 POP DUP6 JUMP JUMPDEST PUSH1 0x60 PUSH1 0x2 PUSH0 DUP4 PUSH20 0xFFFFFFFFFFFFFFFFFFFFFFFFFFFFFFFFFFFFFFFF AND PUSH20 0xFFFFFFFFFFFFFFFFFFFFFFFFFFFFFFFFFFFFFFFF AND DUP2 MSTORE PUSH1 0x20 ADD SWAP1 DUP2 MSTORE PUSH1 0x20 ADD PUSH0 KECCAK256 DUP1 SLOAD DUP1 PUSH1 0x20 MUL PUSH1 0x20 ADD PUSH1 0x40 MLOAD SWAP1 DUP2 ADD PUSH1 0x40 MSTORE DUP1 SWAP3 SWAP2 SWAP1 DUP2 DUP2 MSTORE PUSH1 0x20 ADD PUSH0 SWAP1 JUMPDEST DUP3 DUP3 LT ISZERO PUSH2 0x47F JUMPI DUP4 DUP3 SWAP1 PUSH0 MSTORE PUSH1 0x20 PUSH0 KECCAK256 SWAP1 PUSH1 0x5 MUL ADD PUSH1 0x40 MLOAD DUP1 PUSH1 0xA0 ADD PUSH1 0x40 MSTORE SWAP1 DUP2 PUSH0 DUP3 ADD PUSH0 SWAP1 SLOAD SWAP1 PUSH2 0x100 EXP SWAP1 DIV PUSH20 0xFFFFFFFFFFFFFFFFFFFFFFFFFFFFFFFFFFFFFFFF AND PUSH20 0xFFFFFFFFFFFFFFFFFFFFFFFFFFFFFFFFFFFFFFFF AND PUSH20 0xFFFFFFFFFFFFFFFFFFFFFFFFFFFFFFFFFFFFFFFF AND DUP2 MSTORE PUSH1 0x20 ADD PUSH1 0x1 DUP3 ADD DUP1 SLOAD PUSH2 0x3D2 SWAP1 PUSH2 0x13D8 JUMP JUMPDEST DUP1 PUSH1 0x1F ADD PUSH1 0x20 DUP1 SWAP2 DIV MUL PUSH1 0x20 ADD PUSH1 0x40 MLOAD SWAP1 DUP2 ADD PUSH1 0x40 MSTORE DUP1 SWAP3 SWAP2 SWAP1 DUP2 DUP2 MSTORE PUSH1 0x20 ADD DUP3 DUP1 SLOAD PUSH2 0x3FE SWAP1 PUSH2 0x13D8 JUMP JUMPDEST DUP1 ISZERO PUSH2 0x449 JUMPI DUP1 PUSH1 0x1F LT PUSH2 0x420 JUMPI PUSH2 0x100 DUP1 DUP4 SLOAD DIV MUL DUP4 MSTORE SWAP2 PUSH1 0x20 ADD SWAP2 PUSH2 0x449 JUMP JUMPDEST DUP3 ADD SWAP2 SWAP1 PUSH0 MSTORE PUSH1 0x20 PUSH0 KECCAK256 SWAP1 JUMPDEST DUP2 SLOAD DUP2 MSTORE SWAP1 PUSH1 0x1 ADD SWAP1 PUSH1 0x20 ADD DUP1 DUP4 GT PUSH2 0x42C JUMPI DUP3 SWAP1 SUB PUSH1 0x1F AND DUP3 ADD SWAP2 JUMPDEST POP POP POP POP POP DUP2 MSTORE PUSH1 0x20 ADD PUSH1 0x2 DUP3 ADD SLOAD DUP2 MSTORE PUSH1 0x20 ADD PUSH1 0x3 DUP3 ADD SLOAD DUP2 MSTORE PUSH1 0x20 ADD PUSH1 0x4 DUP3 ADD SLOAD DUP2 MSTORE POP POP DUP2 MSTORE PUSH1 0x20 ADD SWAP1 PUSH1 0x1 ADD SWAP1 PUSH2 0x34D JUMP JUMPDEST POP POP POP POP SWAP1 POP SWAP2 SWAP1 POP JUMP JUMPDEST PUSH2 0x492 PUSH2 0xD28 JUMP JUMPDEST PUSH1 0x2 PUSH0 CALLER PUSH20 0xFFFFFFFFFFFFFFFFFFFFFFFFFFFFFFFFFFFFFFFF AND PUSH20 0xFFFFFFFFFFFFFFFFFFFFFFFFFFFFFFFFFFFFFFFF AND DUP2 MSTORE PUSH1 0x20 ADD SWAP1 DUP2 MSTORE PUSH1 0x20 ADD PUSH0 KECCAK256 DUP3 DUP2 SLOAD DUP2 LT PUSH2 0x4E1 JUMPI PUSH2 0x4E0 PUSH2 0x1408 JUMP JUMPDEST JUMPDEST SWAP1 PUSH0 MSTORE PUSH1 0x20 PUSH0 KECCAK256 SWAP1 PUSH1 0x5 MUL ADD PUSH1 0x40 MLOAD DUP1 PUSH1 0xA0 ADD PUSH1 0x40 MSTORE SWAP1 DUP2 PUSH0 DUP3 ADD PUSH0 SWAP1 SLOAD SWAP1 PUSH2 0x100 EXP SWAP1 DIV PUSH20 0xFFFFFFFFFFFFFFFFFFFFFFFFFFFFFFFFFFFFFFFF AND PUSH20 0xFFFFFFFFFFFFFFFFFFFFFFFFFFFFFFFFFFFFFFFF AND PUSH20 0xFFFFFFFFFFFFFFFFFFFFFFFFFFFFFFFFFFFFFFFF AND DUP2 MSTORE PUSH1 0x20 ADD PUSH1 0x1 DUP3 ADD DUP1 SLOAD PUSH2 0x55C SWAP1 PUSH2 0x13D8 JUMP JUMPDEST DUP1 PUSH1 0x1F ADD PUSH1 0x20 DUP1 SWAP2 DIV MUL PUSH1 0x20 ADD PUSH1 0x40 MLOAD SWAP1 DUP2 ADD PUSH1 0x40 MSTORE DUP1 SWAP3 SWAP2 SWAP1 DUP2 DUP2 MSTORE PUSH1 0x20 ADD DUP3 DUP1 SLOAD PUSH2 0x588 SWAP1 PUSH2 0x13D8 JUMP JUMPDEST DUP1 ISZERO PUSH2 0x5D3 JUMPI DUP1 PUSH1 0x1F LT PUSH2 0x5AA JUMPI PUSH2 0x100 DUP1 DUP4 SLOAD DIV MUL DUP4 MSTORE SWAP2 PUSH1 0x20 ADD SWAP2 PUSH2 0x5D3 JUMP JUMPDEST DUP3 ADD SWAP2 SWAP1 PUSH0 MSTORE PUSH1 0x20 PUSH0 KECCAK256 SWAP1 JUMPDEST DUP2 SLOAD DUP2 MSTORE SWAP1 PUSH1 0x1 ADD SWAP1 PUSH1 0x20 ADD DUP1 DUP4 GT PUSH2 0x5B6 JUMPI DUP3 SWAP1 SUB PUSH1 0x1F AND DUP3 ADD SWAP2 JUMPDEST POP POP POP POP POP DUP2 MSTORE PUSH1 0x20 ADD PUSH1 0x2 DUP3 ADD SLOAD DUP2 MSTORE PUSH1 0x20 ADD PUSH1 0x3 DUP3 ADD SLOAD DUP2 MSTORE PUSH1 0x20 ADD PUSH1 0x4 DUP3 ADD SLOAD DUP2 MSTORE POP POP SWAP1 POP SWAP2 SWAP1 POP JUMP JUMPDEST PUSH0 DUP2 MLOAD GT PUSH2 0x644 JUMPI PUSH1 0x40 MLOAD PUSH32 0x8C379A000000000000000000000000000000000000000000000000000000000 DUP2 MSTORE PUSH1 0x4 ADD PUSH2 0x63B SWAP1 PUSH2 0x147F JUMP JUMPDEST PUSH1 0x40 MLOAD DUP1 SWAP2 SUB SWAP1 REVERT JUMPDEST PUSH0 SLOAD DUP2 MLOAD GT ISZERO PUSH2 0x689 JUMPI PUSH1 0x40 MLOAD PUSH32 0x8C379A000000000000000000000000000000000000000000000000000000000 DUP2 MSTORE PUSH1 0x4 ADD PUSH2 0x680 SWAP1 PUSH2 0x14E7 JUMP JUMPDEST PUSH1 0x40 MLOAD DUP1 SWAP2 SUB SWAP1 REVERT JUMPDEST PUSH0 PUSH1 0x40 MLOAD DUP1 PUSH1 0xA0 ADD PUSH1 0x40 MSTORE DUP1 CALLER PUSH20 0xFFFFFFFFFFFFFFFFFFFFFFFFFFFFFFFFFFFFFFFF AND DUP2 MSTORE PUSH1 0x20 ADD DUP4 DUP2 MSTORE PUSH1 0x20 ADD TIMESTAMP DUP2 MSTORE PUSH1 0x20 ADD PUSH0 DUP2 MSTORE PUSH1 0x20 ADD PUSH1 0x2 PUSH0 CALLER PUSH20 0xFFFFFFFFFFFFFFFFFFFFFFFFFFFFFFFFFFFFFFFF AND PUSH20 0xFFFFFFFFFFFFFFFFFFFFFFFFFFFFFFFFFFFFFFFF AND DUP2 MSTORE PUSH1 0x20 ADD SWAP1 DUP2 MSTORE PUSH1 0x20 ADD PUSH0 KECCAK256 DUP1 SLOAD SWAP1 POP DUP2 MSTORE POP SWAP1 POP PUSH1 0x2 PUSH0 CALLER PUSH20 0xFFFFFFFFFFFFFFFFFFFFFFFFFFFFFFFFFFFFFFFF AND PUSH20 0xFFFFFFFFFFFFFFFFFFFFFFFFFFFFFFFFFFFFFFFF AND DUP2 MSTORE PUSH1 0x20 ADD SWAP1 DUP2 MSTORE PUSH1 0x20 ADD PUSH0 KECCAK256 DUP2 SWAP1 DUP1 PUSH1 0x1 DUP2 SLOAD ADD DUP1 DUP3 SSTORE DUP1 SWAP2 POP POP PUSH1 0x1 SWAP1 SUB SWAP1 PUSH0 MSTORE PUSH1 0x20 PUSH0 KECCAK256 SWAP1 PUSH1 0x5 MUL ADD PUSH0 SWAP1 SWAP2 SWAP1 SWAP2 SWAP1 SWAP2 POP PUSH0 DUP3 ADD MLOAD DUP2 PUSH0 ADD PUSH0 PUSH2 0x100 EXP DUP2 SLOAD DUP2 PUSH20 0xFFFFFFFFFFFFFFFFFFFFFFFFFFFFFFFFFFFFFFFF MUL NOT AND SWAP1 DUP4 PUSH20 0xFFFFFFFFFFFFFFFFFFFFFFFFFFFFFFFFFFFFFFFF AND MUL OR SWAP1 SSTORE POP PUSH1 0x20 DUP3 ADD MLOAD DUP2 PUSH1 0x1 ADD SWAP1 DUP2 PUSH2 0x7C6 SWAP2 SWAP1 PUSH2 0x16A5 JUMP JUMPDEST POP PUSH1 0x40 DUP3 ADD MLOAD DUP2 PUSH1 0x2 ADD SSTORE PUSH1 0x60 DUP3 ADD MLOAD DUP2 PUSH1 0x3 ADD SSTORE PUSH1 0x80 DUP3 ADD MLOAD DUP2 PUSH1 0x4 ADD SSTORE POP POP PUSH32 0x16FD3C13E9D46923E0A8BCE11C7B473EC508A72E6C96CD2404B29CE972AFC29E DUP2 PUSH1 0x80 ADD MLOAD DUP3 PUSH0 ADD MLOAD DUP4 PUSH1 0x20 ADD MLOAD DUP5 PUSH1 0x40 ADD MLOAD PUSH1 0x40 MLOAD PUSH2 0x82B SWAP5 SWAP4 SWAP3 SWAP2 SWAP1 PUSH2 0x1774 JUMP JUMPDEST PUSH1 0x40 MLOAD DUP1 SWAP2 SUB SWAP1 LOG1 POP POP JUMP JUMPDEST PUSH1 0x1 PUSH0 SWAP1 SLOAD SWAP1 PUSH2 0x100 EXP SWAP1 DIV PUSH20 0xFFFFFFFFFFFFFFFFFFFFFFFFFFFFFFFFFFFFFFFF AND PUSH20 0xFFFFFFFFFFFFFFFFFFFFFFFFFFFFFFFFFFFFFFFF AND CALLER PUSH20 0xFFFFFFFFFFFFFFFFFFFFFFFFFFFFFFFFFFFFFFFF AND EQ PUSH2 0x8C6 JUMPI PUSH1 0x40 MLOAD PUSH32 0x8C379A000000000000000000000000000000000000000000000000000000000 DUP2 MSTORE PUSH1 0x4 ADD PUSH2 0x8BD SWAP1 PUSH2 0x182E JUMP JUMPDEST PUSH1 0x40 MLOAD DUP1 SWAP2 SUB SWAP1 REVERT JUMPDEST DUP1 PUSH0 DUP2 SWAP1 SSTORE POP POP JUMP JUMPDEST PUSH1 0x1 PUSH0 SWAP1 SLOAD SWAP1 PUSH2 0x100 EXP SWAP1 DIV PUSH20 0xFFFFFFFFFFFFFFFFFFFFFFFFFFFFFFFFFFFFFFFF AND DUP2 JUMP JUMPDEST DUP2 PUSH1 0x2 PUSH0 DUP4 PUSH20 0xFFFFFFFFFFFFFFFFFFFFFFFFFFFFFFFFFFFFFFFF AND PUSH20 0xFFFFFFFFFFFFFFFFFFFFFFFFFFFFFFFFFFFFFFFF AND DUP2 MSTORE PUSH1 0x20 ADD SWAP1 DUP2 MSTORE PUSH1 0x20 ADD PUSH0 KECCAK256 DUP4 DUP2 SLOAD DUP2 LT PUSH2 0x944 JUMPI PUSH2 0x943 PUSH2 0x1408 JUMP JUMPDEST JUMPDEST SWAP1 PUSH0 MSTORE PUSH1 0x20 PUSH0 KECCAK256 SWAP1 PUSH1 0x5 MUL ADD PUSH1 0x4 ADD SLOAD EQ PUSH2 0x994 JUMPI PUSH1 0x40 MLOAD PUSH32 0x8C379A000000000000000000000000000000000000000000000000000000000 DUP2 MSTORE PUSH1 0x4 ADD PUSH2 0x98B SWAP1 PUSH2 0x1896 JUMP JUMPDEST PUSH1 0x40 MLOAD DUP1 SWAP2 SUB SWAP1 REVERT JUMPDEST PUSH0 PUSH1 0x2 PUSH0 DUP4 PUSH20 0xFFFFFFFFFFFFFFFFFFFFFFFFFFFFFFFFFFFFFFFF AND PUSH20 0xFFFFFFFFFFFFFFFFFFFFFFFFFFFFFFFFFFFFFFFF AND DUP2 MSTORE PUSH1 0x20 ADD SWAP1 DUP2 MSTORE PUSH1 0x20 ADD PUSH0 KECCAK256 DUP4 DUP2 SLOAD DUP2 LT PUSH2 0x9E4 JUMPI PUSH2 0x9E3 PUSH2 0x1408 JUMP JUMPDEST JUMPDEST SWAP1 PUSH0 MSTORE PUSH1 0x20 PUSH0 KECCAK256 SWAP1 PUSH1 0x5 MUL ADD PUSH1 0x3 ADD SLOAD GT PUSH2 0xA34 JUMPI PUSH1 0x40 MLOAD PUSH32 0x8C379A000000000000000000000000000000000000000000000000000000000 DUP2 MSTORE PUSH1 0x4 ADD PUSH2 0xA2B SWAP1 PUSH2 0x18FE JUMP JUMPDEST PUSH1 0x40 MLOAD DUP1 SWAP2 SUB SWAP1 REVERT JUMPDEST PUSH1 0x2 PUSH0 DUP3 PUSH20 0xFFFFFFFFFFFFFFFFFFFFFFFFFFFFFFFFFFFFFFFF AND PUSH20 0xFFFFFFFFFFFFFFFFFFFFFFFFFFFFFFFFFFFFFFFF AND DUP2 MSTORE PUSH1 0x20 ADD SWAP1 DUP2 MSTORE PUSH1 0x20 ADD PUSH0 KECCAK256 DUP3 DUP2 SLOAD DUP2 LT PUSH2 0xA83 JUMPI PUSH2 0xA82 PUSH2 0x1408 JUMP JUMPDEST JUMPDEST SWAP1 PUSH0 MSTORE PUSH1 0x20 PUSH0 KECCAK256 SWAP1 PUSH1 0x5 MUL ADD PUSH1 0x3 ADD PUSH0 DUP2 SLOAD DUP1 SWAP3 SWAP2 SWAP1 PUSH2 0xAA2 SWAP1 PUSH2 0x1949 JUMP JUMPDEST SWAP2 SWAP1 POP SSTORE POP PUSH32 0xA364D895015BBD024115082F05215300F6D39B35E8268D0B54A8D1E946411547 CALLER DUP3 DUP5 PUSH1 0x2 PUSH0 DUP7 PUSH20 0xFFFFFFFFFFFFFFFFFFFFFFFFFFFFFFFFFFFFFFFF AND PUSH20 0xFFFFFFFFFFFFFFFFFFFFFFFFFFFFFFFFFFFFFFFF AND DUP2 MSTORE PUSH1 0x20 ADD SWAP1 DUP2 MSTORE PUSH1 0x20 ADD PUSH0 KECCAK256 DUP7 DUP2 SLOAD DUP2 LT PUSH2 0xB1A JUMPI PUSH2 0xB19 PUSH2 0x1408 JUMP JUMPDEST JUMPDEST SWAP1 PUSH0 MSTORE PUSH1 0x20 PUSH0 KECCAK256 SWAP1 PUSH1 0x5 MUL ADD PUSH1 0x3 ADD SLOAD PUSH1 0x40 MLOAD PUSH2 0xB3A SWAP5 SWAP4 SWAP3 SWAP2 SWAP1 PUSH2 0x1970 JUMP JUMPDEST PUSH1 0x40 MLOAD DUP1 SWAP2 SUB SWAP1 LOG1 POP POP JUMP JUMPDEST PUSH0 PUSH0 SLOAD SWAP1 POP SWAP1 JUMP JUMPDEST DUP2 PUSH1 0x2 PUSH0 DUP4 PUSH20 0xFFFFFFFFFFFFFFFFFFFFFFFFFFFFFFFFFFFFFFFF AND PUSH20 0xFFFFFFFFFFFFFFFFFFFFFFFFFFFFFFFFFFFFFFFF AND DUP2 MSTORE PUSH1 0x20 ADD SWAP1 DUP2 MSTORE PUSH1 0x20 ADD PUSH0 KECCAK256 DUP4 DUP2 SLOAD DUP2 LT PUSH2 0xB9E JUMPI PUSH2 0xB9D PUSH2 0x1408 JUMP JUMPDEST JUMPDEST SWAP1 PUSH0 MSTORE PUSH1 0x20 PUSH0 KECCAK256 SWAP1 PUSH1 0x5 MUL ADD PUSH1 0x4 ADD SLOAD EQ PUSH2 0xBEE JUMPI PUSH1 0x40 MLOAD PUSH32 0x8C379A000000000000000000000000000000000000000000000000000000000 DUP2 MSTORE PUSH1 0x4 ADD PUSH2 0xBE5 SWAP1 PUSH2 0x1896 JUMP JUMPDEST PUSH1 0x40 MLOAD DUP1 SWAP2 SUB SWAP1 REVERT JUMPDEST PUSH1 0x2 PUSH0 DUP3 PUSH20 0xFFFFFFFFFFFFFFFFFFFFFFFFFFFFFFFFFFFFFFFF AND PUSH20 0xFFFFFFFFFFFFFFFFFFFFFFFFFFFFFFFFFFFFFFFF AND DUP2 MSTORE PUSH1 0x20 ADD SWAP1 DUP2 MSTORE PUSH1 0x20 ADD PUSH0 KECCAK256 DUP3 DUP2 SLOAD DUP2 LT PUSH2 0xC3D JUMPI PUSH2 0xC3C PUSH2 0x1408 JUMP JUMPDEST JUMPDEST SWAP1 PUSH0 MSTORE PUSH1 0x20 PUSH0 KECCAK256 SWAP1 PUSH1 0x5 MUL ADD PUSH1 0x3 ADD PUSH0 DUP2 SLOAD DUP1 SWAP3 SWAP2 SWAP1 PUSH2 0xC5C SWAP1 PUSH2 0x19B3 JUMP JUMPDEST SWAP2 SWAP1 POP SSTORE POP PUSH32 0x9B14B824C633C47786B37F814B120CC2CEFC008BB464636C6018897EF97FD71D CALLER DUP3 DUP5 PUSH1 0x2 PUSH0 DUP7 PUSH20 0xFFFFFFFFFFFFFFFFFFFFFFFFFFFFFFFFFFFFFFFF AND PUSH20 0xFFFFFFFFFFFFFFFFFFFFFFFFFFFFFFFFFFFFFFFF AND DUP2 MSTORE PUSH1 0x20 ADD SWAP1 DUP2 MSTORE PUSH1 0x20 ADD PUSH0 KECCAK256 DUP7 DUP2 SLOAD DUP2 LT PUSH2 0xCD4 JUMPI PUSH2 0xCD3 PUSH2 0x1408 JUMP JUMPDEST JUMPDEST SWAP1 PUSH0 MSTORE PUSH1 0x20 PUSH0 KECCAK256 SWAP1 PUSH1 0x5 MUL ADD PUSH1 0x3 ADD SLOAD PUSH1 0x40 MLOAD PUSH2 0xCF4 SWAP5 SWAP4 SWAP3 SWAP2 SWAP1 PUSH2 0x1970 JUMP JUMPDEST PUSH1 0x40 MLOAD DUP1 SWAP2 SUB SWAP1 LOG1 POP POP JUMP JUMPDEST PUSH0 PUSH1 0x1 PUSH0 SWAP1 SLOAD SWAP1 PUSH2 0x100 EXP SWAP1 DIV PUSH20 0xFFFFFFFFFFFFFFFFFFFFFFFFFFFFFFFFFFFFFFFF AND SWAP1 POP SWAP1 JUMP JUMPDEST PUSH1 0x40 MLOAD DUP1 PUSH1 0xA0 ADD PUSH1 0x40 MSTORE DUP1 PUSH0 PUSH20 0xFFFFFFFFFFFFFFFFFFFFFFFFFFFFFFFFFFFFFFFF AND DUP2 MSTORE PUSH1 0x20 ADD PUSH1 0x60 DUP2 MSTORE PUSH1 0x20 ADD PUSH0 DUP2 MSTORE PUSH1 0x20 ADD PUSH0 DUP2 MSTORE PUSH1 0x20 ADD PUSH0 DUP2 MSTORE POP SWAP1 JUMP JUMPDEST PUSH0 PUSH1 0x40 MLOAD SWAP1 POP SWAP1 JUMP JUMPDEST PUSH0 PUSH0 REVERT JUMPDEST PUSH0 PUSH0 REVERT JUMPDEST PUSH0 PUSH20 0xFFFFFFFFFFFFFFFFFFFFFFFFFFFFFFFFFFFFFFFF DUP3 AND SWAP1 POP SWAP2 SWAP1 POP JUMP JUMPDEST PUSH0 PUSH2 0xDA3 DUP3 PUSH2 0xD7A JUMP JUMPDEST SWAP1 POP SWAP2 SWAP1 POP JUMP JUMPDEST PUSH2 0xDB3 DUP2 PUSH2 0xD99 JUMP JUMPDEST DUP2 EQ PUSH2 0xDBD JUMPI PUSH0 PUSH0 REVERT JUMPDEST POP JUMP JUMPDEST PUSH0 DUP2 CALLDATALOAD SWAP1 POP PUSH2 0xDCE DUP2 PUSH2 0xDAA JUMP JUMPDEST SWAP3 SWAP2 POP POP JUMP JUMPDEST PUSH0 DUP2 SWAP1 POP SWAP2 SWAP1 POP JUMP JUMPDEST PUSH2 0xDE6 DUP2 PUSH2 0xDD4 JUMP JUMPDEST DUP2 EQ PUSH2 0xDF0 JUMPI PUSH0 PUSH0 REVERT JUMPDEST POP JUMP JUMPDEST PUSH0 DUP2 CALLDATALOAD SWAP1 POP PUSH2 0xE01 DUP2 PUSH2 0xDDD JUMP JUMPDEST SWAP3 SWAP2 POP POP JUMP JUMPDEST PUSH0 PUSH0 PUSH1 0x40 DUP4 DUP6 SUB SLT ISZERO PUSH2 0xE1D JUMPI PUSH2 0xE1C PUSH2 0xD72 JUMP JUMPDEST JUMPDEST PUSH0 PUSH2 0xE2A DUP6 DUP3 DUP7 ADD PUSH2 0xDC0 JUMP JUMPDEST SWAP3 POP POP PUSH1 0x20 PUSH2 0xE3B DUP6 DUP3 DUP7 ADD PUSH2 0xDF3 JUMP JUMPDEST SWAP2 POP POP SWAP3 POP SWAP3 SWAP1 POP JUMP JUMPDEST PUSH2 0xE4E DUP2 PUSH2 0xD99 JUMP JUMPDEST DUP3 MSTORE POP POP JUMP JUMPDEST PUSH0 DUP2 MLOAD SWAP1 POP SWAP2 SWAP1 POP JUMP JUMPDEST PUSH0 DUP3 DUP3 MSTORE PUSH1 0x20 DUP3 ADD SWAP1 POP SWAP3 SWAP2 POP POP JUMP JUMPDEST DUP3 DUP2 DUP4 MCOPY PUSH0 DUP4 DUP4 ADD MSTORE POP POP POP JUMP JUMPDEST PUSH0 PUSH1 0x1F NOT PUSH1 0x1F DUP4 ADD AND SWAP1 POP SWAP2 SWAP1 POP JUMP JUMPDEST PUSH0 PUSH2 0xE96 DUP3 PUSH2 0xE54 JUMP JUMPDEST PUSH2 0xEA0 DUP2 DUP6 PUSH2 0xE5E JUMP JUMPDEST SWAP4 POP PUSH2 0xEB0 DUP2 DUP6 PUSH1 0x20 DUP7 ADD PUSH2 0xE6E JUMP JUMPDEST PUSH2 0xEB9 DUP2 PUSH2 0xE7C JUMP JUMPDEST DUP5 ADD SWAP2 POP POP SWAP3 SWAP2 POP POP JUMP JUMPDEST PUSH2 0xECD DUP2 PUSH2 0xDD4 JUMP JUMPDEST DUP3 MSTORE POP POP JUMP JUMPDEST PUSH0 PUSH1 0xA0 DUP3 ADD SWAP1 POP PUSH2 0xEE6 PUSH0 DUP4 ADD DUP9 PUSH2 0xE45 JUMP JUMPDEST DUP2 DUP2 SUB PUSH1 0x20 DUP4 ADD MSTORE PUSH2 0xEF8 DUP2 DUP8 PUSH2 0xE8C JUMP JUMPDEST SWAP1 POP PUSH2 0xF07 PUSH1 0x40 DUP4 ADD DUP7 PUSH2 0xEC4 JUMP JUMPDEST PUSH2 0xF14 PUSH1 0x60 DUP4 ADD DUP6 PUSH2 0xEC4 JUMP JUMPDEST PUSH2 0xF21 PUSH1 0x80 DUP4 ADD DUP5 PUSH2 0xEC4 JUMP JUMPDEST SWAP7 SWAP6 POP POP POP POP POP POP JUMP JUMPDEST PUSH0 PUSH1 0x20 DUP3 DUP5 SUB SLT ISZERO PUSH2 0xF40 JUMPI PUSH2 0xF3F PUSH2 0xD72 JUMP JUMPDEST JUMPDEST PUSH0 PUSH2 0xF4D DUP5 DUP3 DUP6 ADD PUSH2 0xDC0 JUMP JUMPDEST SWAP2 POP POP SWAP3 SWAP2 POP POP JUMP JUMPDEST PUSH0 DUP2 MLOAD SWAP1 POP SWAP2 SWAP1 POP JUMP JUMPDEST PUSH0 DUP3 DUP3 MSTORE PUSH1 0x20 DUP3 ADD SWAP1 POP SWAP3 SWAP2 POP POP JUMP JUMPDEST PUSH0 DUP2 SWAP1 POP PUSH1 0x20 DUP3 ADD SWAP1 POP SWAP2 SWAP1 POP JUMP JUMPDEST PUSH2 0xF88 DUP2 PUSH2 0xD99 JUMP JUMPDEST DUP3 MSTORE POP POP JUMP JUMPDEST PUSH0 DUP3 DUP3 MSTORE PUSH1 0x20 DUP3 ADD SWAP1 POP SWAP3 SWAP2 POP POP JUMP JUMPDEST PUSH0 PUSH2 0xFA8 DUP3 PUSH2 0xE54 JUMP JUMPDEST PUSH2 0xFB2 DUP2 DUP6 PUSH2 0xF8E JUMP JUMPDEST SWAP4 POP PUSH2 0xFC2 DUP2 DUP6 PUSH1 0x20 DUP7 ADD PUSH2 0xE6E JUMP JUMPDEST PUSH2 0xFCB DUP2 PUSH2 0xE7C JUMP JUMPDEST DUP5 ADD SWAP2 POP POP SWAP3 SWAP2 POP POP JUMP JUMPDEST PUSH2 0xFDF DUP2 PUSH2 0xDD4 JUMP JUMPDEST DUP3 MSTORE POP POP JUMP JUMPDEST PUSH0 PUSH1 0xA0 DUP4 ADD PUSH0 DUP4 ADD MLOAD PUSH2 0xFFA PUSH0 DUP7 ADD DUP3 PUSH2 0xF7F JUMP JUMPDEST POP PUSH1 0x20 DUP4 ADD MLOAD DUP5 DUP3 SUB PUSH1 0x20 DUP7 ADD MSTORE PUSH2 0x1012 DUP3 DUP3 PUSH2 0xF9E JUMP JUMPDEST SWAP2 POP POP PUSH1 0x40 DUP4 ADD MLOAD PUSH2 0x1027 PUSH1 0x40 DUP7 ADD DUP3 PUSH2 0xFD6 JUMP JUMPDEST POP PUSH1 0x60 DUP4 ADD MLOAD PUSH2 0x103A PUSH1 0x60 DUP7 ADD DUP3 PUSH2 0xFD6 JUMP JUMPDEST POP PUSH1 0x80 DUP4 ADD MLOAD PUSH2 0x104D PUSH1 0x80 DUP7 ADD DUP3 PUSH2 0xFD6 JUMP JUMPDEST POP DUP1 SWAP2 POP POP SWAP3 SWAP2 POP POP JUMP JUMPDEST PUSH0 PUSH2 0x1063 DUP4 DUP4 PUSH2 0xFE5 JUMP JUMPDEST SWAP1 POP SWAP3 SWAP2 POP POP JUMP JUMPDEST PUSH0 PUSH1 0x20 DUP3 ADD SWAP1 POP SWAP2 SWAP1 POP JUMP JUMPDEST PUSH0 PUSH2 0x1081 DUP3 PUSH2 0xF56 JUMP JUMPDEST PUSH2 0x108B DUP2 DUP6 PUSH2 0xF60 JUMP JUMPDEST SWAP4 POP DUP4 PUSH1 0x20 DUP3 MUL DUP6 ADD PUSH2 0x109D DUP6 PUSH2 0xF70 JUMP JUMPDEST DUP1 PUSH0 JUMPDEST DUP6 DUP2 LT ISZERO PUSH2 0x10D8 JUMPI DUP5 DUP5 SUB DUP10 MSTORE DUP2 MLOAD PUSH2 0x10B9 DUP6 DUP3 PUSH2 0x1058 JUMP JUMPDEST SWAP5 POP PUSH2 0x10C4 DUP4 PUSH2 0x106B JUMP JUMPDEST SWAP3 POP PUSH1 0x20 DUP11 ADD SWAP10 POP POP PUSH1 0x1 DUP2 ADD SWAP1 POP PUSH2 0x10A0 JUMP JUMPDEST POP DUP3 SWAP8 POP DUP8 SWAP6 POP POP POP POP POP POP SWAP3 SWAP2 POP POP JUMP JUMPDEST PUSH0 PUSH1 0x20 DUP3 ADD SWAP1 POP DUP2 DUP2 SUB PUSH0 DUP4 ADD MSTORE PUSH2 0x1102 DUP2 DUP5 PUSH2 0x1077 JUMP JUMPDEST SWAP1 POP SWAP3 SWAP2 POP POP JUMP JUMPDEST PUSH0 PUSH1 0x20 DUP3 DUP5 SUB SLT ISZERO PUSH2 0x111F JUMPI PUSH2 0x111E PUSH2 0xD72 JUMP JUMPDEST JUMPDEST PUSH0 PUSH2 0x112C DUP5 DUP3 DUP6 ADD PUSH2 0xDF3 JUMP JUMPDEST SWAP2 POP POP SWAP3 SWAP2 POP POP JUMP JUMPDEST PUSH0 PUSH1 0xA0 DUP4 ADD PUSH0 DUP4 ADD MLOAD PUSH2 0x114A PUSH0 DUP7 ADD DUP3 PUSH2 0xF7F JUMP JUMPDEST POP PUSH1 0x20 DUP4 ADD MLOAD DUP5 DUP3 SUB PUSH1 0x20 DUP7 ADD MSTORE PUSH2 0x1162 DUP3 DUP3 PUSH2 0xF9E JUMP JUMPDEST SWAP2 POP POP PUSH1 0x40 DUP4 ADD MLOAD PUSH2 0x1177 PUSH1 0x40 DUP7 ADD DUP3 PUSH2 0xFD6 JUMP JUMPDEST POP PUSH1 0x60 DUP4 ADD MLOAD PUSH2 0x118A PUSH1 0x60 DUP7 ADD DUP3 PUSH2 0xFD6 JUMP JUMPDEST POP PUSH1 0x80 DUP4 ADD MLOAD PUSH2 0x119D PUSH1 0x80 DUP7 ADD DUP3 PUSH2 0xFD6 JUMP JUMPDEST POP DUP1 SWAP2 POP POP SWAP3 SWAP2 POP POP JUMP JUMPDEST PUSH0 PUSH1 0x20 DUP3 ADD SWAP1 POP DUP2 DUP2 SUB PUSH0 DUP4 ADD MSTORE PUSH2 0x11C0 DUP2 DUP5 PUSH2 0x1135 JUMP JUMPDEST SWAP1 POP SWAP3 SWAP2 POP POP JUMP JUMPDEST PUSH0 PUSH0 REVERT JUMPDEST PUSH0 PUSH0 REVERT JUMPDEST PUSH32 0x4E487B7100000000000000000000000000000000000000000000000000000000 PUSH0 MSTORE PUSH1 0x41 PUSH1 0x4 MSTORE PUSH1 0x24 PUSH0 REVERT JUMPDEST PUSH2 0x1206 DUP3 PUSH2 0xE7C JUMP JUMPDEST DUP2 ADD DUP2 DUP2 LT PUSH8 0xFFFFFFFFFFFFFFFF DUP3 GT OR ISZERO PUSH2 0x1225 JUMPI PUSH2 0x1224 PUSH2 0x11D0 JUMP JUMPDEST JUMPDEST DUP1 PUSH1 0x40 MSTORE POP POP POP JUMP JUMPDEST PUSH0 PUSH2 0x1237 PUSH2 0xD69 JUMP JUMPDEST SWAP1 POP PUSH2 0x1243 DUP3 DUP3 PUSH2 0x11FD JUMP JUMPDEST SWAP2 SWAP1 POP JUMP JUMPDEST PUSH0 PUSH8 0xFFFFFFFFFFFFFFFF DUP3 GT ISZERO PUSH2 0x1262 JUMPI PUSH2 0x1261 PUSH2 0x11D0 JUMP JUMPDEST JUMPDEST PUSH2 0x126B DUP3 PUSH2 0xE7C JUMP JUMPDEST SWAP1 POP PUSH1 0x20 DUP2 ADD SWAP1 POP SWAP2 SWAP1 POP JUMP JUMPDEST DUP3 DUP2 DUP4 CALLDATACOPY PUSH0 DUP4 DUP4 ADD MSTORE POP POP POP JUMP JUMPDEST PUSH0 PUSH2 0x1298 PUSH2 0x1293 DUP5 PUSH2 0x1248 JUMP JUMPDEST PUSH2 0x122E JUMP JUMPDEST SWAP1 POP DUP3 DUP2 MSTORE PUSH1 0x20 DUP2 ADD DUP5 DUP5 DUP5 ADD GT ISZERO PUSH2 0x12B4 JUMPI PUSH2 0x12B3 PUSH2 0x11CC JUMP JUMPDEST JUMPDEST PUSH2 0x12BF DUP5 DUP3 DUP6 PUSH2 0x1278 JUMP JUMPDEST POP SWAP4 SWAP3 POP POP POP JUMP JUMPDEST PUSH0 DUP3 PUSH1 0x1F DUP4 ADD SLT PUSH2 0x12DB JUMPI PUSH2 0x12DA PUSH2 0x11C8 JUMP JUMPDEST JUMPDEST DUP2 CALLDATALOAD PUSH2 0x12EB DUP5 DUP3 PUSH1 0x20 DUP7 ADD PUSH2 0x1286 JUMP JUMPDEST SWAP2 POP POP SWAP3 SWAP2 POP POP JUMP JUMPDEST PUSH0 PUSH1 0x20 DUP3 DUP5 SUB SLT ISZERO PUSH2 0x1309 JUMPI PUSH2 0x1308 PUSH2 0xD72 JUMP JUMPDEST JUMPDEST PUSH0 DUP3 ADD CALLDATALOAD PUSH8 0xFFFFFFFFFFFFFFFF DUP2 GT ISZERO PUSH2 0x1326 JUMPI PUSH2 0x1325 PUSH2 0xD76 JUMP JUMPDEST JUMPDEST PUSH2 0x1332 DUP5 DUP3 DUP6 ADD PUSH2 0x12C7 JUMP JUMPDEST SWAP2 POP POP SWAP3 SWAP2 POP POP JUMP JUMPDEST PUSH0 PUSH1 0x20 DUP3 ADD SWAP1 POP PUSH2 0x134E PUSH0 DUP4 ADD DUP5 PUSH2 0xE45 JUMP JUMPDEST SWAP3 SWAP2 POP POP JUMP JUMPDEST PUSH0 PUSH0 PUSH1 0x40 DUP4 DUP6 SUB SLT ISZERO PUSH2 0x136A JUMPI PUSH2 0x1369 PUSH2 0xD72 JUMP JUMPDEST JUMPDEST PUSH0 PUSH2 0x1377 DUP6 DUP3 DUP7 ADD PUSH2 0xDF3 JUMP JUMPDEST SWAP3 POP POP PUSH1 0x20 PUSH2 0x1388 DUP6 DUP3 DUP7 ADD PUSH2 0xDC0 JUMP JUMPDEST SWAP2 POP POP SWAP3 POP SWAP3 SWAP1 POP JUMP JUMPDEST PUSH0 PUSH1 0x20 DUP3 ADD SWAP1 POP PUSH2 0x13A5 PUSH0 DUP4 ADD DUP5 PUSH2 0xEC4 JUMP JUMPDEST SWAP3 SWAP2 POP POP JUMP JUMPDEST PUSH32 0x4E487B7100000000000000000000000000000000000000000000000000000000 PUSH0 MSTORE PUSH1 0x22 PUSH1 0x4 MSTORE PUSH1 0x24 PUSH0 REVERT JUMPDEST PUSH0 PUSH1 0x2 DUP3 DIV SWAP1 POP PUSH1 0x1 DUP3 AND DUP1 PUSH2 0x13EF JUMPI PUSH1 0x7F DUP3 AND SWAP2 POP JUMPDEST PUSH1 0x20 DUP3 LT DUP2 SUB PUSH2 0x1402 JUMPI PUSH2 0x1401 PUSH2 0x13AB JUMP JUMPDEST JUMPDEST POP SWAP2 SWAP1 POP JUMP JUMPDEST PUSH32 0x4E487B7100000000000000000000000000000000000000000000000000000000 PUSH0 MSTORE PUSH1 0x32 PUSH1 0x4 MSTORE PUSH1 0x24 PUSH0 REVERT JUMPDEST PUSH32 0x63616E6E6F74207061737320656D707479207477656574000000000000000000 PUSH0 DUP3 ADD MSTORE POP JUMP JUMPDEST PUSH0 PUSH2 0x1469 PUSH1 0x17 DUP4 PUSH2 0xE5E JUMP JUMPDEST SWAP2 POP PUSH2 0x1474 DUP3 PUSH2 0x1435 JUMP JUMPDEST PUSH1 0x20 DUP3 ADD SWAP1 POP SWAP2 SWAP1 POP JUMP JUMPDEST PUSH0 PUSH1 0x20 DUP3 ADD SWAP1 POP DUP2 DUP2 SUB PUSH0 DUP4 ADD MSTORE PUSH2 0x1496 DUP2 PUSH2 0x145D JUMP JUMPDEST SWAP1 POP SWAP2 SWAP1 POP JUMP JUMPDEST PUSH32 0x747765657420746F6F206C6F6E67000000000000000000000000000000000000 PUSH0 DUP3 ADD MSTORE POP JUMP JUMPDEST PUSH0 PUSH2 0x14D1 PUSH1 0xE DUP4 PUSH2 0xE5E JUMP JUMPDEST SWAP2 POP PUSH2 0x14DC DUP3 PUSH2 0x149D JUMP JUMPDEST PUSH1 0x20 DUP3 ADD SWAP1 POP SWAP2 SWAP1 POP JUMP JUMPDEST PUSH0 PUSH1 0x20 DUP3 ADD SWAP1 POP DUP2 DUP2 SUB PUSH0 DUP4 ADD MSTORE PUSH2 0x14FE DUP2 PUSH2 0x14C5 JUMP JUMPDEST SWAP1 POP SWAP2 SWAP1 POP JUMP JUMPDEST PUSH0 DUP2 SWAP1 POP DUP2 PUSH0 MSTORE PUSH1 0x20 PUSH0 KECCAK256 SWAP1 POP SWAP2 SWAP1 POP JUMP JUMPDEST PUSH0 PUSH1 0x20 PUSH1 0x1F DUP4 ADD DIV SWAP1 POP SWAP2 SWAP1 POP JUMP JUMPDEST PUSH0 DUP3 DUP3 SHL SWAP1 POP SWAP3 SWAP2 POP POP JUMP JUMPDEST PUSH0 PUSH1 0x8 DUP4 MUL PUSH2 0x1561 PUSH32 0xFFFFFFFFFFFFFFFFFFFFFFFFFFFFFFFFFFFFFFFFFFFFFFFFFFFFFFFFFFFFFFFF DUP3 PUSH2 0x1526 JUMP JUMPDEST PUSH2 0x156B DUP7 DUP4 PUSH2 0x1526 JUMP JUMPDEST SWAP6 POP DUP1 NOT DUP5 AND SWAP4 POP DUP1 DUP7 AND DUP5 OR SWAP3 POP POP POP SWAP4 SWAP3 POP POP POP JUMP JUMPDEST PUSH0 DUP2 SWAP1 POP SWAP2 SWAP1 POP JUMP JUMPDEST PUSH0 PUSH2 0x15A6 PUSH2 0x15A1 PUSH2 0x159C DUP5 PUSH2 0xDD4 JUMP JUMPDEST PUSH2 0x1583 JUMP JUMPDEST PUSH2 0xDD4 JUMP JUMPDEST SWAP1 POP SWAP2 SWAP1 POP JUMP JUMPDEST PUSH0 DUP2 SWAP1 POP SWAP2 SWAP1 POP JUMP JUMPDEST PUSH2 0x15BF DUP4 PUSH2 0x158C JUMP JUMPDEST PUSH2 0x15D3 PUSH2 0x15CB DUP3 PUSH2 0x15AD JUMP JUMPDEST DUP5 DUP5 SLOAD PUSH2 0x1532 JUMP JUMPDEST DUP3 SSTORE POP POP POP POP JUMP JUMPDEST PUSH0 PUSH0 SWAP1 POP SWAP1 JUMP JUMPDEST PUSH2 0x15EA PUSH2 0x15DB JUMP JUMPDEST PUSH2 0x15F5 DUP2 DUP5 DUP5 PUSH2 0x15B6 JUMP JUMPDEST POP POP POP JUMP JUMPDEST JUMPDEST DUP2 DUP2 LT ISZERO PUSH2 0x1618 JUMPI PUSH2 0x160D PUSH0 DUP3 PUSH2 0x15E2 JUMP JUMPDEST PUSH1 0x1 DUP2 ADD SWAP1 POP PUSH2 0x15FB JUMP JUMPDEST POP POP JUMP JUMPDEST PUSH1 0x1F DUP3 GT ISZERO PUSH2 0x165D JUMPI PUSH2 0x162E DUP2 PUSH2 0x1505 JUMP JUMPDEST PUSH2 0x1637 DUP5 PUSH2 0x1517 JUMP JUMPDEST DUP2 ADD PUSH1 0x20 DUP6 LT ISZERO PUSH2 0x1646 JUMPI DUP2 SWAP1 POP JUMPDEST PUSH2 0x165A PUSH2 0x1652 DUP6 PUSH2 0x1517 JUMP JUMPDEST DUP4 ADD DUP3 PUSH2 0x15FA JUMP JUMPDEST POP POP JUMPDEST POP POP POP JUMP JUMPDEST PUSH0 DUP3 DUP3 SHR SWAP1 POP SWAP3 SWAP2 POP POP JUMP JUMPDEST PUSH0 PUSH2 0x167D PUSH0 NOT DUP5 PUSH1 0x8 MUL PUSH2 0x1662 JUMP JUMPDEST NOT DUP1 DUP4 AND SWAP2 POP POP SWAP3 SWAP2 POP POP JUMP JUMPDEST PUSH0 PUSH2 0x1695 DUP4 DUP4 PUSH2 0x166E JUMP JUMPDEST SWAP2 POP DUP3 PUSH1 0x2 MUL DUP3 OR SWAP1 POP SWAP3 SWAP2 POP POP JUMP JUMPDEST PUSH2 0x16AE DUP3 PUSH2 0xE54 JUMP JUMPDEST PUSH8 0xFFFFFFFFFFFFFFFF DUP2 GT ISZERO PUSH2 0x16C7 JUMPI PUSH2 0x16C6 PUSH2 0x11D0 JUMP JUMPDEST JUMPDEST PUSH2 0x16D1 DUP3 SLOAD PUSH2 0x13D8 JUMP JUMPDEST PUSH2 0x16DC DUP3 DUP3 DUP6 PUSH2 0x161C JUMP JUMPDEST PUSH0 PUSH1 0x20 SWAP1 POP PUSH1 0x1F DUP4 GT PUSH1 0x1 DUP2 EQ PUSH2 0x170D JUMPI PUSH0 DUP5 ISZERO PUSH2 0x16FB JUMPI DUP3 DUP8 ADD MLOAD SWAP1 POP JUMPDEST PUSH2 0x1705 DUP6 DUP3 PUSH2 0x168A JUMP JUMPDEST DUP7 SSTORE POP PUSH2 0x176C JUMP JUMPDEST PUSH1 0x1F NOT DUP5 AND PUSH2 0x171B DUP7 PUSH2 0x1505 JUMP JUMPDEST PUSH0 JUMPDEST DUP3 DUP2 LT ISZERO PUSH2 0x1742 JUMPI DUP5 DUP10 ADD MLOAD DUP3 SSTORE PUSH1 0x1 DUP3 ADD SWAP2 POP PUSH1 0x20 DUP6 ADD SWAP5 POP PUSH1 0x20 DUP2 ADD SWAP1 POP PUSH2 0x171D JUMP JUMPDEST DUP7 DUP4 LT ISZERO PUSH2 0x175F JUMPI DUP5 DUP10 ADD MLOAD PUSH2 0x175B PUSH1 0x1F DUP10 AND DUP3 PUSH2 0x166E JUMP JUMPDEST DUP4 SSTORE POP JUMPDEST PUSH1 0x1 PUSH1 0x2 DUP9 MUL ADD DUP9 SSTORE POP POP POP JUMPDEST POP POP POP POP POP POP JUMP JUMPDEST PUSH0 PUSH1 0x80 DUP3 ADD SWAP1 POP PUSH2 0x1787 PUSH0 DUP4 ADD DUP8 PUSH2 0xEC4 JUMP JUMPDEST PUSH2 0x1794 PUSH1 0x20 DUP4 ADD DUP7 PUSH2 0xE45 JUMP JUMPDEST DUP2 DUP2 SUB PUSH1 0x40 DUP4 ADD MSTORE PUSH2 0x17A6 DUP2 DUP6 PUSH2 0xE8C JUMP JUMPDEST SWAP1 POP PUSH2 0x17B5 PUSH1 0x60 DUP4 ADD DUP5 PUSH2 0xEC4 JUMP JUMPDEST SWAP6 SWAP5 POP POP POP POP POP JUMP JUMPDEST PUSH32 0x6F6E6C7920746865206F776E65722063616E20706572666F726D207468697320 PUSH0 DUP3 ADD MSTORE PUSH32 0x616374696F6E0000000000000000000000000000000000000000000000000000 PUSH1 0x20 DUP3 ADD MSTORE POP JUMP JUMPDEST PUSH0 PUSH2 0x1818 PUSH1 0x26 DUP4 PUSH2 0xE5E JUMP JUMPDEST SWAP2 POP PUSH2 0x1823 DUP3 PUSH2 0x17BE JUMP JUMPDEST PUSH1 0x40 DUP3 ADD SWAP1 POP SWAP2 SWAP1 POP JUMP JUMPDEST PUSH0 PUSH1 0x20 DUP3 ADD SWAP1 POP DUP2 DUP2 SUB PUSH0 DUP4 ADD MSTORE PUSH2 0x1845 DUP2 PUSH2 0x180C JUMP JUMPDEST SWAP1 POP SWAP2 SWAP1 POP JUMP JUMPDEST PUSH32 0x747765657420646F6573206E6F74206578697374000000000000000000000000 PUSH0 DUP3 ADD MSTORE POP JUMP JUMPDEST PUSH0 PUSH2 0x1880 PUSH1 0x14 DUP4 PUSH2 0xE5E JUMP JUMPDEST SWAP2 POP PUSH2 0x188B DUP3 PUSH2 0x184C JUMP JUMPDEST PUSH1 0x20 DUP3 ADD SWAP1 POP SWAP2 SWAP1 POP JUMP JUMPDEST PUSH0 PUSH1 0x20 DUP3 ADD SWAP1 POP DUP2 DUP2 SUB PUSH0 DUP4 ADD MSTORE PUSH2 0x18AD DUP2 PUSH2 0x1874 JUMP JUMPDEST SWAP1 POP SWAP2 SWAP1 POP JUMP JUMPDEST PUSH32 0x747765657420646F6573206E6F74206861766520616E79206C696B6573000000 PUSH0 DUP3 ADD MSTORE POP JUMP JUMPDEST PUSH0 PUSH2 0x18E8 PUSH1 0x1D DUP4 PUSH2 0xE5E JUMP JUMPDEST SWAP2 POP PUSH2 0x18F3 DUP3 PUSH2 0x18B4 JUMP JUMPDEST PUSH1 0x20 DUP3 ADD SWAP1 POP SWAP2 SWAP1 POP JUMP JUMPDEST PUSH0 PUSH1 0x20 DUP3 ADD SWAP1 POP DUP2 DUP2 SUB PUSH0 DUP4 ADD MSTORE PUSH2 0x1915 DUP2 PUSH2 0x18DC JUMP JUMPDEST SWAP1 POP SWAP2 SWAP1 POP JUMP JUMPDEST PUSH32 0x4E487B7100000000000000000000000000000000000000000000000000000000 PUSH0 MSTORE PUSH1 0x11 PUSH1 0x4 MSTORE PUSH1 0x24 PUSH0 REVERT JUMPDEST PUSH0 PUSH2 0x1953 DUP3 PUSH2 0xDD4 JUMP JUMPDEST SWAP2 POP PUSH0 DUP3 SUB PUSH2 0x1965 JUMPI PUSH2 0x1964 PUSH2 0x191C JUMP JUMPDEST JUMPDEST PUSH1 0x1 DUP3 SUB SWAP1 POP SWAP2 SWAP1 POP JUMP JUMPDEST PUSH0 PUSH1 0x80 DUP3 ADD SWAP1 POP PUSH2 0x1983 PUSH0 DUP4 ADD DUP8 PUSH2 0xE45 JUMP JUMPDEST PUSH2 0x1990 PUSH1 0x20 DUP4 ADD DUP7 PUSH2 0xE45 JUMP JUMPDEST PUSH2 0x199D PUSH1 0x40 DUP4 ADD DUP6 PUSH2 0xEC4 JUMP JUMPDEST PUSH2 0x19AA PUSH1 0x60 DUP4 ADD DUP5 PUSH2 0xEC4 JUMP JUMPDEST SWAP6 SWAP5 POP POP POP POP POP JUMP JUMPDEST PUSH0 PUSH2 0x19BD DUP3 PUSH2 0xDD4 JUMP JUMPDEST SWAP2 POP PUSH32 0xFFFFFFFFFFFFFFFFFFFFFFFFFFFFFFFFFFFFFFFFFFFFFFFFFFFFFFFFFFFFFFFF DUP3 SUB PUSH2 0x19EF JUMPI PUSH2 0x19EE PUSH2 0x191C JUMP JUMPDEST JUMPDEST PUSH1 0x1 DUP3 ADD SWAP1 POP SWAP2 SWAP1 POP JUMP INVALID LOG2 PUSH5 0x6970667358 0x22 SLT KECCAK256 PUSH8 0x8AD2CFA4FC41E18A 0xDB DUP7 PUSH25 0xADAA481002C64A55A4BEFCFE782CC89BC0C4487564736F6C63 NUMBER STOP ADDMOD 0x1E STOP CALLER "
				},
				"gasEstimates": {
					"creation": {
						"codeDepositCost": "1340800",
						"executionCost": "47765",
						"totalCost": "1388565"
					},
					"external": {
						"CheckOwner()": "2603",
						"changeTweeTLength(uint256)": "24772",
						"createTweet(string)": "infinite",
						"getAllTwets(address)": "infinite",
						"getSingleTweet(uint256)": "infinite",
						"getTweetLength()": "2475",
						"likeTweet(uint256,address)": "infinite",
						"owner()": "2508",
						"tweets(address,uint256)": "infinite",
						"unlikeTweet(uint256,address)": "infinite"
					}
				},
				"methodIdentifiers": {
					"CheckOwner()": "fb0c6bfb",
					"changeTweeTLength(uint256)": "85da6f1c",
					"createTweet(string)": "7c9cd2bc",
					"getAllTwets(address)": "46247363",
					"getSingleTweet(uint256)": "61cfc6c7",
					"getTweetLength()": "a2afce88",
					"likeTweet(uint256,address)": "d04ddaa0",
					"owner()": "8da5cb5b",
					"tweets(address,uint256)": "05a1b4a9",
					"unlikeTweet(uint256,address)": "a1488f7c"
				}
			},
			"storageLayout": {
				"storage": [
					{
						"astId": 4,
						"contract": "contracts/Twitter.sol:Twitter",
						"label": "MAXTWEET",
						"offset": 0,
						"slot": "0",
						"type": "t_uint256"
					},
					{
						"astId": 6,
						"contract": "contracts/Twitter.sol:Twitter",
						"label": "owner",
						"offset": 0,
						"slot": "1",
						"type": "t_address"
					},
					{
						"astId": 52,
						"contract": "contracts/Twitter.sol:Twitter",
						"label": "tweets",
						"offset": 0,
						"slot": "2",
						"type": "t_mapping(t_address,t_array(t_struct(Tweet)26_storage)dyn_storage)"
					}
				],
				"types": {
					"t_address": {
						"encoding": "inplace",
						"label": "address",
						"numberOfBytes": "20"
					},
					"t_array(t_struct(Tweet)26_storage)dyn_storage": {
						"base": "t_struct(Tweet)26_storage",
						"encoding": "dynamic_array",
						"label": "struct Twitter.Tweet[]",
						"numberOfBytes": "32"
					},
					"t_mapping(t_address,t_array(t_struct(Tweet)26_storage)dyn_storage)": {
						"encoding": "mapping",
						"key": "t_address",
						"label": "mapping(address => struct Twitter.Tweet[])",
						"numberOfBytes": "32",
						"value": "t_array(t_struct(Tweet)26_storage)dyn_storage"
					},
					"t_string_storage": {
						"encoding": "bytes",
						"label": "string",
						"numberOfBytes": "32"
					},
					"t_struct(Tweet)26_storage": {
						"encoding": "inplace",
						"label": "struct Twitter.Tweet",
						"members": [
							{
								"astId": 17,
								"contract": "contracts/Twitter.sol:Twitter",
								"label": "author",
								"offset": 0,
								"slot": "0",
								"type": "t_address"
							},
							{
								"astId": 19,
								"contract": "contracts/Twitter.sol:Twitter",
								"label": "tweet",
								"offset": 0,
								"slot": "1",
								"type": "t_string_storage"
							},
							{
								"astId": 21,
								"contract": "contracts/Twitter.sol:Twitter",
								"label": "timestamp",
								"offset": 0,
								"slot": "2",
								"type": "t_uint256"
							},
							{
								"astId": 23,
								"contract": "contracts/Twitter.sol:Twitter",
								"label": "likes",
								"offset": 0,
								"slot": "3",
								"type": "t_uint256"
							},
							{
								"astId": 25,
								"contract": "contracts/Twitter.sol:Twitter",
								"label": "id",
								"offset": 0,
								"slot": "4",
								"type": "t_uint256"
							}
						],
						"numberOfBytes": "160"
					},
					"t_uint256": {
						"encoding": "inplace",
						"label": "uint256",
						"numberOfBytes": "32"
					}
				}
			},
			"userdoc": {
				"kind": "user",
				"methods": {},
				"version": 1
			}
		}
	}
}