{
	"contracts/AdvancedCalculator.sol": {
		"AdvancedCalculator": {
			"abi": [
				{
					"inputs": [
						{
							"internalType": "uint256",
							"name": "a",
							"type": "uint256"
						},
						{
							"internalType": "uint256",
							"name": "b",
							"type": "uint256"
						}
					],
					"name": "add",
					"outputs": [
						{
							"internalType": "uint256",
							"name": "",
							"type": "uint256"
						}
					],
					"stateMutability": "pure",
					"type": "function"
				},
				{
					"inputs": [
						{
							"internalType": "uint256",
							"name": "c",
							"type": "uint256"
						}
					],
					"name": "addToTotal",
					"outputs": [],
					"stateMutability": "nonpayable",
					"type": "function"
				},
				{
					"inputs": [
						{
							"internalType": "uint256",
							"name": "a",
							"type": "uint256"
						},
						{
							"internalType": "uint256",
							"name": "b",
							"type": "uint256"
						}
					],
					"name": "divide",
					"outputs": [
						{
							"internalType": "uint256",
							"name": "",
							"type": "uint256"
						}
					],
					"stateMutability": "pure",
					"type": "function"
				},
				{
					"inputs": [],
					"name": "getResult",
					"outputs": [
						{
							"internalType": "uint256",
							"name": "",
							"type": "uint256"
						}
					],
					"stateMutability": "view",
					"type": "function"
				},
				{
					"inputs": [
						{
							"internalType": "uint256",
							"name": "a",
							"type": "uint256"
						},
						{
							"internalType": "uint256",
							"name": "b",
							"type": "uint256"
						}
					],
					"name": "multiply",
					"outputs": [
						{
							"internalType": "uint256",
							"name": "",
							"type": "uint256"
						}
					],
					"stateMutability": "pure",
					"type": "function"
				},
				{
					"inputs": [
						{
							"internalType": "uint256",
							"name": "total",
							"type": "uint256"
						},
						{
							"internalType": "uint256",
							"name": "percent",
							"type": "uint256"
						}
					],
					"name": "percentage",
					"outputs": [
						{
							"internalType": "uint256",
							"name": "",
							"type": "uint256"
						}
					],
					"stateMutability": "pure",
					"type": "function"
				},
				{
					"inputs": [],
					"name": "resetTotal",
					"outputs": [],
					"stateMutability": "nonpayable",
					"type": "function"
				},
				{
					"inputs": [
						{
							"internalType": "uint256",
							"name": "a",
							"type": "uint256"
						},
						{
							"internalType": "uint256",
							"name": "b",
							"type": "uint256"
						}
					],
					"name": "subtract",
					"outputs": [
						{
							"internalType": "uint256",
							"name": "",
							"type": "uint256"
						}
					],
					"stateMutability": "pure",
					"type": "function"
				},
				{
					"inputs": [
						{
							"internalType": "uint256",
							"name": "d",
							"type": "uint256"
						}
					],
					"name": "subtractFromTotal",
					"outputs": [],
					"stateMutability": "nonpayable",
					"type": "function"
				}
			],
			"devdoc": {
				"kind": "dev",
				"methods": {},
				"version": 1
			},
			"evm": {
				"assembly": "    /* \"contracts/AdvancedCalculator.sol\":941:2050  contract AdvancedCalculator {... */\n  mstore(0x40, 0x80)\n  callvalue\n  dup1\n  iszero\n  tag_1\n  jumpi\n  revert(0x00, 0x00)\ntag_1:\n  pop\n  dataSize(sub_0)\n  dup1\n  dataOffset(sub_0)\n  0x00\n  codecopy\n  0x00\n  return\nstop\n\nsub_0: assembly {\n        /* \"contracts/AdvancedCalculator.sol\":941:2050  contract AdvancedCalculator {... */\n      mstore(0x40, 0x80)\n      callvalue\n      dup1\n      iszero\n      tag_1\n      jumpi\n      revert(0x00, 0x00)\n    tag_1:\n      pop\n      jumpi(tag_2, lt(calldatasize, 0x04))\n      shr(0xe0, calldataload(0x00))\n      dup1\n      0x771602f7\n      gt\n      tag_12\n      jumpi\n      dup1\n      0x771602f7\n      eq\n      tag_7\n      jumpi\n      dup1\n      0xc3fdf086\n      eq\n      tag_8\n      jumpi\n      dup1\n      0xc407f67e\n      eq\n      tag_9\n      jumpi\n      dup1\n      0xde292789\n      eq\n      tag_10\n      jumpi\n      dup1\n      0xf88e9fbf\n      eq\n      tag_11\n      jumpi\n      jump(tag_2)\n    tag_12:\n      dup1\n      0x016eb8a8\n      eq\n      tag_3\n      jumpi\n      dup1\n      0x165c4a16\n      eq\n      tag_4\n      jumpi\n      dup1\n      0x3ef5e445\n      eq\n      tag_5\n      jumpi\n      dup1\n      0x623f577a\n      eq\n      tag_6\n      jumpi\n    tag_2:\n      revert(0x00, 0x00)\n        /* \"contracts/AdvancedCalculator.sol\":1916:2047  function percentage(uint256 total, uint256 percent) public pure returns (uint256) {... */\n    tag_3:\n      tag_13\n      0x04\n      dup1\n      calldatasize\n      sub\n      dup2\n      add\n      swap1\n      tag_14\n      swap2\n      swap1\n      tag_15\n      jump\t// in\n    tag_14:\n      tag_16\n      jump\t// in\n    tag_13:\n      mload(0x40)\n      tag_17\n      swap2\n      swap1\n      tag_18\n      jump\t// in\n    tag_17:\n      mload(0x40)\n      dup1\n      swap2\n      sub\n      swap1\n      return\n        /* \"contracts/AdvancedCalculator.sol\":1259:1360  function multiply(uint256 a, uint256 b) public pure returns (uint256) {... */\n    tag_4:\n      tag_19\n      0x04\n      dup1\n      calldatasize\n      sub\n      dup2\n      add\n      swap1\n      tag_20\n      swap2\n      swap1\n      tag_15\n      jump\t// in\n    tag_20:\n      tag_21\n      jump\t// in\n    tag_19:\n      mload(0x40)\n      tag_22\n      swap2\n      swap1\n      tag_18\n      jump\t// in\n    tag_22:\n      mload(0x40)\n      dup1\n      swap2\n      sub\n      swap1\n      return\n        /* \"contracts/AdvancedCalculator.sol\":1150:1251  function subtract(uint256 a, uint256 b) public pure returns (uint256) {... */\n    tag_5:\n      tag_23\n      0x04\n      dup1\n      calldatasize\n      sub\n      dup2\n      add\n      swap1\n      tag_24\n      swap2\n      swap1\n      tag_15\n      jump\t// in\n    tag_24:\n      tag_25\n      jump\t// in\n    tag_23:\n      mload(0x40)\n      tag_26\n      swap2\n      swap1\n      tag_18\n      jump\t// in\n    tag_26:\n      mload(0x40)\n      dup1\n      swap2\n      sub\n      swap1\n      return\n        /* \"contracts/AdvancedCalculator.sol\":1564:1632  function addToTotal(uint256 c) public {... */\n    tag_6:\n      tag_27\n      0x04\n      dup1\n      calldatasize\n      sub\n      dup2\n      add\n      swap1\n      tag_28\n      swap2\n      swap1\n      tag_29\n      jump\t// in\n    tag_28:\n      tag_30\n      jump\t// in\n    tag_27:\n      stop\n        /* \"contracts/AdvancedCalculator.sol\":1046:1142  function add(uint256 a, uint256 b) public pure returns (uint256) {... */\n    tag_7:\n      tag_31\n      0x04\n      dup1\n      calldatasize\n      sub\n      dup2\n      add\n      swap1\n      tag_32\n      swap2\n      swap1\n      tag_15\n      jump\t// in\n    tag_32:\n      tag_33\n      jump\t// in\n    tag_31:\n      mload(0x40)\n      tag_34\n      swap2\n      swap1\n      tag_18\n      jump\t// in\n    tag_34:\n      mload(0x40)\n      dup1\n      swap2\n      sub\n      swap1\n      return\n        /* \"contracts/AdvancedCalculator.sol\":1723:1781  function resetTotal() public {... */\n    tag_8:\n      tag_35\n      tag_36\n      jump\t// in\n    tag_35:\n      stop\n        /* \"contracts/AdvancedCalculator.sol\":1640:1715  function subtractFromTotal(uint256 d) public {... */\n    tag_9:\n      tag_37\n      0x04\n      dup1\n      calldatasize\n      sub\n      dup2\n      add\n      swap1\n      tag_38\n      swap2\n      swap1\n      tag_29\n      jump\t// in\n    tag_38:\n      tag_39\n      jump\t// in\n    tag_37:\n      stop\n        /* \"contracts/AdvancedCalculator.sol\":1789:1872  function getResult() public view returns (uint256) {... */\n    tag_10:\n      tag_40\n      tag_41\n      jump\t// in\n    tag_40:\n      mload(0x40)\n      tag_42\n      swap2\n      swap1\n      tag_18\n      jump\t// in\n    tag_42:\n      mload(0x40)\n      dup1\n      swap2\n      sub\n      swap1\n      return\n        /* \"contracts/AdvancedCalculator.sol\":1368:1528  function divide(uint256 a, uint256 b) public pure returns (uint256) {... */\n    tag_11:\n      tag_43\n      0x04\n      dup1\n      calldatasize\n      sub\n      dup2\n      add\n      swap1\n      tag_44\n      swap2\n      swap1\n      tag_15\n      jump\t// in\n    tag_44:\n      tag_45\n      jump\t// in\n    tag_43:\n      mload(0x40)\n      tag_46\n      swap2\n      swap1\n      tag_18\n      jump\t// in\n    tag_46:\n      mload(0x40)\n      dup1\n      swap2\n      sub\n      swap1\n      return\n        /* \"contracts/AdvancedCalculator.sol\":1916:2047  function percentage(uint256 total, uint256 percent) public pure returns (uint256) {... */\n    tag_16:\n        /* \"contracts/AdvancedCalculator.sol\":1989:1996  uint256 */\n      0x00\n        /* \"contracts/AdvancedCalculator.sol\":2036:2039  100 */\n      0x64\n        /* \"contracts/AdvancedCalculator.sol\":2025:2032  percent */\n      dup3\n        /* \"contracts/AdvancedCalculator.sol\":2017:2022  total */\n      dup5\n        /* \"contracts/AdvancedCalculator.sol\":2017:2032  total * percent */\n      tag_48\n      swap2\n      swap1\n      tag_49\n      jump\t// in\n    tag_48:\n        /* \"contracts/AdvancedCalculator.sol\":2016:2039  (total * percent) / 100 */\n      tag_50\n      swap2\n      swap1\n      tag_51\n      jump\t// in\n    tag_50:\n        /* \"contracts/AdvancedCalculator.sol\":2009:2039  return (total * percent) / 100 */\n      swap1\n      pop\n        /* \"contracts/AdvancedCalculator.sol\":1916:2047  function percentage(uint256 total, uint256 percent) public pure returns (uint256) {... */\n      swap3\n      swap2\n      pop\n      pop\n      jump\t// out\n        /* \"contracts/AdvancedCalculator.sol\":1259:1360  function multiply(uint256 a, uint256 b) public pure returns (uint256) {... */\n    tag_21:\n        /* \"contracts/AdvancedCalculator.sol\":1320:1327  uint256 */\n      0x00\n        /* \"contracts/AdvancedCalculator.sol\":1351:1352  b */\n      dup2\n        /* \"contracts/AdvancedCalculator.sol\":1347:1348  a */\n      dup4\n        /* \"contracts/AdvancedCalculator.sol\":1347:1352  a * b */\n      tag_53\n      swap2\n      swap1\n      tag_49\n      jump\t// in\n    tag_53:\n        /* \"contracts/AdvancedCalculator.sol\":1340:1352  return a * b */\n      swap1\n      pop\n        /* \"contracts/AdvancedCalculator.sol\":1259:1360  function multiply(uint256 a, uint256 b) public pure returns (uint256) {... */\n      swap3\n      swap2\n      pop\n      pop\n      jump\t// out\n        /* \"contracts/AdvancedCalculator.sol\":1150:1251  function subtract(uint256 a, uint256 b) public pure returns (uint256) {... */\n    tag_25:\n        /* \"contracts/AdvancedCalculator.sol\":1211:1218  uint256 */\n      0x00\n        /* \"contracts/AdvancedCalculator.sol\":1242:1243  b */\n      dup2\n        /* \"contracts/AdvancedCalculator.sol\":1238:1239  a */\n      dup4\n        /* \"contracts/AdvancedCalculator.sol\":1238:1243  a - b */\n      tag_55\n      swap2\n      swap1\n      tag_56\n      jump\t// in\n    tag_55:\n        /* \"contracts/AdvancedCalculator.sol\":1231:1243  return a - b */\n      swap1\n      pop\n        /* \"contracts/AdvancedCalculator.sol\":1150:1251  function subtract(uint256 a, uint256 b) public pure returns (uint256) {... */\n      swap3\n      swap2\n      pop\n      pop\n      jump\t// out\n        /* \"contracts/AdvancedCalculator.sol\":1564:1632  function addToTotal(uint256 c) public {... */\n    tag_30:\n        /* \"contracts/AdvancedCalculator.sol\":1623:1624  c */\n      dup1\n        /* \"contracts/AdvancedCalculator.sol\":1613:1619  result */\n      0x00\n      0x00\n        /* \"contracts/AdvancedCalculator.sol\":1613:1624  result += c */\n      dup3\n      dup3\n      sload\n      tag_58\n      swap2\n      swap1\n      tag_59\n      jump\t// in\n    tag_58:\n      swap3\n      pop\n      pop\n      dup2\n      swap1\n      sstore\n      pop\n        /* \"contracts/AdvancedCalculator.sol\":1564:1632  function addToTotal(uint256 c) public {... */\n      pop\n      jump\t// out\n        /* \"contracts/AdvancedCalculator.sol\":1046:1142  function add(uint256 a, uint256 b) public pure returns (uint256) {... */\n    tag_33:\n        /* \"contracts/AdvancedCalculator.sol\":1102:1109  uint256 */\n      0x00\n        /* \"contracts/AdvancedCalculator.sol\":1133:1134  b */\n      dup2\n        /* \"contracts/AdvancedCalculator.sol\":1129:1130  a */\n      dup4\n        /* \"contracts/AdvancedCalculator.sol\":1129:1134  a + b */\n      tag_61\n      swap2\n      swap1\n      tag_59\n      jump\t// in\n    tag_61:\n        /* \"contracts/AdvancedCalculator.sol\":1122:1134  return a + b */\n      swap1\n      pop\n        /* \"contracts/AdvancedCalculator.sol\":1046:1142  function add(uint256 a, uint256 b) public pure returns (uint256) {... */\n      swap3\n      swap2\n      pop\n      pop\n      jump\t// out\n        /* \"contracts/AdvancedCalculator.sol\":1723:1781  function resetTotal() public {... */\n    tag_36:\n        /* \"contracts/AdvancedCalculator.sol\":1772:1773  0 */\n      0x00\n        /* \"contracts/AdvancedCalculator.sol\":1763:1769  result */\n      0x00\n        /* \"contracts/AdvancedCalculator.sol\":1763:1773  result = 0 */\n      dup2\n      swap1\n      sstore\n      pop\n        /* \"contracts/AdvancedCalculator.sol\":1723:1781  function resetTotal() public {... */\n      jump\t// out\n        /* \"contracts/AdvancedCalculator.sol\":1640:1715  function subtractFromTotal(uint256 d) public {... */\n    tag_39:\n        /* \"contracts/AdvancedCalculator.sol\":1706:1707  d */\n      dup1\n        /* \"contracts/AdvancedCalculator.sol\":1696:1702  result */\n      0x00\n      0x00\n        /* \"contracts/AdvancedCalculator.sol\":1696:1707  result -= d */\n      dup3\n      dup3\n      sload\n      tag_64\n      swap2\n      swap1\n      tag_56\n      jump\t// in\n    tag_64:\n      swap3\n      pop\n      pop\n      dup2\n      swap1\n      sstore\n      pop\n        /* \"contracts/AdvancedCalculator.sol\":1640:1715  function subtractFromTotal(uint256 d) public {... */\n      pop\n      jump\t// out\n        /* \"contracts/AdvancedCalculator.sol\":1789:1872  function getResult() public view returns (uint256) {... */\n    tag_41:\n        /* \"contracts/AdvancedCalculator.sol\":1831:1838  uint256 */\n      0x00\n        /* \"contracts/AdvancedCalculator.sol\":1858:1864  result */\n      sload(0x00)\n        /* \"contracts/AdvancedCalculator.sol\":1851:1864  return result */\n      swap1\n      pop\n        /* \"contracts/AdvancedCalculator.sol\":1789:1872  function getResult() public view returns (uint256) {... */\n      swap1\n      jump\t// out\n        /* \"contracts/AdvancedCalculator.sol\":1368:1528  function divide(uint256 a, uint256 b) public pure returns (uint256) {... */\n    tag_45:\n        /* \"contracts/AdvancedCalculator.sol\":1427:1434  uint256 */\n      0x00\n        /* \"contracts/AdvancedCalculator.sol\":1460:1461  0 */\n      0x00\n        /* \"contracts/AdvancedCalculator.sol\":1455:1456  b */\n      dup3\n        /* \"contracts/AdvancedCalculator.sol\":1455:1461  b != 0 */\n      sub\n        /* \"contracts/AdvancedCalculator.sol\":1447:1497  require(b != 0, \"Division by zero is not allowed\") */\n      tag_67\n      jumpi\n      mload(0x40)\n      0x08c379a000000000000000000000000000000000000000000000000000000000\n      dup2\n      mstore\n      0x04\n      add\n      tag_68\n      swap1\n      tag_69\n      jump\t// in\n    tag_68:\n      mload(0x40)\n      dup1\n      swap2\n      sub\n      swap1\n      revert\n    tag_67:\n        /* \"contracts/AdvancedCalculator.sol\":1519:1520  b */\n      dup2\n        /* \"contracts/AdvancedCalculator.sol\":1515:1516  a */\n      dup4\n        /* \"contracts/AdvancedCalculator.sol\":1515:1520  a / b */\n      tag_70\n      swap2\n      swap1\n      tag_51\n      jump\t// in\n    tag_70:\n        /* \"contracts/AdvancedCalculator.sol\":1508:1520  return a / b */\n      swap1\n      pop\n        /* \"contracts/AdvancedCalculator.sol\":1368:1528  function divide(uint256 a, uint256 b) public pure returns (uint256) {... */\n      swap3\n      swap2\n      pop\n      pop\n      jump\t// out\n        /* \"#utility.yul\":88:205   */\n    tag_72:\n        /* \"#utility.yul\":197:198   */\n      0x00\n        /* \"#utility.yul\":194:195   */\n      0x00\n        /* \"#utility.yul\":187:199   */\n      revert\n        /* \"#utility.yul\":334:411   */\n    tag_74:\n        /* \"#utility.yul\":371:378   */\n      0x00\n        /* \"#utility.yul\":400:405   */\n      dup2\n        /* \"#utility.yul\":389:405   */\n      swap1\n      pop\n        /* \"#utility.yul\":334:411   */\n      swap2\n      swap1\n      pop\n      jump\t// out\n        /* \"#utility.yul\":417:539   */\n    tag_75:\n        /* \"#utility.yul\":490:514   */\n      tag_89\n        /* \"#utility.yul\":508:513   */\n      dup2\n        /* \"#utility.yul\":490:514   */\n      tag_74\n      jump\t// in\n    tag_89:\n        /* \"#utility.yul\":483:488   */\n      dup2\n        /* \"#utility.yul\":480:515   */\n      eq\n        /* \"#utility.yul\":470:533   */\n      tag_90\n      jumpi\n        /* \"#utility.yul\":529:530   */\n      0x00\n        /* \"#utility.yul\":526:527   */\n      0x00\n        /* \"#utility.yul\":519:531   */\n      revert\n        /* \"#utility.yul\":470:533   */\n    tag_90:\n        /* \"#utility.yul\":417:539   */\n      pop\n      jump\t// out\n        /* \"#utility.yul\":545:684   */\n    tag_76:\n        /* \"#utility.yul\":591:596   */\n      0x00\n        /* \"#utility.yul\":629:635   */\n      dup2\n        /* \"#utility.yul\":616:636   */\n      calldataload\n        /* \"#utility.yul\":607:636   */\n      swap1\n      pop\n        /* \"#utility.yul\":645:678   */\n      tag_92\n        /* \"#utility.yul\":672:677   */\n      dup2\n        /* \"#utility.yul\":645:678   */\n      tag_75\n      jump\t// in\n    tag_92:\n        /* \"#utility.yul\":545:684   */\n      swap3\n      swap2\n      pop\n      pop\n      jump\t// out\n        /* \"#utility.yul\":690:1164   */\n    tag_15:\n        /* \"#utility.yul\":758:764   */\n      0x00\n        /* \"#utility.yul\":766:772   */\n      0x00\n        /* \"#utility.yul\":815:817   */\n      0x40\n        /* \"#utility.yul\":803:812   */\n      dup4\n        /* \"#utility.yul\":794:801   */\n      dup6\n        /* \"#utility.yul\":790:813   */\n      sub\n        /* \"#utility.yul\":786:818   */\n      slt\n        /* \"#utility.yul\":783:902   */\n      iszero\n      tag_94\n      jumpi\n        /* \"#utility.yul\":821:900   */\n      tag_95\n      tag_72\n      jump\t// in\n    tag_95:\n        /* \"#utility.yul\":783:902   */\n    tag_94:\n        /* \"#utility.yul\":941:942   */\n      0x00\n        /* \"#utility.yul\":966:1019   */\n      tag_96\n        /* \"#utility.yul\":1011:1018   */\n      dup6\n        /* \"#utility.yul\":1002:1008   */\n      dup3\n        /* \"#utility.yul\":991:1000   */\n      dup7\n        /* \"#utility.yul\":987:1009   */\n      add\n        /* \"#utility.yul\":966:1019   */\n      tag_76\n      jump\t// in\n    tag_96:\n        /* \"#utility.yul\":956:1019   */\n      swap3\n      pop\n        /* \"#utility.yul\":912:1029   */\n      pop\n        /* \"#utility.yul\":1068:1070   */\n      0x20\n        /* \"#utility.yul\":1094:1147   */\n      tag_97\n        /* \"#utility.yul\":1139:1146   */\n      dup6\n        /* \"#utility.yul\":1130:1136   */\n      dup3\n        /* \"#utility.yul\":1119:1128   */\n      dup7\n        /* \"#utility.yul\":1115:1137   */\n      add\n        /* \"#utility.yul\":1094:1147   */\n      tag_76\n      jump\t// in\n    tag_97:\n        /* \"#utility.yul\":1084:1147   */\n      swap2\n      pop\n        /* \"#utility.yul\":1039:1157   */\n      pop\n        /* \"#utility.yul\":690:1164   */\n      swap3\n      pop\n      swap3\n      swap1\n      pop\n      jump\t// out\n        /* \"#utility.yul\":1170:1288   */\n    tag_77:\n        /* \"#utility.yul\":1257:1281   */\n      tag_99\n        /* \"#utility.yul\":1275:1280   */\n      dup2\n        /* \"#utility.yul\":1257:1281   */\n      tag_74\n      jump\t// in\n    tag_99:\n        /* \"#utility.yul\":1252:1255   */\n      dup3\n        /* \"#utility.yul\":1245:1282   */\n      mstore\n        /* \"#utility.yul\":1170:1288   */\n      pop\n      pop\n      jump\t// out\n        /* \"#utility.yul\":1294:1516   */\n    tag_18:\n        /* \"#utility.yul\":1387:1391   */\n      0x00\n        /* \"#utility.yul\":1425:1427   */\n      0x20\n        /* \"#utility.yul\":1414:1423   */\n      dup3\n        /* \"#utility.yul\":1410:1428   */\n      add\n        /* \"#utility.yul\":1402:1428   */\n      swap1\n      pop\n        /* \"#utility.yul\":1438:1509   */\n      tag_101\n        /* \"#utility.yul\":1506:1507   */\n      0x00\n        /* \"#utility.yul\":1495:1504   */\n      dup4\n        /* \"#utility.yul\":1491:1508   */\n      add\n        /* \"#utility.yul\":1482:1488   */\n      dup5\n        /* \"#utility.yul\":1438:1509   */\n      tag_77\n      jump\t// in\n    tag_101:\n        /* \"#utility.yul\":1294:1516   */\n      swap3\n      swap2\n      pop\n      pop\n      jump\t// out\n        /* \"#utility.yul\":1522:1851   */\n    tag_29:\n        /* \"#utility.yul\":1581:1587   */\n      0x00\n        /* \"#utility.yul\":1630:1632   */\n      0x20\n        /* \"#utility.yul\":1618:1627   */\n      dup3\n        /* \"#utility.yul\":1609:1616   */\n      dup5\n        /* \"#utility.yul\":1605:1628   */\n      sub\n        /* \"#utility.yul\":1601:1633   */\n      slt\n        /* \"#utility.yul\":1598:1717   */\n      iszero\n      tag_103\n      jumpi\n        /* \"#utility.yul\":1636:1715   */\n      tag_104\n      tag_72\n      jump\t// in\n    tag_104:\n        /* \"#utility.yul\":1598:1717   */\n    tag_103:\n        /* \"#utility.yul\":1756:1757   */\n      0x00\n        /* \"#utility.yul\":1781:1834   */\n      tag_105\n        /* \"#utility.yul\":1826:1833   */\n      dup5\n        /* \"#utility.yul\":1817:1823   */\n      dup3\n        /* \"#utility.yul\":1806:1815   */\n      dup6\n        /* \"#utility.yul\":1802:1824   */\n      add\n        /* \"#utility.yul\":1781:1834   */\n      tag_76\n      jump\t// in\n    tag_105:\n        /* \"#utility.yul\":1771:1834   */\n      swap2\n      pop\n        /* \"#utility.yul\":1727:1844   */\n      pop\n        /* \"#utility.yul\":1522:1851   */\n      swap3\n      swap2\n      pop\n      pop\n      jump\t// out\n        /* \"#utility.yul\":1857:2037   */\n    tag_78:\n        /* \"#utility.yul\":1905:1982   */\n      0x4e487b7100000000000000000000000000000000000000000000000000000000\n        /* \"#utility.yul\":1902:1903   */\n      0x00\n        /* \"#utility.yul\":1895:1983   */\n      mstore\n        /* \"#utility.yul\":2002:2006   */\n      0x11\n        /* \"#utility.yul\":1999:2000   */\n      0x04\n        /* \"#utility.yul\":1992:2007   */\n      mstore\n        /* \"#utility.yul\":2026:2030   */\n      0x24\n        /* \"#utility.yul\":2023:2024   */\n      0x00\n        /* \"#utility.yul\":2016:2031   */\n      revert\n        /* \"#utility.yul\":2043:2453   */\n    tag_49:\n        /* \"#utility.yul\":2083:2090   */\n      0x00\n        /* \"#utility.yul\":2106:2126   */\n      tag_108\n        /* \"#utility.yul\":2124:2125   */\n      dup3\n        /* \"#utility.yul\":2106:2126   */\n      tag_74\n      jump\t// in\n    tag_108:\n        /* \"#utility.yul\":2101:2126   */\n      swap2\n      pop\n        /* \"#utility.yul\":2140:2160   */\n      tag_109\n        /* \"#utility.yul\":2158:2159   */\n      dup4\n        /* \"#utility.yul\":2140:2160   */\n      tag_74\n      jump\t// in\n    tag_109:\n        /* \"#utility.yul\":2135:2160   */\n      swap3\n      pop\n        /* \"#utility.yul\":2195:2196   */\n      dup3\n        /* \"#utility.yul\":2192:2193   */\n      dup3\n        /* \"#utility.yul\":2188:2197   */\n      mul\n        /* \"#utility.yul\":2217:2247   */\n      tag_110\n        /* \"#utility.yul\":2235:2246   */\n      dup2\n        /* \"#utility.yul\":2217:2247   */\n      tag_74\n      jump\t// in\n    tag_110:\n        /* \"#utility.yul\":2206:2247   */\n      swap2\n      pop\n        /* \"#utility.yul\":2396:2397   */\n      dup3\n        /* \"#utility.yul\":2387:2394   */\n      dup3\n        /* \"#utility.yul\":2383:2398   */\n      div\n        /* \"#utility.yul\":2380:2381   */\n      dup5\n        /* \"#utility.yul\":2377:2399   */\n      eq\n        /* \"#utility.yul\":2357:2358   */\n      dup4\n        /* \"#utility.yul\":2350:2359   */\n      iszero\n        /* \"#utility.yul\":2330:2413   */\n      or\n        /* \"#utility.yul\":2307:2446   */\n      tag_111\n      jumpi\n        /* \"#utility.yul\":2426:2444   */\n      tag_112\n      tag_78\n      jump\t// in\n    tag_112:\n        /* \"#utility.yul\":2307:2446   */\n    tag_111:\n        /* \"#utility.yul\":2091:2453   */\n      pop\n        /* \"#utility.yul\":2043:2453   */\n      swap3\n      swap2\n      pop\n      pop\n      jump\t// out\n        /* \"#utility.yul\":2459:2639   */\n    tag_79:\n        /* \"#utility.yul\":2507:2584   */\n      0x4e487b7100000000000000000000000000000000000000000000000000000000\n        /* \"#utility.yul\":2504:2505   */\n      0x00\n        /* \"#utility.yul\":2497:2585   */\n      mstore\n        /* \"#utility.yul\":2604:2608   */\n      0x12\n        /* \"#utility.yul\":2601:2602   */\n      0x04\n        /* \"#utility.yul\":2594:2609   */\n      mstore\n        /* \"#utility.yul\":2628:2632   */\n      0x24\n        /* \"#utility.yul\":2625:2626   */\n      0x00\n        /* \"#utility.yul\":2618:2633   */\n      revert\n        /* \"#utility.yul\":2645:2830   */\n    tag_51:\n        /* \"#utility.yul\":2685:2686   */\n      0x00\n        /* \"#utility.yul\":2702:2722   */\n      tag_115\n        /* \"#utility.yul\":2720:2721   */\n      dup3\n        /* \"#utility.yul\":2702:2722   */\n      tag_74\n      jump\t// in\n    tag_115:\n        /* \"#utility.yul\":2697:2722   */\n      swap2\n      pop\n        /* \"#utility.yul\":2736:2756   */\n      tag_116\n        /* \"#utility.yul\":2754:2755   */\n      dup4\n        /* \"#utility.yul\":2736:2756   */\n      tag_74\n      jump\t// in\n    tag_116:\n        /* \"#utility.yul\":2731:2756   */\n      swap3\n      pop\n        /* \"#utility.yul\":2775:2776   */\n      dup3\n        /* \"#utility.yul\":2765:2800   */\n      tag_117\n      jumpi\n        /* \"#utility.yul\":2780:2798   */\n      tag_118\n      tag_79\n      jump\t// in\n    tag_118:\n        /* \"#utility.yul\":2765:2800   */\n    tag_117:\n        /* \"#utility.yul\":2822:2823   */\n      dup3\n        /* \"#utility.yul\":2819:2820   */\n      dup3\n        /* \"#utility.yul\":2815:2824   */\n      div\n        /* \"#utility.yul\":2810:2824   */\n      swap1\n      pop\n        /* \"#utility.yul\":2645:2830   */\n      swap3\n      swap2\n      pop\n      pop\n      jump\t// out\n        /* \"#utility.yul\":2836:3030   */\n    tag_56:\n        /* \"#utility.yul\":2876:2880   */\n      0x00\n        /* \"#utility.yul\":2896:2916   */\n      tag_120\n        /* \"#utility.yul\":2914:2915   */\n      dup3\n        /* \"#utility.yul\":2896:2916   */\n      tag_74\n      jump\t// in\n    tag_120:\n        /* \"#utility.yul\":2891:2916   */\n      swap2\n      pop\n        /* \"#utility.yul\":2930:2950   */\n      tag_121\n        /* \"#utility.yul\":2948:2949   */\n      dup4\n        /* \"#utility.yul\":2930:2950   */\n      tag_74\n      jump\t// in\n    tag_121:\n        /* \"#utility.yul\":2925:2950   */\n      swap3\n      pop\n        /* \"#utility.yul\":2974:2975   */\n      dup3\n        /* \"#utility.yul\":2971:2972   */\n      dup3\n        /* \"#utility.yul\":2967:2976   */\n      sub\n        /* \"#utility.yul\":2959:2976   */\n      swap1\n      pop\n        /* \"#utility.yul\":2998:2999   */\n      dup2\n        /* \"#utility.yul\":2992:2996   */\n      dup2\n        /* \"#utility.yul\":2989:3000   */\n      gt\n        /* \"#utility.yul\":2986:3023   */\n      iszero\n      tag_122\n      jumpi\n        /* \"#utility.yul\":3003:3021   */\n      tag_123\n      tag_78\n      jump\t// in\n    tag_123:\n        /* \"#utility.yul\":2986:3023   */\n    tag_122:\n        /* \"#utility.yul\":2836:3030   */\n      swap3\n      swap2\n      pop\n      pop\n      jump\t// out\n        /* \"#utility.yul\":3036:3227   */\n    tag_59:\n        /* \"#utility.yul\":3076:3079   */\n      0x00\n        /* \"#utility.yul\":3095:3115   */\n      tag_125\n        /* \"#utility.yul\":3113:3114   */\n      dup3\n        /* \"#utility.yul\":3095:3115   */\n      tag_74\n      jump\t// in\n    tag_125:\n        /* \"#utility.yul\":3090:3115   */\n      swap2\n      pop\n        /* \"#utility.yul\":3129:3149   */\n      tag_126\n        /* \"#utility.yul\":3147:3148   */\n      dup4\n        /* \"#utility.yul\":3129:3149   */\n      tag_74\n      jump\t// in\n    tag_126:\n        /* \"#utility.yul\":3124:3149   */\n      swap3\n      pop\n        /* \"#utility.yul\":3172:3173   */\n      dup3\n        /* \"#utility.yul\":3169:3170   */\n      dup3\n        /* \"#utility.yul\":3165:3174   */\n      add\n        /* \"#utility.yul\":3158:3174   */\n      swap1\n      pop\n        /* \"#utility.yul\":3193:3196   */\n      dup1\n        /* \"#utility.yul\":3190:3191   */\n      dup3\n        /* \"#utility.yul\":3187:3197   */\n      gt\n        /* \"#utility.yul\":3184:3220   */\n      iszero\n      tag_127\n      jumpi\n        /* \"#utility.yul\":3200:3218   */\n      tag_128\n      tag_78\n      jump\t// in\n    tag_128:\n        /* \"#utility.yul\":3184:3220   */\n    tag_127:\n        /* \"#utility.yul\":3036:3227   */\n      swap3\n      swap2\n      pop\n      pop\n      jump\t// out\n        /* \"#utility.yul\":3233:3402   */\n    tag_80:\n        /* \"#utility.yul\":3317:3328   */\n      0x00\n        /* \"#utility.yul\":3351:3357   */\n      dup3\n        /* \"#utility.yul\":3346:3349   */\n      dup3\n        /* \"#utility.yul\":3339:3358   */\n      mstore\n        /* \"#utility.yul\":3391:3395   */\n      0x20\n        /* \"#utility.yul\":3386:3389   */\n      dup3\n        /* \"#utility.yul\":3382:3396   */\n      add\n        /* \"#utility.yul\":3367:3396   */\n      swap1\n      pop\n        /* \"#utility.yul\":3233:3402   */\n      swap3\n      swap2\n      pop\n      pop\n      jump\t// out\n        /* \"#utility.yul\":3408:3589   */\n    tag_81:\n        /* \"#utility.yul\":3548:3581   */\n      0x4469766973696f6e206279207a65726f206973206e6f7420616c6c6f77656400\n        /* \"#utility.yul\":3544:3545   */\n      0x00\n        /* \"#utility.yul\":3536:3542   */\n      dup3\n        /* \"#utility.yul\":3532:3546   */\n      add\n        /* \"#utility.yul\":3525:3582   */\n      mstore\n        /* \"#utility.yul\":3408:3589   */\n      pop\n      jump\t// out\n        /* \"#utility.yul\":3595:3961   */\n    tag_82:\n        /* \"#utility.yul\":3737:3740   */\n      0x00\n        /* \"#utility.yul\":3758:3825   */\n      tag_132\n        /* \"#utility.yul\":3822:3824   */\n      0x1f\n        /* \"#utility.yul\":3817:3820   */\n      dup4\n        /* \"#utility.yul\":3758:3825   */\n      tag_80\n      jump\t// in\n    tag_132:\n        /* \"#utility.yul\":3751:3825   */\n      swap2\n      pop\n        /* \"#utility.yul\":3834:3927   */\n      tag_133\n        /* \"#utility.yul\":3923:3926   */\n      dup3\n        /* \"#utility.yul\":3834:3927   */\n      tag_81\n      jump\t// in\n    tag_133:\n        /* \"#utility.yul\":3952:3954   */\n      0x20\n        /* \"#utility.yul\":3947:3950   */\n      dup3\n        /* \"#utility.yul\":3943:3955   */\n      add\n        /* \"#utility.yul\":3936:3955   */\n      swap1\n      pop\n        /* \"#utility.yul\":3595:3961   */\n      swap2\n      swap1\n      pop\n      jump\t// out\n        /* \"#utility.yul\":3967:4386   */\n    tag_69:\n        /* \"#utility.yul\":4133:4137   */\n      0x00\n        /* \"#utility.yul\":4171:4173   */\n      0x20\n        /* \"#utility.yul\":4160:4169   */\n      dup3\n        /* \"#utility.yul\":4156:4174   */\n      add\n        /* \"#utility.yul\":4148:4174   */\n      swap1\n      pop\n        /* \"#utility.yul\":4220:4229   */\n      dup2\n        /* \"#utility.yul\":4214:4218   */\n      dup2\n        /* \"#utility.yul\":4210:4230   */\n      sub\n        /* \"#utility.yul\":4206:4207   */\n      0x00\n        /* \"#utility.yul\":4195:4204   */\n      dup4\n        /* \"#utility.yul\":4191:4208   */\n      add\n        /* \"#utility.yul\":4184:4231   */\n      mstore\n        /* \"#utility.yul\":4248:4379   */\n      tag_135\n        /* \"#utility.yul\":4374:4378   */\n      dup2\n        /* \"#utility.yul\":4248:4379   */\n      tag_82\n      jump\t// in\n    tag_135:\n        /* \"#utility.yul\":4240:4379   */\n      swap1\n      pop\n        /* \"#utility.yul\":3967:4386   */\n      swap2\n      swap1\n      pop\n      jump\t// out\n\n    auxdata: 0xa26469706673582212203609bee80efc4e7b4e0ce95fd6a8cc484bf8311a3399f0c4759100a08e7d608c64736f6c634300081e0033\n}\n",
				"bytecode": {
					"linkReferences": {},
					"object": "6080604052348015600e575f5ffd5b506105878061001c5f395ff3fe608060405234801561000f575f5ffd5b5060043610610091575f3560e01c8063771602f711610064578063771602f714610141578063c3fdf08614610171578063c407f67e1461017b578063de29278914610197578063f88e9fbf146101b557610091565b8063016eb8a814610095578063165c4a16146100c55780633ef5e445146100f5578063623f577a14610125575b5f5ffd5b6100af60048036038101906100aa9190610317565b6101e5565b6040516100bc9190610364565b60405180910390f35b6100df60048036038101906100da9190610317565b610206565b6040516100ec9190610364565b60405180910390f35b61010f600480360381019061010a9190610317565b61021b565b60405161011c9190610364565b60405180910390f35b61013f600480360381019061013a919061037d565b610230565b005b61015b60048036038101906101569190610317565b61024a565b6040516101689190610364565b60405180910390f35b61017961025f565b005b6101956004803603810190610190919061037d565b610267565b005b61019f610281565b6040516101ac9190610364565b60405180910390f35b6101cf60048036038101906101ca9190610317565b610289565b6040516101dc9190610364565b60405180910390f35b5f606482846101f491906103d5565b6101fe9190610443565b905092915050565b5f818361021391906103d5565b905092915050565b5f81836102289190610473565b905092915050565b805f5f82825461024091906104a6565b9250508190555050565b5f818361025791906104a6565b905092915050565b5f5f81905550565b805f5f8282546102779190610473565b9250508190555050565b5f5f54905090565b5f5f82036102cc576040517f08c379a00000000000000000000000000000000000000000000000000000000081526004016102c390610533565b60405180910390fd5b81836102d89190610443565b905092915050565b5f5ffd5b5f819050919050565b6102f6816102e4565b8114610300575f5ffd5b50565b5f81359050610311816102ed565b92915050565b5f5f6040838503121561032d5761032c6102e0565b5b5f61033a85828601610303565b925050602061034b85828601610303565b9150509250929050565b61035e816102e4565b82525050565b5f6020820190506103775f830184610355565b92915050565b5f60208284031215610392576103916102e0565b5b5f61039f84828501610303565b91505092915050565b7f4e487b71000000000000000000000000000000000000000000000000000000005f52601160045260245ffd5b5f6103df826102e4565b91506103ea836102e4565b92508282026103f8816102e4565b9150828204841483151761040f5761040e6103a8565b5b5092915050565b7f4e487b71000000000000000000000000000000000000000000000000000000005f52601260045260245ffd5b5f61044d826102e4565b9150610458836102e4565b92508261046857610467610416565b5b828204905092915050565b5f61047d826102e4565b9150610488836102e4565b92508282039050818111156104a05761049f6103a8565b5b92915050565b5f6104b0826102e4565b91506104bb836102e4565b92508282019050808211156104d3576104d26103a8565b5b92915050565b5f82825260208201905092915050565b7f4469766973696f6e206279207a65726f206973206e6f7420616c6c6f776564005f82015250565b5f61051d601f836104d9565b9150610528826104e9565b602082019050919050565b5f6020820190508181035f83015261054a81610511565b905091905056fea26469706673582212203609bee80efc4e7b4e0ce95fd6a8cc484bf8311a3399f0c4759100a08e7d608c64736f6c634300081e0033",
					"opcodes": "PUSH1 0x80 PUSH1 0x40 MSTORE CALLVALUE DUP1 ISZERO PUSH1 0xE JUMPI PUSH0 PUSH0 REVERT JUMPDEST POP PUSH2 0x587 DUP1 PUSH2 0x1C PUSH0 CODECOPY PUSH0 RETURN INVALID PUSH1 0x80 PUSH1 0x40 MSTORE CALLVALUE DUP1 ISZERO PUSH2 0xF JUMPI PUSH0 PUSH0 REVERT JUMPDEST POP PUSH1 0x4 CALLDATASIZE LT PUSH2 0x91 JUMPI PUSH0 CALLDATALOAD PUSH1 0xE0 SHR DUP1 PUSH4 0x771602F7 GT PUSH2 0x64 JUMPI DUP1 PUSH4 0x771602F7 EQ PUSH2 0x141 JUMPI DUP1 PUSH4 0xC3FDF086 EQ PUSH2 0x171 JUMPI DUP1 PUSH4 0xC407F67E EQ PUSH2 0x17B JUMPI DUP1 PUSH4 0xDE292789 EQ PUSH2 0x197 JUMPI DUP1 PUSH4 0xF88E9FBF EQ PUSH2 0x1B5 JUMPI PUSH2 0x91 JUMP JUMPDEST DUP1 PUSH4 0x16EB8A8 EQ PUSH2 0x95 JUMPI DUP1 PUSH4 0x165C4A16 EQ PUSH2 0xC5 JUMPI DUP1 PUSH4 0x3EF5E445 EQ PUSH2 0xF5 JUMPI DUP1 PUSH4 0x623F577A EQ PUSH2 0x125 JUMPI JUMPDEST PUSH0 PUSH0 REVERT JUMPDEST PUSH2 0xAF PUSH1 0x4 DUP1 CALLDATASIZE SUB DUP2 ADD SWAP1 PUSH2 0xAA SWAP2 SWAP1 PUSH2 0x317 JUMP JUMPDEST PUSH2 0x1E5 JUMP JUMPDEST PUSH1 0x40 MLOAD PUSH2 0xBC SWAP2 SWAP1 PUSH2 0x364 JUMP JUMPDEST PUSH1 0x40 MLOAD DUP1 SWAP2 SUB SWAP1 RETURN JUMPDEST PUSH2 0xDF PUSH1 0x4 DUP1 CALLDATASIZE SUB DUP2 ADD SWAP1 PUSH2 0xDA SWAP2 SWAP1 PUSH2 0x317 JUMP JUMPDEST PUSH2 0x206 JUMP JUMPDEST PUSH1 0x40 MLOAD PUSH2 0xEC SWAP2 SWAP1 PUSH2 0x364 JUMP JUMPDEST PUSH1 0x40 MLOAD DUP1 SWAP2 SUB SWAP1 RETURN JUMPDEST PUSH2 0x10F PUSH1 0x4 DUP1 CALLDATASIZE SUB DUP2 ADD SWAP1 PUSH2 0x10A SWAP2 SWAP1 PUSH2 0x317 JUMP JUMPDEST PUSH2 0x21B JUMP JUMPDEST PUSH1 0x40 MLOAD PUSH2 0x11C SWAP2 SWAP1 PUSH2 0x364 JUMP JUMPDEST PUSH1 0x40 MLOAD DUP1 SWAP2 SUB SWAP1 RETURN JUMPDEST PUSH2 0x13F PUSH1 0x4 DUP1 CALLDATASIZE SUB DUP2 ADD SWAP1 PUSH2 0x13A SWAP2 SWAP1 PUSH2 0x37D JUMP JUMPDEST PUSH2 0x230 JUMP JUMPDEST STOP JUMPDEST PUSH2 0x15B PUSH1 0x4 DUP1 CALLDATASIZE SUB DUP2 ADD SWAP1 PUSH2 0x156 SWAP2 SWAP1 PUSH2 0x317 JUMP JUMPDEST PUSH2 0x24A JUMP JUMPDEST PUSH1 0x40 MLOAD PUSH2 0x168 SWAP2 SWAP1 PUSH2 0x364 JUMP JUMPDEST PUSH1 0x40 MLOAD DUP1 SWAP2 SUB SWAP1 RETURN JUMPDEST PUSH2 0x179 PUSH2 0x25F JUMP JUMPDEST STOP JUMPDEST PUSH2 0x195 PUSH1 0x4 DUP1 CALLDATASIZE SUB DUP2 ADD SWAP1 PUSH2 0x190 SWAP2 SWAP1 PUSH2 0x37D JUMP JUMPDEST PUSH2 0x267 JUMP JUMPDEST STOP JUMPDEST PUSH2 0x19F PUSH2 0x281 JUMP JUMPDEST PUSH1 0x40 MLOAD PUSH2 0x1AC SWAP2 SWAP1 PUSH2 0x364 JUMP JUMPDEST PUSH1 0x40 MLOAD DUP1 SWAP2 SUB SWAP1 RETURN JUMPDEST PUSH2 0x1CF PUSH1 0x4 DUP1 CALLDATASIZE SUB DUP2 ADD SWAP1 PUSH2 0x1CA SWAP2 SWAP1 PUSH2 0x317 JUMP JUMPDEST PUSH2 0x289 JUMP JUMPDEST PUSH1 0x40 MLOAD PUSH2 0x1DC SWAP2 SWAP1 PUSH2 0x364 JUMP JUMPDEST PUSH1 0x40 MLOAD DUP1 SWAP2 SUB SWAP1 RETURN JUMPDEST PUSH0 PUSH1 0x64 DUP3 DUP5 PUSH2 0x1F4 SWAP2 SWAP1 PUSH2 0x3D5 JUMP JUMPDEST PUSH2 0x1FE SWAP2 SWAP1 PUSH2 0x443 JUMP JUMPDEST SWAP1 POP SWAP3 SWAP2 POP POP JUMP JUMPDEST PUSH0 DUP2 DUP4 PUSH2 0x213 SWAP2 SWAP1 PUSH2 0x3D5 JUMP JUMPDEST SWAP1 POP SWAP3 SWAP2 POP POP JUMP JUMPDEST PUSH0 DUP2 DUP4 PUSH2 0x228 SWAP2 SWAP1 PUSH2 0x473 JUMP JUMPDEST SWAP1 POP SWAP3 SWAP2 POP POP JUMP JUMPDEST DUP1 PUSH0 PUSH0 DUP3 DUP3 SLOAD PUSH2 0x240 SWAP2 SWAP1 PUSH2 0x4A6 JUMP JUMPDEST SWAP3 POP POP DUP2 SWAP1 SSTORE POP POP JUMP JUMPDEST PUSH0 DUP2 DUP4 PUSH2 0x257 SWAP2 SWAP1 PUSH2 0x4A6 JUMP JUMPDEST SWAP1 POP SWAP3 SWAP2 POP POP JUMP JUMPDEST PUSH0 PUSH0 DUP2 SWAP1 SSTORE POP JUMP JUMPDEST DUP1 PUSH0 PUSH0 DUP3 DUP3 SLOAD PUSH2 0x277 SWAP2 SWAP1 PUSH2 0x473 JUMP JUMPDEST SWAP3 POP POP DUP2 SWAP1 SSTORE POP POP JUMP JUMPDEST PUSH0 PUSH0 SLOAD SWAP1 POP SWAP1 JUMP JUMPDEST PUSH0 PUSH0 DUP3 SUB PUSH2 0x2CC JUMPI PUSH1 0x40 MLOAD PUSH32 0x8C379A000000000000000000000000000000000000000000000000000000000 DUP2 MSTORE PUSH1 0x4 ADD PUSH2 0x2C3 SWAP1 PUSH2 0x533 JUMP JUMPDEST PUSH1 0x40 MLOAD DUP1 SWAP2 SUB SWAP1 REVERT JUMPDEST DUP2 DUP4 PUSH2 0x2D8 SWAP2 SWAP1 PUSH2 0x443 JUMP JUMPDEST SWAP1 POP SWAP3 SWAP2 POP POP JUMP JUMPDEST PUSH0 PUSH0 REVERT JUMPDEST PUSH0 DUP2 SWAP1 POP SWAP2 SWAP1 POP JUMP JUMPDEST PUSH2 0x2F6 DUP2 PUSH2 0x2E4 JUMP JUMPDEST DUP2 EQ PUSH2 0x300 JUMPI PUSH0 PUSH0 REVERT JUMPDEST POP JUMP JUMPDEST PUSH0 DUP2 CALLDATALOAD SWAP1 POP PUSH2 0x311 DUP2 PUSH2 0x2ED JUMP JUMPDEST SWAP3 SWAP2 POP POP JUMP JUMPDEST PUSH0 PUSH0 PUSH1 0x40 DUP4 DUP6 SUB SLT ISZERO PUSH2 0x32D JUMPI PUSH2 0x32C PUSH2 0x2E0 JUMP JUMPDEST JUMPDEST PUSH0 PUSH2 0x33A DUP6 DUP3 DUP7 ADD PUSH2 0x303 JUMP JUMPDEST SWAP3 POP POP PUSH1 0x20 PUSH2 0x34B DUP6 DUP3 DUP7 ADD PUSH2 0x303 JUMP JUMPDEST SWAP2 POP POP SWAP3 POP SWAP3 SWAP1 POP JUMP JUMPDEST PUSH2 0x35E DUP2 PUSH2 0x2E4 JUMP JUMPDEST DUP3 MSTORE POP POP JUMP JUMPDEST PUSH0 PUSH1 0x20 DUP3 ADD SWAP1 POP PUSH2 0x377 PUSH0 DUP4 ADD DUP5 PUSH2 0x355 JUMP JUMPDEST SWAP3 SWAP2 POP POP JUMP JUMPDEST PUSH0 PUSH1 0x20 DUP3 DUP5 SUB SLT ISZERO PUSH2 0x392 JUMPI PUSH2 0x391 PUSH2 0x2E0 JUMP JUMPDEST JUMPDEST PUSH0 PUSH2 0x39F DUP5 DUP3 DUP6 ADD PUSH2 0x303 JUMP JUMPDEST SWAP2 POP POP SWAP3 SWAP2 POP POP JUMP JUMPDEST PUSH32 0x4E487B7100000000000000000000000000000000000000000000000000000000 PUSH0 MSTORE PUSH1 0x11 PUSH1 0x4 MSTORE PUSH1 0x24 PUSH0 REVERT JUMPDEST PUSH0 PUSH2 0x3DF DUP3 PUSH2 0x2E4 JUMP JUMPDEST SWAP2 POP PUSH2 0x3EA DUP4 PUSH2 0x2E4 JUMP JUMPDEST SWAP3 POP DUP3 DUP3 MUL PUSH2 0x3F8 DUP2 PUSH2 0x2E4 JUMP JUMPDEST SWAP2 POP DUP3 DUP3 DIV DUP5 EQ DUP4 ISZERO OR PUSH2 0x40F JUMPI PUSH2 0x40E PUSH2 0x3A8 JUMP JUMPDEST JUMPDEST POP SWAP3 SWAP2 POP POP JUMP JUMPDEST PUSH32 0x4E487B7100000000000000000000000000000000000000000000000000000000 PUSH0 MSTORE PUSH1 0x12 PUSH1 0x4 MSTORE PUSH1 0x24 PUSH0 REVERT JUMPDEST PUSH0 PUSH2 0x44D DUP3 PUSH2 0x2E4 JUMP JUMPDEST SWAP2 POP PUSH2 0x458 DUP4 PUSH2 0x2E4 JUMP JUMPDEST SWAP3 POP DUP3 PUSH2 0x468 JUMPI PUSH2 0x467 PUSH2 0x416 JUMP JUMPDEST JUMPDEST DUP3 DUP3 DIV SWAP1 POP SWAP3 SWAP2 POP POP JUMP JUMPDEST PUSH0 PUSH2 0x47D DUP3 PUSH2 0x2E4 JUMP JUMPDEST SWAP2 POP PUSH2 0x488 DUP4 PUSH2 0x2E4 JUMP JUMPDEST SWAP3 POP DUP3 DUP3 SUB SWAP1 POP DUP2 DUP2 GT ISZERO PUSH2 0x4A0 JUMPI PUSH2 0x49F PUSH2 0x3A8 JUMP JUMPDEST JUMPDEST SWAP3 SWAP2 POP POP JUMP JUMPDEST PUSH0 PUSH2 0x4B0 DUP3 PUSH2 0x2E4 JUMP JUMPDEST SWAP2 POP PUSH2 0x4BB DUP4 PUSH2 0x2E4 JUMP JUMPDEST SWAP3 POP DUP3 DUP3 ADD SWAP1 POP DUP1 DUP3 GT ISZERO PUSH2 0x4D3 JUMPI PUSH2 0x4D2 PUSH2 0x3A8 JUMP JUMPDEST JUMPDEST SWAP3 SWAP2 POP POP JUMP JUMPDEST PUSH0 DUP3 DUP3 MSTORE PUSH1 0x20 DUP3 ADD SWAP1 POP SWAP3 SWAP2 POP POP JUMP JUMPDEST PUSH32 0x4469766973696F6E206279207A65726F206973206E6F7420616C6C6F77656400 PUSH0 DUP3 ADD MSTORE POP JUMP JUMPDEST PUSH0 PUSH2 0x51D PUSH1 0x1F DUP4 PUSH2 0x4D9 JUMP JUMPDEST SWAP2 POP PUSH2 0x528 DUP3 PUSH2 0x4E9 JUMP JUMPDEST PUSH1 0x20 DUP3 ADD SWAP1 POP SWAP2 SWAP1 POP JUMP JUMPDEST PUSH0 PUSH1 0x20 DUP3 ADD SWAP1 POP DUP2 DUP2 SUB PUSH0 DUP4 ADD MSTORE PUSH2 0x54A DUP2 PUSH2 0x511 JUMP JUMPDEST SWAP1 POP SWAP2 SWAP1 POP JUMP INVALID LOG2 PUSH5 0x6970667358 0x22 SLT KECCAK256 CALLDATASIZE MULMOD 0xBE 0xE8 0xE 0xFC 0x4E PUSH28 0x4E0CE95FD6A8CC484BF8311A3399F0C4759100A08E7D608C64736F6C PUSH4 0x4300081E STOP CALLER "
				},
				"gasEstimates": {
					"creation": {
						"codeDepositCost": "283000",
						"executionCost": "322",
						"totalCost": "283322"
					},
					"external": {
						"add(uint256,uint256)": "infinite",
						"addToTotal(uint256)": "infinite",
						"divide(uint256,uint256)": "infinite",
						"getResult()": "2497",
						"multiply(uint256,uint256)": "infinite",
						"percentage(uint256,uint256)": "infinite",
						"resetTotal()": "5177",
						"subtract(uint256,uint256)": "infinite",
						"subtractFromTotal(uint256)": "infinite"
					}
				},
				"methodIdentifiers": {
					"add(uint256,uint256)": "771602f7",
					"addToTotal(uint256)": "623f577a",
					"divide(uint256,uint256)": "f88e9fbf",
					"getResult()": "de292789",
					"multiply(uint256,uint256)": "165c4a16",
					"percentage(uint256,uint256)": "016eb8a8",
					"resetTotal()": "c3fdf086",
					"subtract(uint256,uint256)": "3ef5e445",
					"subtractFromTotal(uint256)": "c407f67e"
				}
			},
			"storageLayout": {
				"storage": [
					{
						"astId": 3,
						"contract": "contracts/AdvancedCalculator.sol:AdvancedCalculator",
						"label": "result",
						"offset": 0,
						"slot": "0",
						"type": "t_uint256"
					}
				],
				"types": {
					"t_uint256": {
						"encoding": "inplace",
						"label": "uint256",
						"numberOfBytes": "32"
					}
				}
			},
			"userdoc": {
				"kind": "user",
				"methods": {},
				"version": 1
			}
		}
	}
}