{
	"contracts/Calculator.sol": {
		"Calculator": {
			"abi": [
				{
					"inputs": [
						{
							"internalType": "uint256",
							"name": "num",
							"type": "uint256"
						}
					],
					"name": "add",
					"outputs": [],
					"stateMutability": "nonpayable",
					"type": "function"
				},
				{
					"inputs": [
						{
							"internalType": "uint256",
							"name": "a",
							"type": "uint256"
						},
						{
							"internalType": "uint256",
							"name": "b",
							"type": "uint256"
						}
					],
					"name": "algebra",
					"outputs": [],
					"stateMutability": "nonpayable",
					"type": "function"
				},
				{
					"inputs": [
						{
							"internalType": "uint256",
							"name": "num",
							"type": "uint256"
						}
					],
					"name": "divide",
					"outputs": [],
					"stateMutability": "nonpayable",
					"type": "function"
				},
				{
					"inputs": [],
					"name": "getresult",
					"outputs": [
						{
							"internalType": "uint256",
							"name": "",
							"type": "uint256"
						}
					],
					"stateMutability": "view",
					"type": "function"
				},
				{
					"inputs": [
						{
							"internalType": "uint256",
							"name": "num",
							"type": "uint256"
						}
					],
					"name": "multiply",
					"outputs": [],
					"stateMutability": "nonpayable",
					"type": "function"
				},
				{
					"inputs": [
						{
							"internalType": "uint256",
							"name": "num",
							"type": "uint256"
						}
					],
					"name": "subtract",
					"outputs": [],
					"stateMutability": "nonpayable",
					"type": "function"
				}
			],
			"devdoc": {
				"kind": "dev",
				"methods": {},
				"version": 1
			},
			"evm": {
				"assembly": "    /* \"contracts/Calculator.sol\":60:646  contract Calculator {... */\n  mstore(0x40, 0x80)\n    /* \"contracts/Calculator.sol\":104:105  0 */\n  0x00\n    /* \"contracts/Calculator.sol\":87:105  uint256 result = 0 */\n  0x00\n  sstore\n    /* \"contracts/Calculator.sol\":60:646  contract Calculator {... */\n  callvalue\n  dup1\n  iszero\n  tag_1\n  jumpi\n  revert(0x00, 0x00)\ntag_1:\n  pop\n  dataSize(sub_0)\n  dup1\n  dataOffset(sub_0)\n  0x00\n  codecopy\n  0x00\n  return\nstop\n\nsub_0: assembly {\n        /* \"contracts/Calculator.sol\":60:646  contract Calculator {... */\n      mstore(0x40, 0x80)\n      callvalue\n      dup1\n      iszero\n      tag_1\n      jumpi\n      revert(0x00, 0x00)\n    tag_1:\n      pop\n      jumpi(tag_2, lt(calldatasize, 0x04))\n      shr(0xe0, calldataload(0x00))\n      dup1\n      0x1003e2d2\n      eq\n      tag_3\n      jumpi\n      dup1\n      0x1dc05f17\n      eq\n      tag_4\n      jumpi\n      dup1\n      0x3e823f79\n      eq\n      tag_5\n      jumpi\n      dup1\n      0x40fc0502\n      eq\n      tag_6\n      jumpi\n      dup1\n      0x75ebb5df\n      eq\n      tag_7\n      jumpi\n      dup1\n      0xc6888fa1\n      eq\n      tag_8\n      jumpi\n    tag_2:\n      revert(0x00, 0x00)\n        /* \"contracts/Calculator.sol\":112:177  function add(uint256 num) public {... */\n    tag_3:\n      tag_9\n      0x04\n      dup1\n      calldatasize\n      sub\n      dup2\n      add\n      swap1\n      tag_10\n      swap2\n      swap1\n      tag_11\n      jump\t// in\n    tag_10:\n      tag_12\n      jump\t// in\n    tag_9:\n      stop\n        /* \"contracts/Calculator.sol\":185:255  function subtract(uint256 num) public {... */\n    tag_4:\n      tag_13\n      0x04\n      dup1\n      calldatasize\n      sub\n      dup2\n      add\n      swap1\n      tag_14\n      swap2\n      swap1\n      tag_11\n      jump\t// in\n    tag_14:\n      tag_15\n      jump\t// in\n    tag_13:\n      stop\n        /* \"contracts/Calculator.sol\":341:410  function divide(uint256 num) public  {... */\n    tag_5:\n      tag_16\n      0x04\n      dup1\n      calldatasize\n      sub\n      dup2\n      add\n      swap1\n      tag_17\n      swap2\n      swap1\n      tag_11\n      jump\t// in\n    tag_17:\n      tag_18\n      jump\t// in\n    tag_16:\n      stop\n        /* \"contracts/Calculator.sol\":561:643  function getresult() public view returns (uint256){... */\n    tag_6:\n      tag_19\n      tag_20\n      jump\t// in\n    tag_19:\n      mload(0x40)\n      tag_21\n      swap2\n      swap1\n      tag_22\n      jump\t// in\n    tag_21:\n      mload(0x40)\n      dup1\n      swap2\n      sub\n      swap1\n      return\n        /* \"contracts/Calculator.sol\":418:524  function algebra(uint256 a, uint256 b) public {... */\n    tag_7:\n      tag_23\n      0x04\n      dup1\n      calldatasize\n      sub\n      dup2\n      add\n      swap1\n      tag_24\n      swap2\n      swap1\n      tag_25\n      jump\t// in\n    tag_24:\n      tag_26\n      jump\t// in\n    tag_23:\n      stop\n        /* \"contracts/Calculator.sol\":263:333  function multiply(uint256 num) public {... */\n    tag_8:\n      tag_27\n      0x04\n      dup1\n      calldatasize\n      sub\n      dup2\n      add\n      swap1\n      tag_28\n      swap2\n      swap1\n      tag_11\n      jump\t// in\n    tag_28:\n      tag_29\n      jump\t// in\n    tag_27:\n      stop\n        /* \"contracts/Calculator.sol\":112:177  function add(uint256 num) public {... */\n    tag_12:\n        /* \"contracts/Calculator.sol\":166:169  num */\n      dup1\n        /* \"contracts/Calculator.sol\":156:162  result */\n      0x00\n      0x00\n        /* \"contracts/Calculator.sol\":156:169  result += num */\n      dup3\n      dup3\n      sload\n      tag_31\n      swap2\n      swap1\n      tag_32\n      jump\t// in\n    tag_31:\n      swap3\n      pop\n      pop\n      dup2\n      swap1\n      sstore\n      pop\n        /* \"contracts/Calculator.sol\":112:177  function add(uint256 num) public {... */\n      pop\n      jump\t// out\n        /* \"contracts/Calculator.sol\":185:255  function subtract(uint256 num) public {... */\n    tag_15:\n        /* \"contracts/Calculator.sol\":244:247  num */\n      dup1\n        /* \"contracts/Calculator.sol\":234:240  result */\n      0x00\n      0x00\n        /* \"contracts/Calculator.sol\":234:247  result -= num */\n      dup3\n      dup3\n      sload\n      tag_34\n      swap2\n      swap1\n      tag_35\n      jump\t// in\n    tag_34:\n      swap3\n      pop\n      pop\n      dup2\n      swap1\n      sstore\n      pop\n        /* \"contracts/Calculator.sol\":185:255  function subtract(uint256 num) public {... */\n      pop\n      jump\t// out\n        /* \"contracts/Calculator.sol\":341:410  function divide(uint256 num) public  {... */\n    tag_18:\n        /* \"contracts/Calculator.sol\":399:402  num */\n      dup1\n        /* \"contracts/Calculator.sol\":389:395  result */\n      0x00\n      0x00\n        /* \"contracts/Calculator.sol\":389:402  result /= num */\n      dup3\n      dup3\n      sload\n      tag_37\n      swap2\n      swap1\n      tag_38\n      jump\t// in\n    tag_37:\n      swap3\n      pop\n      pop\n      dup2\n      swap1\n      sstore\n      pop\n        /* \"contracts/Calculator.sol\":341:410  function divide(uint256 num) public  {... */\n      pop\n      jump\t// out\n        /* \"contracts/Calculator.sol\":561:643  function getresult() public view returns (uint256){... */\n    tag_20:\n        /* \"contracts/Calculator.sol\":603:610  uint256 */\n      0x00\n        /* \"contracts/Calculator.sol\":629:635  result */\n      sload(0x00)\n        /* \"contracts/Calculator.sol\":622:635  return result */\n      swap1\n      pop\n        /* \"contracts/Calculator.sol\":561:643  function getresult() public view returns (uint256){... */\n      swap1\n      jump\t// out\n        /* \"contracts/Calculator.sol\":418:524  function algebra(uint256 a, uint256 b) public {... */\n    tag_26:\n        /* \"contracts/Calculator.sol\":514:515  b */\n      dup1\n        /* \"contracts/Calculator.sol\":510:511  b */\n      dup2\n        /* \"contracts/Calculator.sol\":510:515  b * b */\n      tag_41\n      swap2\n      swap1\n      tag_42\n      jump\t// in\n    tag_41:\n        /* \"contracts/Calculator.sol\":504:505  b */\n      dup2\n        /* \"contracts/Calculator.sol\":500:501  a */\n      dup4\n        /* \"contracts/Calculator.sol\":496:497  2 */\n      0x02\n        /* \"contracts/Calculator.sol\":496:501  2 * a */\n      tag_43\n      swap2\n      swap1\n      tag_42\n      jump\t// in\n    tag_43:\n        /* \"contracts/Calculator.sol\":496:505  2 * a * b */\n      tag_44\n      swap2\n      swap1\n      tag_42\n      jump\t// in\n    tag_44:\n        /* \"contracts/Calculator.sol\":490:491  a */\n      dup4\n        /* \"contracts/Calculator.sol\":486:487  a */\n      dup5\n        /* \"contracts/Calculator.sol\":486:491  a * a */\n      tag_45\n      swap2\n      swap1\n      tag_42\n      jump\t// in\n    tag_45:\n        /* \"contracts/Calculator.sol\":485:506  (a * a) + (2 * a * b) */\n      tag_46\n      swap2\n      swap1\n      tag_32\n      jump\t// in\n    tag_46:\n        /* \"contracts/Calculator.sol\":485:516  (a * a) + (2 * a * b) + (b * b) */\n      tag_47\n      swap2\n      swap1\n      tag_32\n      jump\t// in\n    tag_47:\n        /* \"contracts/Calculator.sol\":475:481  result */\n      0x00\n        /* \"contracts/Calculator.sol\":475:516  result =  (a * a) + (2 * a * b) + (b * b) */\n      dup2\n      swap1\n      sstore\n      pop\n        /* \"contracts/Calculator.sol\":418:524  function algebra(uint256 a, uint256 b) public {... */\n      pop\n      pop\n      jump\t// out\n        /* \"contracts/Calculator.sol\":263:333  function multiply(uint256 num) public {... */\n    tag_29:\n        /* \"contracts/Calculator.sol\":322:325  num */\n      dup1\n        /* \"contracts/Calculator.sol\":312:318  result */\n      0x00\n      0x00\n        /* \"contracts/Calculator.sol\":312:325  result *= num */\n      dup3\n      dup3\n      sload\n      tag_49\n      swap2\n      swap1\n      tag_42\n      jump\t// in\n    tag_49:\n      swap3\n      pop\n      pop\n      dup2\n      swap1\n      sstore\n      pop\n        /* \"contracts/Calculator.sol\":263:333  function multiply(uint256 num) public {... */\n      pop\n      jump\t// out\n        /* \"#utility.yul\":88:205   */\n    tag_51:\n        /* \"#utility.yul\":197:198   */\n      0x00\n        /* \"#utility.yul\":194:195   */\n      0x00\n        /* \"#utility.yul\":187:199   */\n      revert\n        /* \"#utility.yul\":334:411   */\n    tag_53:\n        /* \"#utility.yul\":371:378   */\n      0x00\n        /* \"#utility.yul\":400:405   */\n      dup2\n        /* \"#utility.yul\":389:405   */\n      swap1\n      pop\n        /* \"#utility.yul\":334:411   */\n      swap2\n      swap1\n      pop\n      jump\t// out\n        /* \"#utility.yul\":417:539   */\n    tag_54:\n        /* \"#utility.yul\":490:514   */\n      tag_65\n        /* \"#utility.yul\":508:513   */\n      dup2\n        /* \"#utility.yul\":490:514   */\n      tag_53\n      jump\t// in\n    tag_65:\n        /* \"#utility.yul\":483:488   */\n      dup2\n        /* \"#utility.yul\":480:515   */\n      eq\n        /* \"#utility.yul\":470:533   */\n      tag_66\n      jumpi\n        /* \"#utility.yul\":529:530   */\n      0x00\n        /* \"#utility.yul\":526:527   */\n      0x00\n        /* \"#utility.yul\":519:531   */\n      revert\n        /* \"#utility.yul\":470:533   */\n    tag_66:\n        /* \"#utility.yul\":417:539   */\n      pop\n      jump\t// out\n        /* \"#utility.yul\":545:684   */\n    tag_55:\n        /* \"#utility.yul\":591:596   */\n      0x00\n        /* \"#utility.yul\":629:635   */\n      dup2\n        /* \"#utility.yul\":616:636   */\n      calldataload\n        /* \"#utility.yul\":607:636   */\n      swap1\n      pop\n        /* \"#utility.yul\":645:678   */\n      tag_68\n        /* \"#utility.yul\":672:677   */\n      dup2\n        /* \"#utility.yul\":645:678   */\n      tag_54\n      jump\t// in\n    tag_68:\n        /* \"#utility.yul\":545:684   */\n      swap3\n      swap2\n      pop\n      pop\n      jump\t// out\n        /* \"#utility.yul\":690:1019   */\n    tag_11:\n        /* \"#utility.yul\":749:755   */\n      0x00\n        /* \"#utility.yul\":798:800   */\n      0x20\n        /* \"#utility.yul\":786:795   */\n      dup3\n        /* \"#utility.yul\":777:784   */\n      dup5\n        /* \"#utility.yul\":773:796   */\n      sub\n        /* \"#utility.yul\":769:801   */\n      slt\n        /* \"#utility.yul\":766:885   */\n      iszero\n      tag_70\n      jumpi\n        /* \"#utility.yul\":804:883   */\n      tag_71\n      tag_51\n      jump\t// in\n    tag_71:\n        /* \"#utility.yul\":766:885   */\n    tag_70:\n        /* \"#utility.yul\":924:925   */\n      0x00\n        /* \"#utility.yul\":949:1002   */\n      tag_72\n        /* \"#utility.yul\":994:1001   */\n      dup5\n        /* \"#utility.yul\":985:991   */\n      dup3\n        /* \"#utility.yul\":974:983   */\n      dup6\n        /* \"#utility.yul\":970:992   */\n      add\n        /* \"#utility.yul\":949:1002   */\n      tag_55\n      jump\t// in\n    tag_72:\n        /* \"#utility.yul\":939:1002   */\n      swap2\n      pop\n        /* \"#utility.yul\":895:1012   */\n      pop\n        /* \"#utility.yul\":690:1019   */\n      swap3\n      swap2\n      pop\n      pop\n      jump\t// out\n        /* \"#utility.yul\":1025:1143   */\n    tag_56:\n        /* \"#utility.yul\":1112:1136   */\n      tag_74\n        /* \"#utility.yul\":1130:1135   */\n      dup2\n        /* \"#utility.yul\":1112:1136   */\n      tag_53\n      jump\t// in\n    tag_74:\n        /* \"#utility.yul\":1107:1110   */\n      dup3\n        /* \"#utility.yul\":1100:1137   */\n      mstore\n        /* \"#utility.yul\":1025:1143   */\n      pop\n      pop\n      jump\t// out\n        /* \"#utility.yul\":1149:1371   */\n    tag_22:\n        /* \"#utility.yul\":1242:1246   */\n      0x00\n        /* \"#utility.yul\":1280:1282   */\n      0x20\n        /* \"#utility.yul\":1269:1278   */\n      dup3\n        /* \"#utility.yul\":1265:1283   */\n      add\n        /* \"#utility.yul\":1257:1283   */\n      swap1\n      pop\n        /* \"#utility.yul\":1293:1364   */\n      tag_76\n        /* \"#utility.yul\":1361:1362   */\n      0x00\n        /* \"#utility.yul\":1350:1359   */\n      dup4\n        /* \"#utility.yul\":1346:1363   */\n      add\n        /* \"#utility.yul\":1337:1343   */\n      dup5\n        /* \"#utility.yul\":1293:1364   */\n      tag_56\n      jump\t// in\n    tag_76:\n        /* \"#utility.yul\":1149:1371   */\n      swap3\n      swap2\n      pop\n      pop\n      jump\t// out\n        /* \"#utility.yul\":1377:1851   */\n    tag_25:\n        /* \"#utility.yul\":1445:1451   */\n      0x00\n        /* \"#utility.yul\":1453:1459   */\n      0x00\n        /* \"#utility.yul\":1502:1504   */\n      0x40\n        /* \"#utility.yul\":1490:1499   */\n      dup4\n        /* \"#utility.yul\":1481:1488   */\n      dup6\n        /* \"#utility.yul\":1477:1500   */\n      sub\n        /* \"#utility.yul\":1473:1505   */\n      slt\n        /* \"#utility.yul\":1470:1589   */\n      iszero\n      tag_78\n      jumpi\n        /* \"#utility.yul\":1508:1587   */\n      tag_79\n      tag_51\n      jump\t// in\n    tag_79:\n        /* \"#utility.yul\":1470:1589   */\n    tag_78:\n        /* \"#utility.yul\":1628:1629   */\n      0x00\n        /* \"#utility.yul\":1653:1706   */\n      tag_80\n        /* \"#utility.yul\":1698:1705   */\n      dup6\n        /* \"#utility.yul\":1689:1695   */\n      dup3\n        /* \"#utility.yul\":1678:1687   */\n      dup7\n        /* \"#utility.yul\":1674:1696   */\n      add\n        /* \"#utility.yul\":1653:1706   */\n      tag_55\n      jump\t// in\n    tag_80:\n        /* \"#utility.yul\":1643:1706   */\n      swap3\n      pop\n        /* \"#utility.yul\":1599:1716   */\n      pop\n        /* \"#utility.yul\":1755:1757   */\n      0x20\n        /* \"#utility.yul\":1781:1834   */\n      tag_81\n        /* \"#utility.yul\":1826:1833   */\n      dup6\n        /* \"#utility.yul\":1817:1823   */\n      dup3\n        /* \"#utility.yul\":1806:1815   */\n      dup7\n        /* \"#utility.yul\":1802:1824   */\n      add\n        /* \"#utility.yul\":1781:1834   */\n      tag_55\n      jump\t// in\n    tag_81:\n        /* \"#utility.yul\":1771:1834   */\n      swap2\n      pop\n        /* \"#utility.yul\":1726:1844   */\n      pop\n        /* \"#utility.yul\":1377:1851   */\n      swap3\n      pop\n      swap3\n      swap1\n      pop\n      jump\t// out\n        /* \"#utility.yul\":1857:2037   */\n    tag_57:\n        /* \"#utility.yul\":1905:1982   */\n      0x4e487b7100000000000000000000000000000000000000000000000000000000\n        /* \"#utility.yul\":1902:1903   */\n      0x00\n        /* \"#utility.yul\":1895:1983   */\n      mstore\n        /* \"#utility.yul\":2002:2006   */\n      0x11\n        /* \"#utility.yul\":1999:2000   */\n      0x04\n        /* \"#utility.yul\":1992:2007   */\n      mstore\n        /* \"#utility.yul\":2026:2030   */\n      0x24\n        /* \"#utility.yul\":2023:2024   */\n      0x00\n        /* \"#utility.yul\":2016:2031   */\n      revert\n        /* \"#utility.yul\":2043:2234   */\n    tag_32:\n        /* \"#utility.yul\":2083:2086   */\n      0x00\n        /* \"#utility.yul\":2102:2122   */\n      tag_84\n        /* \"#utility.yul\":2120:2121   */\n      dup3\n        /* \"#utility.yul\":2102:2122   */\n      tag_53\n      jump\t// in\n    tag_84:\n        /* \"#utility.yul\":2097:2122   */\n      swap2\n      pop\n        /* \"#utility.yul\":2136:2156   */\n      tag_85\n        /* \"#utility.yul\":2154:2155   */\n      dup4\n        /* \"#utility.yul\":2136:2156   */\n      tag_53\n      jump\t// in\n    tag_85:\n        /* \"#utility.yul\":2131:2156   */\n      swap3\n      pop\n        /* \"#utility.yul\":2179:2180   */\n      dup3\n        /* \"#utility.yul\":2176:2177   */\n      dup3\n        /* \"#utility.yul\":2172:2181   */\n      add\n        /* \"#utility.yul\":2165:2181   */\n      swap1\n      pop\n        /* \"#utility.yul\":2200:2203   */\n      dup1\n        /* \"#utility.yul\":2197:2198   */\n      dup3\n        /* \"#utility.yul\":2194:2204   */\n      gt\n        /* \"#utility.yul\":2191:2227   */\n      iszero\n      tag_86\n      jumpi\n        /* \"#utility.yul\":2207:2225   */\n      tag_87\n      tag_57\n      jump\t// in\n    tag_87:\n        /* \"#utility.yul\":2191:2227   */\n    tag_86:\n        /* \"#utility.yul\":2043:2234   */\n      swap3\n      swap2\n      pop\n      pop\n      jump\t// out\n        /* \"#utility.yul\":2240:2434   */\n    tag_35:\n        /* \"#utility.yul\":2280:2284   */\n      0x00\n        /* \"#utility.yul\":2300:2320   */\n      tag_89\n        /* \"#utility.yul\":2318:2319   */\n      dup3\n        /* \"#utility.yul\":2300:2320   */\n      tag_53\n      jump\t// in\n    tag_89:\n        /* \"#utility.yul\":2295:2320   */\n      swap2\n      pop\n        /* \"#utility.yul\":2334:2354   */\n      tag_90\n        /* \"#utility.yul\":2352:2353   */\n      dup4\n        /* \"#utility.yul\":2334:2354   */\n      tag_53\n      jump\t// in\n    tag_90:\n        /* \"#utility.yul\":2329:2354   */\n      swap3\n      pop\n        /* \"#utility.yul\":2378:2379   */\n      dup3\n        /* \"#utility.yul\":2375:2376   */\n      dup3\n        /* \"#utility.yul\":2371:2380   */\n      sub\n        /* \"#utility.yul\":2363:2380   */\n      swap1\n      pop\n        /* \"#utility.yul\":2402:2403   */\n      dup2\n        /* \"#utility.yul\":2396:2400   */\n      dup2\n        /* \"#utility.yul\":2393:2404   */\n      gt\n        /* \"#utility.yul\":2390:2427   */\n      iszero\n      tag_91\n      jumpi\n        /* \"#utility.yul\":2407:2425   */\n      tag_92\n      tag_57\n      jump\t// in\n    tag_92:\n        /* \"#utility.yul\":2390:2427   */\n    tag_91:\n        /* \"#utility.yul\":2240:2434   */\n      swap3\n      swap2\n      pop\n      pop\n      jump\t// out\n        /* \"#utility.yul\":2440:2620   */\n    tag_58:\n        /* \"#utility.yul\":2488:2565   */\n      0x4e487b7100000000000000000000000000000000000000000000000000000000\n        /* \"#utility.yul\":2485:2486   */\n      0x00\n        /* \"#utility.yul\":2478:2566   */\n      mstore\n        /* \"#utility.yul\":2585:2589   */\n      0x12\n        /* \"#utility.yul\":2582:2583   */\n      0x04\n        /* \"#utility.yul\":2575:2590   */\n      mstore\n        /* \"#utility.yul\":2609:2613   */\n      0x24\n        /* \"#utility.yul\":2606:2607   */\n      0x00\n        /* \"#utility.yul\":2599:2614   */\n      revert\n        /* \"#utility.yul\":2626:2811   */\n    tag_38:\n        /* \"#utility.yul\":2666:2667   */\n      0x00\n        /* \"#utility.yul\":2683:2703   */\n      tag_95\n        /* \"#utility.yul\":2701:2702   */\n      dup3\n        /* \"#utility.yul\":2683:2703   */\n      tag_53\n      jump\t// in\n    tag_95:\n        /* \"#utility.yul\":2678:2703   */\n      swap2\n      pop\n        /* \"#utility.yul\":2717:2737   */\n      tag_96\n        /* \"#utility.yul\":2735:2736   */\n      dup4\n        /* \"#utility.yul\":2717:2737   */\n      tag_53\n      jump\t// in\n    tag_96:\n        /* \"#utility.yul\":2712:2737   */\n      swap3\n      pop\n        /* \"#utility.yul\":2756:2757   */\n      dup3\n        /* \"#utility.yul\":2746:2781   */\n      tag_97\n      jumpi\n        /* \"#utility.yul\":2761:2779   */\n      tag_98\n      tag_58\n      jump\t// in\n    tag_98:\n        /* \"#utility.yul\":2746:2781   */\n    tag_97:\n        /* \"#utility.yul\":2803:2804   */\n      dup3\n        /* \"#utility.yul\":2800:2801   */\n      dup3\n        /* \"#utility.yul\":2796:2805   */\n      div\n        /* \"#utility.yul\":2791:2805   */\n      swap1\n      pop\n        /* \"#utility.yul\":2626:2811   */\n      swap3\n      swap2\n      pop\n      pop\n      jump\t// out\n        /* \"#utility.yul\":2817:3227   */\n    tag_42:\n        /* \"#utility.yul\":2857:2864   */\n      0x00\n        /* \"#utility.yul\":2880:2900   */\n      tag_100\n        /* \"#utility.yul\":2898:2899   */\n      dup3\n        /* \"#utility.yul\":2880:2900   */\n      tag_53\n      jump\t// in\n    tag_100:\n        /* \"#utility.yul\":2875:2900   */\n      swap2\n      pop\n        /* \"#utility.yul\":2914:2934   */\n      tag_101\n        /* \"#utility.yul\":2932:2933   */\n      dup4\n        /* \"#utility.yul\":2914:2934   */\n      tag_53\n      jump\t// in\n    tag_101:\n        /* \"#utility.yul\":2909:2934   */\n      swap3\n      pop\n        /* \"#utility.yul\":2969:2970   */\n      dup3\n        /* \"#utility.yul\":2966:2967   */\n      dup3\n        /* \"#utility.yul\":2962:2971   */\n      mul\n        /* \"#utility.yul\":2991:3021   */\n      tag_102\n        /* \"#utility.yul\":3009:3020   */\n      dup2\n        /* \"#utility.yul\":2991:3021   */\n      tag_53\n      jump\t// in\n    tag_102:\n        /* \"#utility.yul\":2980:3021   */\n      swap2\n      pop\n        /* \"#utility.yul\":3170:3171   */\n      dup3\n        /* \"#utility.yul\":3161:3168   */\n      dup3\n        /* \"#utility.yul\":3157:3172   */\n      div\n        /* \"#utility.yul\":3154:3155   */\n      dup5\n        /* \"#utility.yul\":3151:3173   */\n      eq\n        /* \"#utility.yul\":3131:3132   */\n      dup4\n        /* \"#utility.yul\":3124:3133   */\n      iszero\n        /* \"#utility.yul\":3104:3187   */\n      or\n        /* \"#utility.yul\":3081:3220   */\n      tag_103\n      jumpi\n        /* \"#utility.yul\":3200:3218   */\n      tag_104\n      tag_57\n      jump\t// in\n    tag_104:\n        /* \"#utility.yul\":3081:3220   */\n    tag_103:\n        /* \"#utility.yul\":2865:3227   */\n      pop\n        /* \"#utility.yul\":2817:3227   */\n      swap3\n      swap2\n      pop\n      pop\n      jump\t// out\n\n    auxdata: 0xa2646970667358221220ef9ca688d5768ab33fe3d2b763b79e0d982565cc0daf56d2d3a391d276c649de64736f6c634300081e0033\n}\n",
				"bytecode": {
					"linkReferences": {},
					"object": "60806040525f5f553480156011575f5ffd5b506103fa8061001f5f395ff3fe608060405234801561000f575f5ffd5b5060043610610060575f3560e01c80631003e2d2146100645780631dc05f17146100805780633e823f791461009c57806340fc0502146100b857806375ebb5df146100d6578063c6888fa1146100f2575b5f5ffd5b61007e60048036038101906100799190610202565b61010e565b005b61009a60048036038101906100959190610202565b610128565b005b6100b660048036038101906100b19190610202565b610142565b005b6100c061015c565b6040516100cd919061023c565b60405180910390f35b6100f060048036038101906100eb9190610255565b610164565b005b61010c60048036038101906101079190610202565b6101b1565b005b805f5f82825461011e91906102c0565b9250508190555050565b805f5f82825461013891906102f3565b9250508190555050565b805f5f8282546101529190610353565b9250508190555050565b5f5f54905090565b80816101709190610383565b8183600261017e9190610383565b6101889190610383565b83846101949190610383565b61019e91906102c0565b6101a891906102c0565b5f819055505050565b805f5f8282546101c19190610383565b9250508190555050565b5f5ffd5b5f819050919050565b6101e1816101cf565b81146101eb575f5ffd5b50565b5f813590506101fc816101d8565b92915050565b5f60208284031215610217576102166101cb565b5b5f610224848285016101ee565b91505092915050565b610236816101cf565b82525050565b5f60208201905061024f5f83018461022d565b92915050565b5f5f6040838503121561026b5761026a6101cb565b5b5f610278858286016101ee565b9250506020610289858286016101ee565b9150509250929050565b7f4e487b71000000000000000000000000000000000000000000000000000000005f52601160045260245ffd5b5f6102ca826101cf565b91506102d5836101cf565b92508282019050808211156102ed576102ec610293565b5b92915050565b5f6102fd826101cf565b9150610308836101cf565b92508282039050818111156103205761031f610293565b5b92915050565b7f4e487b71000000000000000000000000000000000000000000000000000000005f52601260045260245ffd5b5f61035d826101cf565b9150610368836101cf565b92508261037857610377610326565b5b828204905092915050565b5f61038d826101cf565b9150610398836101cf565b92508282026103a6816101cf565b915082820484148315176103bd576103bc610293565b5b509291505056fea2646970667358221220ef9ca688d5768ab33fe3d2b763b79e0d982565cc0daf56d2d3a391d276c649de64736f6c634300081e0033",
					"opcodes": "PUSH1 0x80 PUSH1 0x40 MSTORE PUSH0 PUSH0 SSTORE CALLVALUE DUP1 ISZERO PUSH1 0x11 JUMPI PUSH0 PUSH0 REVERT JUMPDEST POP PUSH2 0x3FA DUP1 PUSH2 0x1F PUSH0 CODECOPY PUSH0 RETURN INVALID PUSH1 0x80 PUSH1 0x40 MSTORE CALLVALUE DUP1 ISZERO PUSH2 0xF JUMPI PUSH0 PUSH0 REVERT JUMPDEST POP PUSH1 0x4 CALLDATASIZE LT PUSH2 0x60 JUMPI PUSH0 CALLDATALOAD PUSH1 0xE0 SHR DUP1 PUSH4 0x1003E2D2 EQ PUSH2 0x64 JUMPI DUP1 PUSH4 0x1DC05F17 EQ PUSH2 0x80 JUMPI DUP1 PUSH4 0x3E823F79 EQ PUSH2 0x9C JUMPI DUP1 PUSH4 0x40FC0502 EQ PUSH2 0xB8 JUMPI DUP1 PUSH4 0x75EBB5DF EQ PUSH2 0xD6 JUMPI DUP1 PUSH4 0xC6888FA1 EQ PUSH2 0xF2 JUMPI JUMPDEST PUSH0 PUSH0 REVERT JUMPDEST PUSH2 0x7E PUSH1 0x4 DUP1 CALLDATASIZE SUB DUP2 ADD SWAP1 PUSH2 0x79 SWAP2 SWAP1 PUSH2 0x202 JUMP JUMPDEST PUSH2 0x10E JUMP JUMPDEST STOP JUMPDEST PUSH2 0x9A PUSH1 0x4 DUP1 CALLDATASIZE SUB DUP2 ADD SWAP1 PUSH2 0x95 SWAP2 SWAP1 PUSH2 0x202 JUMP JUMPDEST PUSH2 0x128 JUMP JUMPDEST STOP JUMPDEST PUSH2 0xB6 PUSH1 0x4 DUP1 CALLDATASIZE SUB DUP2 ADD SWAP1 PUSH2 0xB1 SWAP2 SWAP1 PUSH2 0x202 JUMP JUMPDEST PUSH2 0x142 JUMP JUMPDEST STOP JUMPDEST PUSH2 0xC0 PUSH2 0x15C JUMP JUMPDEST PUSH1 0x40 MLOAD PUSH2 0xCD SWAP2 SWAP1 PUSH2 0x23C JUMP JUMPDEST PUSH1 0x40 MLOAD DUP1 SWAP2 SUB SWAP1 RETURN JUMPDEST PUSH2 0xF0 PUSH1 0x4 DUP1 CALLDATASIZE SUB DUP2 ADD SWAP1 PUSH2 0xEB SWAP2 SWAP1 PUSH2 0x255 JUMP JUMPDEST PUSH2 0x164 JUMP JUMPDEST STOP JUMPDEST PUSH2 0x10C PUSH1 0x4 DUP1 CALLDATASIZE SUB DUP2 ADD SWAP1 PUSH2 0x107 SWAP2 SWAP1 PUSH2 0x202 JUMP JUMPDEST PUSH2 0x1B1 JUMP JUMPDEST STOP JUMPDEST DUP1 PUSH0 PUSH0 DUP3 DUP3 SLOAD PUSH2 0x11E SWAP2 SWAP1 PUSH2 0x2C0 JUMP JUMPDEST SWAP3 POP POP DUP2 SWAP1 SSTORE POP POP JUMP JUMPDEST DUP1 PUSH0 PUSH0 DUP3 DUP3 SLOAD PUSH2 0x138 SWAP2 SWAP1 PUSH2 0x2F3 JUMP JUMPDEST SWAP3 POP POP DUP2 SWAP1 SSTORE POP POP JUMP JUMPDEST DUP1 PUSH0 PUSH0 DUP3 DUP3 SLOAD PUSH2 0x152 SWAP2 SWAP1 PUSH2 0x353 JUMP JUMPDEST SWAP3 POP POP DUP2 SWAP1 SSTORE POP POP JUMP JUMPDEST PUSH0 PUSH0 SLOAD SWAP1 POP SWAP1 JUMP JUMPDEST DUP1 DUP2 PUSH2 0x170 SWAP2 SWAP1 PUSH2 0x383 JUMP JUMPDEST DUP2 DUP4 PUSH1 0x2 PUSH2 0x17E SWAP2 SWAP1 PUSH2 0x383 JUMP JUMPDEST PUSH2 0x188 SWAP2 SWAP1 PUSH2 0x383 JUMP JUMPDEST DUP4 DUP5 PUSH2 0x194 SWAP2 SWAP1 PUSH2 0x383 JUMP JUMPDEST PUSH2 0x19E SWAP2 SWAP1 PUSH2 0x2C0 JUMP JUMPDEST PUSH2 0x1A8 SWAP2 SWAP1 PUSH2 0x2C0 JUMP JUMPDEST PUSH0 DUP2 SWAP1 SSTORE POP POP POP JUMP JUMPDEST DUP1 PUSH0 PUSH0 DUP3 DUP3 SLOAD PUSH2 0x1C1 SWAP2 SWAP1 PUSH2 0x383 JUMP JUMPDEST SWAP3 POP POP DUP2 SWAP1 SSTORE POP POP JUMP JUMPDEST PUSH0 PUSH0 REVERT JUMPDEST PUSH0 DUP2 SWAP1 POP SWAP2 SWAP1 POP JUMP JUMPDEST PUSH2 0x1E1 DUP2 PUSH2 0x1CF JUMP JUMPDEST DUP2 EQ PUSH2 0x1EB JUMPI PUSH0 PUSH0 REVERT JUMPDEST POP JUMP JUMPDEST PUSH0 DUP2 CALLDATALOAD SWAP1 POP PUSH2 0x1FC DUP2 PUSH2 0x1D8 JUMP JUMPDEST SWAP3 SWAP2 POP POP JUMP JUMPDEST PUSH0 PUSH1 0x20 DUP3 DUP5 SUB SLT ISZERO PUSH2 0x217 JUMPI PUSH2 0x216 PUSH2 0x1CB JUMP JUMPDEST JUMPDEST PUSH0 PUSH2 0x224 DUP5 DUP3 DUP6 ADD PUSH2 0x1EE JUMP JUMPDEST SWAP2 POP POP SWAP3 SWAP2 POP POP JUMP JUMPDEST PUSH2 0x236 DUP2 PUSH2 0x1CF JUMP JUMPDEST DUP3 MSTORE POP POP JUMP JUMPDEST PUSH0 PUSH1 0x20 DUP3 ADD SWAP1 POP PUSH2 0x24F PUSH0 DUP4 ADD DUP5 PUSH2 0x22D JUMP JUMPDEST SWAP3 SWAP2 POP POP JUMP JUMPDEST PUSH0 PUSH0 PUSH1 0x40 DUP4 DUP6 SUB SLT ISZERO PUSH2 0x26B JUMPI PUSH2 0x26A PUSH2 0x1CB JUMP JUMPDEST JUMPDEST PUSH0 PUSH2 0x278 DUP6 DUP3 DUP7 ADD PUSH2 0x1EE JUMP JUMPDEST SWAP3 POP POP PUSH1 0x20 PUSH2 0x289 DUP6 DUP3 DUP7 ADD PUSH2 0x1EE JUMP JUMPDEST SWAP2 POP POP SWAP3 POP SWAP3 SWAP1 POP JUMP JUMPDEST PUSH32 0x4E487B7100000000000000000000000000000000000000000000000000000000 PUSH0 MSTORE PUSH1 0x11 PUSH1 0x4 MSTORE PUSH1 0x24 PUSH0 REVERT JUMPDEST PUSH0 PUSH2 0x2CA DUP3 PUSH2 0x1CF JUMP JUMPDEST SWAP2 POP PUSH2 0x2D5 DUP4 PUSH2 0x1CF JUMP JUMPDEST SWAP3 POP DUP3 DUP3 ADD SWAP1 POP DUP1 DUP3 GT ISZERO PUSH2 0x2ED JUMPI PUSH2 0x2EC PUSH2 0x293 JUMP JUMPDEST JUMPDEST SWAP3 SWAP2 POP POP JUMP JUMPDEST PUSH0 PUSH2 0x2FD DUP3 PUSH2 0x1CF JUMP JUMPDEST SWAP2 POP PUSH2 0x308 DUP4 PUSH2 0x1CF JUMP JUMPDEST SWAP3 POP DUP3 DUP3 SUB SWAP1 POP DUP2 DUP2 GT ISZERO PUSH2 0x320 JUMPI PUSH2 0x31F PUSH2 0x293 JUMP JUMPDEST JUMPDEST SWAP3 SWAP2 POP POP JUMP JUMPDEST PUSH32 0x4E487B7100000000000000000000000000000000000000000000000000000000 PUSH0 MSTORE PUSH1 0x12 PUSH1 0x4 MSTORE PUSH1 0x24 PUSH0 REVERT JUMPDEST PUSH0 PUSH2 0x35D DUP3 PUSH2 0x1CF JUMP JUMPDEST SWAP2 POP PUSH2 0x368 DUP4 PUSH2 0x1CF JUMP JUMPDEST SWAP3 POP DUP3 PUSH2 0x378 JUMPI PUSH2 0x377 PUSH2 0x326 JUMP JUMPDEST JUMPDEST DUP3 DUP3 DIV SWAP1 POP SWAP3 SWAP2 POP POP JUMP JUMPDEST PUSH0 PUSH2 0x38D DUP3 PUSH2 0x1CF JUMP JUMPDEST SWAP2 POP PUSH2 0x398 DUP4 PUSH2 0x1CF JUMP JUMPDEST SWAP3 POP DUP3 DUP3 MUL PUSH2 0x3A6 DUP2 PUSH2 0x1CF JUMP JUMPDEST SWAP2 POP DUP3 DUP3 DIV DUP5 EQ DUP4 ISZERO OR PUSH2 0x3BD JUMPI PUSH2 0x3BC PUSH2 0x293 JUMP JUMPDEST JUMPDEST POP SWAP3 SWAP2 POP POP JUMP INVALID LOG2 PUSH5 0x6970667358 0x22 SLT KECCAK256 0xEF SWAP13 0xA6 DUP9 0xD5 PUSH23 0x8AB33FE3D2B763B79E0D982565CC0DAF56D2D3A391D276 0xC6 BLOBHASH 0xDE PUSH5 0x736F6C6343 STOP ADDMOD 0x1E STOP CALLER "
				},
				"gasEstimates": {
					"creation": {
						"codeDepositCost": "203600",
						"executionCost": "5247",
						"totalCost": "208847"
					},
					"external": {
						"add(uint256)": "infinite",
						"algebra(uint256,uint256)": "infinite",
						"divide(uint256)": "infinite",
						"getresult()": "2475",
						"multiply(uint256)": "infinite",
						"subtract(uint256)": "infinite"
					}
				},
				"methodIdentifiers": {
					"add(uint256)": "1003e2d2",
					"algebra(uint256,uint256)": "75ebb5df",
					"divide(uint256)": "3e823f79",
					"getresult()": "40fc0502",
					"multiply(uint256)": "c6888fa1",
					"subtract(uint256)": "1dc05f17"
				}
			},
			"storageLayout": {
				"storage": [
					{
						"astId": 4,
						"contract": "contracts/Calculator.sol:Calculator",
						"label": "result",
						"offset": 0,
						"slot": "0",
						"type": "t_uint256"
					}
				],
				"types": {
					"t_uint256": {
						"encoding": "inplace",
						"label": "uint256",
						"numberOfBytes": "32"
					}
				}
			},
			"userdoc": {
				"kind": "user",
				"methods": {},
				"version": 1
			}
		}
	}
}